:060000000A128A11692FAB
:100ED20083010A128A116D2F0630831603139800BC
:100EE2008E30831203139800143083160313990073
:100EF2008B018C0198168312031398178316031320
:100F02000C168312031318168B130B178316031375
:100F12008C168B168112811501158114011485011D
:100F2200FF30860088018312031385018801992FFF
:100F3200F1019C2FCE2FD93099009F2F0C1EA22F8A
:100F4200A32F9F2F0C1299309900A72F0C1EAA2FA6
:100F5200AB2FA72F0C128B309900AF2F0C1EB22F84
:100F6200B32FAF2F0C120608F0007008F2007208BF
:100F72009900BB2F0C1EBE2FBF2FBB2F0C12720865
:100F82008B3E9900C42F0C1EC72FC82FC42F0C12E2
:100F92000130F0007008F1079C2FD9309900D12F51
:100FA2000C1ED42FD52FD12F0C1299309900D92F86
:100FB2000C1EDC2FDD2FD92F0C128B309900E12F64
:100FC2000C1EE42FE52FE12F0C128B30F00070087D
:100FD200F20072089900ED2F0C1EF02FF12FED2F69
:100FE2000C1272088B3E9900F62F0C1EF92FFA2F65
:0E0FF200F62F0C12992F992F0A128A1100283F
:00000001FF
