:060000000A128A11122809
:10000800FE00030EF1000408F2000A08F300831250
:1000180003137F08F4000A128A11252A0A128A118A
:100028004D2A83120313DB0106308316031398004D
:100038008E3083120313980014308316031399002B
:100048008B018C01981683120313981718168B17B7
:100058000B17831603138C168501860188018312FA
:10006800031385018601880199300A128A115A22E0
:100078000A128A1119300A128A115A220A128A118E
:10008800B2300A128A115A220A128A114B280130F8
:10009800831203138606DF01942957280130D500FF
:1000A8005508DF075728831203135F08203E840092
:1000B80083130008993A0319622863286B285208A9
:1000C8005F02031C6828692852286B286B285F0880
:1000D800013ED500003003180130D6005608803A9A
:1000E800D70080305702031D7B2852085502031899
:1000F8007E287F289429831203135F08013E203E3F
:10010800840083130008D5005508DC008A295C08A0
:100118000A128A11F0210A128A1183120313D500D8
:100128005508DE00DB015F085E07D500D601D60D55
:100138005508FF3ED70056080318013EFF3ED80079
:100148005808803AD90080305902031DAD2852085A
:1001580057020318B028B1289429831203135F08A3
:10016800013ED5005508DD00C828831203135D0839
:10017800203E840083130008D5005508DB070130B2
:10018800D5005508DD07C8285F085E07D500D601E9
:10019800D60D5508FF3ED70056080318013EFF3E0E
:1001A800D8005808803A803C031DDC2857085D02B7
:1001B800031CDF28E028B928E128831203135E080E
:1001C8005F07FF3E203E8400831300085B06031D83
:1001D800EE28EF28FF285F08023E203E8400000832
:1001E800D5005508DA005A0888005E085F07D50070
:1001F8005508DF0094295E085F07D5005508DF0021
:100208009429942994295C080A128A11F0210A1267
:100218008A1183120313D5005508DE00DB015F083D
:100228005E07D500D601D60D5508FF3ED700560803
:100238000318013EFF3ED8005808803AD9008030A4
:100248005902031D29295208570203182C292D2960
:100258009429831203135F08013ED5005508DD0079
:100268004429831203135D08203E84008313000889
:10027800D5005508DB070130D5005508DD074429AE
:100288005F085E07D500D601D60D5508FF3ED7009A
:1002980056080318013EFF3ED8005808803A803CB3
:1002A800031D582957085D02031C5B295C29352961
:1002B8005D29831203135E085F07FF3E203E84001A
:1002C800831300085B06031D6A296B297B295F08D5
:1002D800023E203E84000008D5005508DA005A087E
:1002E80088005E085F07D5005508DF0094295E087E
:1002F8005F07D5005508DF009429942994295F08E1
:10030800043ED5005508DF00942994295C088A3AF0
:1003180003190729013A03198B2883299429942959
:10032800831203135F08043ED50000300318013020
:10033800D6005608803AD70080305702031DA629F8
:1003480052085502031CA929AA295728AB29831248
:1003580003135F080A128A11B8210A128A114B285E
:100368004B280A128A11122883120313D300D401CE
:10037800D0298312031353085407203E84008313A3
:100388000008F5005408203E8400750880000130FC
:10039800F5007508D407D0295308F500F601F509CA
:1003A800F609F50A0319F60A52087507F7007608E0
:1003B8000318760AF8007808803A803C031DE6297D
:1003C80077085402031CE929EA29BD29EB2983127D
:1003D80003135308D2020800F600112A0430F5006E
:1003E8007508F700222A0430F5007508F700222A5C
:1003F8000430F5007508F700222A0430F500750866
:10040800F700222A0430F5007508F700222A043084
:10041800F5007508F700222A222A76080A3A0319F5
:10042800FC29013A0319012A073A0319062A863AD0
:100438000319F229013A0319F7290B2A7708242A04
:1004480008008C1E282A292A422A31305202031811
:100458002E2A2F2A3D2A1A08F0005208203E84002E
:100468007008831380009A010130F0007008D207E9
:10047800422AD2010314D20D422A422A7408FF00EC
:1004880073088A0072088400710E8300FE0E7E0EC7
:10049800090083132030840053300A128A1166221F
:1004A8000A128A1183010A128A111528F5007508A3
:1004B800831203139900602A0C1E632A642A602A97
:1004C8000C12080064008001840A04060319003431
:0404D8000406672A85
:00000001FF
