:020000040000FA
:0600000034EF1DF01200B8
:020006001200E6
:06000800BFEF17F012002B
:02000E00C250DE
:08001000020B01E0010E1200D9
:0600180019EF18F01200C0
:02001E000300DD
:10002000C73A0000800000000C000000C23A000047
:10003000A700000005000000C03A0000B00000006A
:0400400002000000BA
:0C004400D9CFE6FFE1CFD9FF080EE1267E
:10005000DE6ADE6ADE6ADD6ADD52DD520001746B43
:10006000756B0001766B776B0001786B796B000123
:100070007A6B7B6B00017C6B7D6B00017E6B7F6B11
:1000800089888B9A8A9A8B90899CD00EE66E070E8F
:10009000E66E41EC0DF0E552E5528A8ADC0EE66E22
:1000A000050EE66E41EC0DF0E552E552898C040E2A
:1000B000DB6A050EDB6A060EDB6A070EDB6AD950C7
:1000C000040FE96EDACFEAFFD890030EEB50000A76
:1000D00008E6140EEE5C000EEE58000EEE58000E10
:1000E000EE5830E2870EE66EC7EC0EF0E552F350A4
:1000F00000017427F4507523930EE66EC7EC0EF0E2
:10010000E552F35000017A27F4507B23830EE66E0C
:10011000C7EC0EF0E552F35000017C27F4507D232C
:10012000320EE66EE66A41EC0DF0E552E552D9502A
:10013000040FE96EDACFEAFFEE2A000EEE22EE227D
:10014000EE22BDD7140E356E366A74C030F075C01D
:1001500031F03BEC11F030C074F031C075F0140E8A
:10016000356E366A7AC030F07BC031F03BEC11F06E
:1001700030C07AF031C07BF0140E356E366A7CC028
:1001800030F07DC031F03BEC11F030C07CF031C07C
:100190007DF08A9A899C8B8ADC0EE66E050EE66EEF
:1001A00041EC0DF0E552E552898C040EDB6A050E38
:1001B000DB6A060EDB6A070EDB6AD950040FE96EB4
:1001C000DACFEAFFD890030EEB50000A08E6B80E2B
:1001D000EE5C0B0EEE58000EEE58000EEE582BE2C1
:1001E000830EE66EC7EC0EF0E552F3CF00F0F4CFCD
:1001F00001F0026A036A01AE02D00268036800508F
:10020000DE260150DE220250DE220350DD22DD52C6
:10021000DD52010EE66EE66A41EC0DF0E552E55264
:10022000D950040FE96EDACFEAFFEE2A000EEE2273
:10023000EE22EE22C2D77CC000F07DC001F0026A3F
:10024000036A01AE02D002680368D9CFE9FFDACFB2
:10025000EAFF0050EE5E0150EE5A0250EE5A035093
:10026000EE5AD9CFE9FFDACFEAFF840E336E030EE0
:10027000346E356A366AEECF2EF0EECF2FF0EECF29
:1002800030F0EFCF31F061EC11F031C0EDFF30C054
:10029000EDFF2FC0EDFF2EC0EFFF000EDFCF7EF091
:1002A000010EDBCF7FF08B9A8B80899CDC0EE66E93
:1002B000050EE66E41EC0DF0E552E552898C040E18
:1002C000DB6A050EDB6A060EDB6A070EDB6AD950B5
:1002D000040FE96EDACFEAFFD890030EEB50000A64
:1002E00008E6140EEE5C000EEE58000EEE58000EFE
:1002F000EE5826E2870EE66EC7EC0EF0E552F3509C
:1003000000017627F4507723930EE66EC7EC0EF0CB
:10031000E552F35000017827F4507923320EE66E4F
:10032000E66A41EC0DF0E552E552D950040FE96E52
:10033000DACFEAFFEE2A000EEE22EE22EE22C7D737
:10034000140E356E366A76C030F077C031F03BEC73
:1003500011F030C076F031C077F0140E356E366A89
:1003600078C030F079C031F03BEC11F030C078F05B
:1003700031C079F08988010EE66E42EC1DF0E5523D
:100380008B8A010EE66E42EC1DF0E5528A8A8B8064
:10039000899C82B416D082A613D089988B9A8A9AA7
:1003A0008B90898CF40EE66E010EE66E41EC0DF03A
:1003B000E552E552899C21EC0BF0F36AF46A15D002
:1003C000E8D7BBEC0BF0898CF40EE66E010EE66EFE
:1003D00041EC0DF0E552E55289988B9A8A9A8B9000
:1003E000899C010EF36EF46A00D0080EE15C02E213
:1003F000E16AE552E16EE552E7CFD9FF1200D9CFAD
:10040000E6FFE1CFD9FF210EE126C30E046EF50E03
:10041000056E1C0E066E410E076EFD0EDBCF30F032
:10042000FE0EDBCF31F000017451305C0C6E755163
:1004300031580D6E0CC030F00DC031F0D1EC0FF022
:100440002FC008F030C009F031C00AF032C00BF004
:1004500008C034F009C035F00AC036F00BC037F0E0
:1004600004C02FF005C030F006C031F007C032F0F4
:10047000CEEC10F02FC000F030C001F031C002F01F
:1004800032C003F076C030F077C031F0D1EC0FF01D
:100490002FC00EF030C00FF031C010F032C011F09C
:1004A0000EC034F00FC035F010C036F011C037F078
:1004B00000C02FF001C030F002C031F003C032F0B4
:1004C0007BEC10F02FC0DEFF30C0DEFF31C0DEFF5E
:1004D00032C0DDFFDD52DD52C30E046EF50E056E37
:1004E0001C0E066E410E076EFB0EDBCF30F0FC0ECD
:1004F000DBCF31F000017851305C0C6E795131580E
:100500000D6E0CC030F00DC031F0D1EC0FF02FC0EB
:1005100008F030C009F031C00AF032C00BF008C05A
:1005200034F009C035F00AC036F00BC037F004C013
:100530002FF005C030F006C031F007C032F0CEEC2D
:1005400010F02FC000F030C001F031C002F032C016
:1005500003F07AC030F07BC031F0D1EC0FF02FC047
:100560000EF030C00FF031C010F032C011F00EC0EC
:1005700034F00FC035F010C036F011C037F000C0B5
:100580002FF001C030F002C031F003C032F07BEC3C
:1005900010F0040E2FC0DBFF050E30C0DBFF060E8F
:1005A00031C0DBFF070E32C0DBFF046A056AC80EEC
:1005B000066EC20E076EF90EDBCF30F0FA0EDBCFFF
:1005C00031F000017C51305C0C6E7D5131580D6E64
:1005D0000CC030F00DC031F0D1EC0FF02FC008F09E
:1005E00030C009F031C00AF032C00BF008C034F05E
:1005F00009C035F00AC036F00BC037F004C02FF048
:1006000005C030F006C031F007C032F0CEEC10F07B
:100610002FC000F030C001F031C002F032C003F052
:100620007EC030F07FC031F0D1EC0FF02FC00EF063
:1006300030C00FF031C010F032C011F00EC034F0F5
:100640000FC035F010C036F011C037F000C02FF0E9
:1006500001C030F002C031F003C032F07BEC10F08A
:10066000080E2FC0DBFF090E30C0DBFF0A0E31C0C1
:10067000DBFF0B0E32C0DBFFD9CFE9FFDACFEAFF99
:10068000EECF10F0EECF11F0EECF12F0EFCF13F06F
:10069000040EDBCF14F0050EDBCF15F0060EDBCF1A
:1006A00016F0070EDBCF17F014C034F015C035F08C
:1006B00016C036F017C037F010C02FF011C030F060
:1006C00012C031F013C032F0E5EC0FF02FC00CF087
:1006D00030C00DF031C00EF032C00FF0F50EDBCFA0
:1006E00018F0F60EDBCF19F0F70EDBCF1AF0F80E8C
:1006F000DBCF1BF018C034F019C035F01AC036F04B
:100700001BC037F00CC02FF00DC030F00EC031F020
:100710000FC032F0E4EC0FF02FC008F030C009F049
:1007200031C00AF032C00BF0C30E346EF50E356ED8
:100730001C0E366E410E376E08C02FF009C030F027
:100740000AC031F00BC032F0E4EC0FF02FC004F01F
:1007500030C005F031C006F032C007F0330E346E01
:10076000356E650E366E420E376E04C02FF005C032
:1007700030F006C031F007C032F0CEEC10F02FC0E0
:1007800000F030C001F031C002F032C003F0C30EFF
:10079000206EF50E216E1C0E226E410E236EF50E9C
:1007A000DBCF24F0F60EDBCF25F0F70EDBCF26F003
:1007B000F80EDBCF27F024C034F025C035F026C07A
:1007C00036F027C037F020C02FF021C030F022C013
:1007D00031F023C032F0E4EC0FF02FC01CF030C039
:1007E0001DF031C01EF032C01FF01CC034F01DC01F
:1007F00035F01EC036F01FC037F000C02FF001C02A
:1008000030F002C031F003C032F07BEC10F00C0E7F
:100810002FC0DBFF0D0E30C0DBFF0E0E31C0DBFF43
:100820000F0E32C0DBFF0C0EDBCF00F00D0EDBCF66
:1008300001F00E0EDBCF02F00F0EDBCF03F0346AB7
:10084000356A700E366E410E376E00C02FF001C053
:1008500030F002C031F003C032F095EC11F0010A23
:1008600013E10C0EDB6A0D0EDB6A700EF36E0E0EDA
:10087000F3CFDBFF410EF36E0F0EF3CFDBFF010E64
:10088000F36E200EF3CFDBFF0C0EDBCF00F00D0E6E
:10089000DBCF01F00E0EDBCF02F00F0EDBCF03F04B
:1008A000346A356A700E366EC10E376E00C02FF096
:1008B00001C030F002C031F003C032F09EEC11F004
:1008C000010A13E10C0EDB6A0D0EDB6A700EF36E8B
:1008D0000E0EF3CFDBFFC10EF36E0F0EF3CFDBFF77
:1008E000010EF36E200EF3CFDBFF080EDBCF2FF0EF
:1008F000090EDBCF30F00A0EDBCF31F00B0EDBCF71
:1009000032F0ED0EDBCF34F0EE0EDBCF35F0EF0E34
:10091000DBCF36F0F00EDBCF37F0CEEC10F02FC08F
:1009200004F030C005F031C006F032C007F0346A80
:10093000356A7A0E366E440E376E04C02FF005C04D
:1009400030F006C031F007C032F07BEC10F02FC061
:1009500000F030C001F031C002F032C003F0F10EFF
:10096000DBCF08F0F20EDBCF09F0F30EDBCF0AF09D
:10097000F40EDBCF0BF008C034F009C035F00AC02C
:1009800036F00BC037F000C02FF001C030F002C0CD
:1009900031F003C032F0E5EC0FF0100E2FC0DBFF9A
:1009A000110E30C0DBFF120E31C0DBFF130E32C060
:1009B000DBFF6CC02FF06DC030F06EC031F06FC047
:1009C00032F00C0EDBCF34F00D0EDBCF35F00E0E17
:1009D000DBCF36F00F0EDBCF37F0CEEC10F02FC0B0
:1009E00000F030C001F031C002F032C003F0086AFC
:1009F000096A800E0A6E3F0E0B6E6CC034F06DC03B
:100A000035F06EC036F06FC037F008C02FF009C067
:100A100030F00AC031F00BC032F0E4EC0FF0100EF1
:100A2000DBCF34F0110EDBCF35F0120EDBCF36F01A
:100A3000130EDBCF37F0CEEC10F02FC004F030C037
:100A400005F031C006F032C007F004C034F005C034
:100A500035F006C036F007C037F000C02FF001C0F7
:100A600030F002C031F003C032F0E5EC0FF0180EA8
:100A70002FC0DBFF190E30C0DBFF1A0E31C0DBFFC9
:100A80001B0E32C0DBFFD950080FE96EDACFEAFF48
:100A90001C0EEECFDBFF1D0EEECFDBFF1E0EEECFEA
:100AA000DBFF1F0EEECFDBFF180EDBCF00F0190EC1
:100AB000DBCF01F01A0EDBCF02F01B0EDBCF03F011
:100AC0001C0EDBCF04F01D0EDBCF05F01E0EDBCFBE
:100AD00006F01F0EDBCF07F0200EDBCF08F0D9CFDA
:100AE000E9FFDACFEAFFED50ED5008C0EDFF07C097
:100AF000EDFF06C0EDFF05C0EDFF04C0EDFF03C034
:100B0000EDFF02C0EDFF01C0EDFF00C0EFFF210EC1
:100B1000E15C03E200D0E16AE552E16EE552E7CF25
:040B2000D9FF1200E7
:0C0B2400D9CFE6FFE1CFD9FF530EE12648
:100B3000FE0EDB500FE00001806B816B826B836BDC
:100B4000846B856B866B876B886B896B8CEC18F07C
:100B5000010EB5D288C0E6FF89C0E6FF05EC0DF0B6
:100B6000E552E552510EF3CFDBFF520EF4CFDBFF1F
:100B7000B0C088F0B1C089F0510EDBCF30F0520E1A
:100B8000DBCF31F0CFEC0FF0410E2FC0DBFF420E78
:100B900030C0DBFF430E31C0DBFF440E32C0DBFF51
:100BA0004CEC15F0000902E1000E89D2870EE66ECA
:100BB000C7EC0EF0E552F3CFDEFFF4CFDDFF930E6E
:100BC000E66EC7EC0EF0E552020EF3CFDBFF030E2C
:100BD000F4CFDBFF830EE66EC7EC0EF0E552040E99
:100BE000F3CFDBFF050EF4CFDBFF970EE66EC7EC0D
:100BF0000EF0E552060EF3CFDBFF070EF4CFDBFF5E
:100C00009B0EE66EC7EC0EF0E552080EF3CFDBFF4D
:100C1000090EF4CFDBFF9F0EE66EC7EC0EF0E55237
:100C20000A0EF3CFDBFF0B0EF4CFDBFF1C0EE12629
:100C3000D950410FE96EDACFEAFFEECFE6FFEECFF3
:100C4000E6FFEECFE6FFEFCFE6FF8DEC18F0EECF3C
:100C500000F0EECF01F0EECF02F0EECF03F0EECFDA
:100C600004F0EECF05F0EECF06F0EECF07F0EECFBA
:100C700008F0EECF09F0EECF0AF0EECF0BF0EECF9A
:100C80000CF0EECF0DF0EECF0EF0EECF0FF0EECF7A
:100C900010F0EECF11F0EECF12F0EECF13F0EECF5A
:100CA00014F0EECF15F0EECF16F0EECF17F0EECF3A
:100CB00018F0EECF19F0EECF1AF0EECF1BF0EECF1A
:100CC0001CF0EECF1DF0EECF1EF0EECF1FF0206E29
:100CD000200EE15E20500C0E00C0DBFF0D0E01C0A7
:100CE000DBFF0E0E02C0DBFF0F0E03C0DBFF100E9A
:100CF00004C0DBFF110E05C0DBFF120E06C0DBFFD8
:100D0000130E07C0DBFF140E08C0DBFF150E09C071
:100D1000DBFF160E0AC0DBFF170E0BC0DBFF180E41
:100D20000CC0DBFF190E0DC0DBFF1A0E0EC0DBFF7F
:100D30001B0E0FC0DBFF1C0E10C0DBFF1D0E11C011
:100D4000DBFF1E0E12C0DBFF1F0E13C0DBFF200EE9
:100D500014C0DBFF210E15C0DBFF220E16C0DBFF27
:100D6000230E17C0DBFF240E18C0DBFF250E19C0B1
:100D7000DBFF260E1AC0DBFF270E1BC0DBFF280E91
:100D80001CC0DBFF290E1DC0DBFF2A0E1EC0DBFFCF
:100D90002B0E1FC0DBFFD950410FE96EDACFEAFFFF
:100DA000EECFE6FFEECFE6FFEECFE6FFEFCFE6FFBA
:100DB00080C0E6FF81C0E6FF82C0E6FF83C0E6FF99
:100DC000D950280FE96EDACFEAFFEECFE6FFEECF7B
:100DD000E6FFEECFE6FFEFCFE6FF040EDBCFE6FF48
:100DE000050EDBCFE6FF020EDBCFE6FF030EDBCF07
:100DF000E6FFDECFE6FFDDCFE6FFFFEC01F0EECF52
:100E000000F0EECF01F0EECF02F0EECF03F0EECF28
:100E100004F0EECF05F0EECF06F0EECF07F0EECF08
:100E200008F0096E120EE15E09502C0E00C0DBFFC7
:100E30002D0E01C0DBFF2E0E02C0DBFF2F0E03C004
:100E4000DBFF300E04C0DBFF310E05C0DBFF320ECE
:100E500006C0DBFF330E07C0DBFF340E08C0DBFF2C
:100E60002C0EDBCF80F02D0EDBCF81F02E0EDBCFF2
:100E700082F02F0EDBCF83F0D9502C0FE96EDACF42
:100E8000EAFFEECFE6FFEECFE6FFEECFE6FFEFCFD5
:100E9000E6FF84C0E6FF85C0E6FF86C0E6FF87C0A8
:100EA000E6FFD950240FE96EDACFEAFFEECFE6FF76
:100EB000EECFE6FFEECFE6FFEFCFE6FF82EC12F0DB
:100EC000006E0C0EE15E0050350E2EC0DBFF360EBC
:100ED0002FC0DBFF370E30C0DBFF380E31C0DBFF29
:100EE000350EDBCF84F0360EDBCF85F0370EDBCF4F
:100EF00086F0380EDBCF87F0D950300FE96EDACFAD
:100F0000EAFFEECFE6FFEECFE6FFEECFE6FFEFCF54
:100F1000E6FFD9502C0FE96EDACFEAFFEECFE6FFFD
:100F2000EECFE6FFEECFE6FFEFCFE6FFD950350F6D
:100F3000E96EDACFEAFFEECFE6FFEECFE6FFEECFC7
:100F4000E6FFEFCFE6FF97EC12F0006E0C0EE15ECD
:100F50000050390E2EC0DBFF3A0E2FC0DBFF3B0ED8
:100F600030C0DBFF3C0E31C0DBFF060EDBCFE6FFFF
:100F7000C4EC14F0E5523D0E2EC0DBFF3E0E2FC038
:100F8000DBFF3F0E30C0DBFF400E31C0DBFFD9502E
:100F90003D0FE96EDACFEAFFEECFE6FFEECFE6FFD8
:100FA000EECFE6FFEFCFE6FFD9501C0FE96EDACFA8
:100FB000EAFFEECFE6FFEECFE6FFEECFE6FFEFCFA4
:100FC000E6FFD950180FE96EDACFEAFFEECFE6FF61
:100FD000EECFE6FFEECFE6FFEFCFE6FFD950390FB9
:100FE000E96EDACFEAFFEECFE6FFEECFE6FFEECF17
:100FF000E6FFEFCFE6FF5AEC13F0EECF00F0EECFB6
:1010000001F0EECF02F0EECF03F0EECF04F0EECF22
:1010100005F0EECF06F0EECF07F0EECF08F0EECF02
:1010200009F0EECF0AF0EECF0BF00C6E100EE15E81
:101030000C50450E00C0DBFF460E01C0DBFF470E23
:1010400002C0DBFF480E03C0DBFF490E04C0DBFF1C
:101050004A0E05C0DBFF4B0E06C0DBFF4C0E07C07F
:10106000DBFF4D0E08C0DBFF4E0E09C0DBFF4F0E4D
:101070000AC0DBFF500E0BC0DBFFD9504D0FE96EED
:10108000DACFEAFFEECFE6FFEECFE6FFEECFE6FFE8
:10109000EFCFE6FFD950490FE96EDACFEAFFEECF86
:1010A000E6FFEECFE6FFEECFE6FFEFCFE6FF4FEC39
:1010B00015F0006E080EE15E0050010E00D0006ECB
:1010C000530EE15C02E2E16AE552E16E0050E55246
:1010D000E7CFD9FF1200D9CFE6FFE1CFD9FF1B0E32
:1010E000E126870EE66EC7EC0EF0E552020EF3CF56
:1010F000DBFF030EF4CFDBFF930EE66EC7EC0EF0C2
:10110000E552040EF3CFDBFF050EF4CFDBFF970EA5
:10111000E66EC7EC0EF0E552080EF3CFDBFF090ECA
:10112000F4CFDBFFE66AE66AE66AE66AE66AE66A42
:10113000E66AE66AE66AE66AE66AE66A060EDBCF11
:10114000E6FF070EDBCFE6FF040EDBCFE6FF050E62
:10115000DBCFE6FF020EDBCFE6FF030EDBCFE6FFC1
:10116000FFEC01F0EECF00F0EECF01F0EECF02F099
:10117000EECF03F0EECF04F0EECF05F0EECF06F0A9
:10118000EECF07F0EECF08F0096E120EE15E0950C7
:101190000A0E00C0DBFF0B0E01C0DBFF0C0E02C00D
:1011A000DBFF0D0E03C0DBFF0E0E04C0DBFF0F0ED6
:1011B00005C0DBFF100E06C0DBFF110E07C0DBFF12
:1011C000120E08C0DBFFD9500A0FE96EDACFEAFF32
:1011D000170EEECFDBFF180EEECFDBFF190EEECFB2
:1011E000DBFF1A0EEECFDBFF080EDBCFE6FFC4EC11
:1011F00014F0E552130E2EC0DBFF140E2FC0DBFFE0
:10120000150E30C0DBFF160E31C0DBFF130EDBCF37
:1012100000F0140EDBCF01F0150EDBCF02F0160E3E
:10122000DBCF03F0346A356A200E366EC10E376E9E
:1012300000C02FF001C030F002C031F003C032F026
:101240009EEC11F0010A02E0000E01D0010EE8B0A0
:101250008A8AE8A08A9A130EDBCF00F0140EDBCF47
:1012600001F0150EDBCF02F0160EDBCF03F0346A6F
:10127000356A200E366E410E376E00C02FF001C069
:1012800030F002C031F003C032F095EC11F0010AE9
:1012900002E0000E01D0010EE8B08B80E8A08B9038
:1012A000170EDBCF00F0180EDBCF01F0190EDBCFED
:1012B00002F01A0EDBCF03F0346A356A366A400E4C
:1012C000376E00C02FF001C030F002C031F003C013
:1012D00032F095EC11F0010A02E0000E01D0010E8F
:1012E000E8B08988E8A08998170EDBCF00F0180EC7
:1012F000DBCF01F0190EDBCF02F01A0EDBCF03F0CB
:10130000346A356A366AC00E376E00C02FF001C0ED
:1013100030F002C031F003C032F09EEC11F0010A4F
:1013200002E0000E01D0010EE8B08B8AE8A08B9A93
:101330008B50200B01E0010E026E8950100B01E072
:10134000010E016E8B50010B006E8A50200B01E0E4
:10135000010E00100110021002E0000E01D0010E7B
:10136000E8B0898EE8A0899E89AE2ED04CEC15F0AD
:10137000000926E08AC0E6FF8BC0E6FF05EC0DF011
:10138000E552E552F3CFDEFFF4CFDDFFD9CFE9FF21
:10139000DACFEAFFD00ED880EE54070EED540DE2FE
:1013A000DECF00F0DDCF01F0A00E005C0F0E015883
:1013B00004E2899E898C010E0DD0000E0BD004D062
:1013C0008A8A8B8089888B8AB0C08AF0B1C08BF002
:1013D000000E00D0006E1B0EE15C02E2E16AE552F5
:0C13E000E16E0050E552E7CFD9FF12008B
:0413EC000001606B31
:1013F000616BA00E626F410E636F646B656B200EB4
:10140000666F410E676F686B696BF00E6A6F410E15
:101410006B6FCD0E6C6FCC0E6D6F4C0E6E6F3E0E03
:101420006F6F706B716B726B3F0E736F1200D9CF61
:10143000E6FFE1CFD9FF030EE1268C0EDE6EDD6AFA
:10144000040EF36E020EF3CFDBFFDBCFE6FFDECF41
:10145000E6FFDDCFE6FF600EE66E000EE66E5CECAA
:101460000FF0006E050EE15E0050020EDB50DE262E
:10147000000EDD22020EDBCFE6FFDECFE6FFDDCF82
:10148000E6FF640EE66E000EE66E5CEC0FF0006E9A
:10149000050EE15E0050020EDB50DE26000EDD225E
:1014A000020EDBCFE6FFDECFE6FFDDCFE6FF680E04
:1014B000E66E000EE66E5CEC0FF0006E050EE15E6F
:1014C0000050020EDB50DE26000EDD22020EDBCFC6
:1014D000E6FFDECFE6FFDDCFE6FF6C0EE66E000E28
:1014E000E66E5CEC0FF0006E050EE15E0050020E41
:1014F000DB50DE26000EDD22020EDBCFE6FFDECF64
:10150000E6FFDDCFE6FF700EE66E000EE66E5CECE9
:101510000FF0006E050EE15E0050020EDB50DE267D
:10152000000EDD22030EE15C02E2E16AE552E16EAB
:10153000E552E7CFD9FF1200D9CFE6FFE1CFD9FFBF
:10154000030EE1268C0EDE6EDD6A040EF36E020ED3
:10155000F3CFDBFFDBCFE6FFDECFE6FFDDCFE6FF3D
:10156000600EE66E000EE66EE7EC0EF0006E050E05
:10157000E15E0050020EDB50DE26000EDD22020E80
:10158000DBCFE6FFDECFE6FFDDCFE6FF640EE66EE3
:10159000000EE66EE7EC0EF0006E050EE15E005008
:1015A000020EDB50DE26000EDD22020EDBCFE6FF50
:1015B000DECFE6FFDDCFE6FF680EE66E000EE66EDC
:1015C000E7EC0EF0006E050EE15E0050020EDB50FF
:1015D000DE26000EDD22020EDBCFE6FFDECFE6FFC9
:1015E000DDCFE6FF6C0EE66E000EE66EE7EC0EF069
:1015F000006E050EE15E0050020EDB50DE26000E8E
:10160000DD22020EDBCFE6FFDECFE6FFDDCFE6FF19
:10161000700EE66E000EE66EE7EC0EF0006E050E44
:10162000E15E0050020EDB50DE26000EDD22030ECE
:10163000E15C02E2E16AE552E16EE552E7CFD9FFF3
:101640001200D9CFE6FFE1CFD9FF030EE126640EE9
:10165000DE6EDD6A020EF36EF3CFDBFFDBCFE6FF5B
:10166000DECFE6FFDDCFE6FF740EE66E000EE66E1F
:101670005CEC0FF0006E050EE15E0050020EDB50D8
:10168000DE26000EDD22020EDBCFE6FFDECFE6FF18
:10169000DDCFE6FF760EE66E000EE66E5CEC0FF038
:1016A000006E050EE15E0050020EDB50DE26000EDD
:1016B000DD22020EDBCFE6FFDECFE6FFDDCFE6FF69
:1016C000780EE66E000EE66E5CEC0FF0006E050E16
:1016D000E15E0050020EDB50DE26000EDD22020E1F
:1016E000DBCFE6FFDECFE6FFDDCFE6FF7A0EE66E6C
:1016F000000EE66E5CEC0FF0006E050EE15E005031
:10170000020EDB50DE26000EDD22020EDBCFE6FFEE
:10171000DECFE6FFDDCFE6FF7C0EE66E000EE66E66
:101720005CEC0FF0006E050EE15E0050020EDB5027
:10173000DE26000EDD22020EDBCFE6FFDECFE6FF67
:10174000DDCFE6FF7E0EE66E000EE66E5CEC0FF07F
:10175000006E050EE15E0050020EDB50DE26000E2C
:10176000DD22030EE15C02E2E16AE552E16EE55240
:10177000E7CFD9FF1200D9CFE6FFE1CFD9FF030EA3
:10178000E126640EDE6EDD6A020EF36EF3CFDBFF40
:10179000DBCFE6FFDECFE6FFDDCFE6FF740EE66EC1
:1017A000000EE66EE7EC0EF0006E050EE15E0050F6
:1017B000020EDB50DE26000EDD22020EDBCFE6FF3E
:1017C000DECFE6FFDDCFE6FF760EE66E000EE66EBC
:1017D000E7EC0EF0006E050EE15E0050020EDB50ED
:1017E000DE26000EDD22020EDBCFE6FFDECFE6FFB7
:1017F000DDCFE6FF780EE66E000EE66EE7EC0EF04B
:10180000006E050EE15E0050020EDB50DE26000E7B
:10181000DD22020EDBCFE6FFDECFE6FFDDCFE6FF07
:101820007A0EE66E000EE66EE7EC0EF0006E050E28
:10183000E15E0050020EDB50DE26000EDD22020EBD
:10184000DBCFE6FFDECFE6FFDDCFE6FF7C0EE66E08
:10185000000EE66EE7EC0EF0006E050EE15E005045
:10186000020EDB50DE26000EDD22020EDBCFE6FF8D
:10187000DECFE6FFDDCFE6FF7E0EE66E000EE66E03
:10188000E7EC0EF0006E050EE15E0050020EDB503C
:10189000DE26000EDD22030EE15C02E2E16AE55283
:1018A000E16EE552E7CFD9FF1200D9CFE6FFE1CFD5
:1018B000D9FF030EE126B40EDE6EDD6A020EF36E72
:1018C000F3CFDBFFDBCFE6FFDECFE6FFDDCFE6FFCA
:1018D000A30EE66E000EE66E5CEC0FF0006E050ED9
:1018E000E15E0050020EDB50DE26000EDD22020E0D
:1018F000DBCFE6FFDECFE6FFDDCFE6FFA10EE66E33
:10190000000EE66E5CEC0FF0006E050EE15E00501E
:10191000020EDB50DE26000EDD22020EDBCFE6FFDC
:10192000DECFE6FFDDCFE6FFA50EE66E000EE66E2B
:101930005CEC0FF0006E050EE15E0050020EDB5015
:10194000DE26000EDD22030EE15C02E2E16AE552D2
:10195000E16EE552E7CFD9FF1200D9CFE6FFE1CF24
:10196000D9FF030EE126B40EDE6EDD6A020EF36EC1
:10197000F3CFDBFFDBCFE6FFDECFE6FFDDCFE6FF19
:10198000A30EE66E000EE66EE7EC0EF0006E050E9E
:10199000E15E0050020EDB50DE26000EDD22020E5C
:1019A000DBCFE6FFDECFE6FFDDCFE6FFA10EE66E82
:1019B000000EE66EE7EC0EF0006E050EE15E0050E4
:1019C000020EDB50DE26000EDD22020EDBCFE6FF2C
:1019D000DECFE6FFDDCFE6FFA50EE66E000EE66E7B
:1019E000E7EC0EF0006E050EE15E0050020EDB50DB
:1019F000DE26000EDD22030EE15C02E2E16AE55222
:0A1A0000E16EE552E7CFD9FF1200B6
:061A0A00D9CFE6FFE1CF99
:101A1000D9FFFD0EDB500001B05D0001006EFE0E2F
:101A2000DB500001B1590001016E00C0F3FF01C09D
:101A3000F4FF00D0E552E7CFD9FF1200D9CFE6FF7F
:101A4000E1CFD9FFFD0EDB500001B05D0001006E5B
:101A5000FE0EDB500001B1590001016EFB0EDBCF21
:101A600002F0FC0EDBCF03F00050025C0150035883
:101A700002E3000E01D0010E00D0E552E7CFD9FFFE
:101A80001200D9CFE6FFE1CFD9FF020EE126B0C0A8
:101A9000DEFFB1C0DDFF0001DE50B05D006EDD5045
:101AA000B159016EFD0EDBCF02F0FE0EDBCF03F06D
:101AB0000250005C0350015801E2EDD7020EE15CD8
:101AC00002E2E16AE552E16EE552E7CFD9FF12008A
:101AD00046EC1CF0F3CF00F0F4CF01F0026A170ED1
:101AE000005EFC0E015A000E025A00C0F3FF01C056
:101AF000F4FF00D01200D9CFE6FFE1CFD9FF020EEC
:101B0000E126E6DFF3CFDEFFF4CFDDFFDECF02F02C
:101B1000DDCF03F002C0E6FF03C0E6FFD9DFE552E8
:101B2000E7CF03F0E552E7CF02F00250F35C006E1E
:101B30000350F458016EFD0EDBCF04F0FE0EDBCF38
:101B400005F00450005C0550015801E2DFD7020E99
:101B5000E15C02E2E16AE552E16EE552E7CFD9FFCE
:101B60001200D9CFE6FFE1CFD9FF040EE126D00E57
:101B7000006E1A0E016E026A036AB0C004F0B1C0B2
:101B800005F0E80E0502F3CF05F0030E0402F35052
:101B90000526E80E0402F3CF04F0F4500526066A89
:101BA000076A045000260550012206500222075001
:101BB000032200C0DFFF010E01C0DBFF020E02C0E6
:101BC000DBFF030E03C0DBFFDECF2EF0DECF2FF0F6
:101BD000DECF30F0DDCF31F0DD52DD52040EE15CBE
:101BE00003E200D0E16AE552E16EE552E7CFD9FFAA
:101BF0001200D9CFE6FFE1CFD9FFFB0EDBCF04F017
:101C0000FC0EDBCF05F0FD0EDBCF06F0FE0EDBCFCA
:101C100007F004C0E6FF05C0E6FF06C0E6FF07C008
:101C2000E6FF9FDFE552E7CF07F0E552E7CF06F08A
:101C3000E552E7CF05F0E552E7CF04F0000104508C
:101C40002E5C006E05502F58016E06503058026E03
:101C500007503158036E00C02EF001C02FF002C0B3
:101C600030F003C031F000D0E552E7CFD9FF1200C9
:101C7000D9CFE6FFE1CFD9FF060EE126640E006E54
:101C8000016AFD0EDBCF30F0FE0EDBCF31F000C07D
:101C900035F001C036F0FEEC1CF0020E30C0DBFF68
:101CA000030E31C0DBFFFD0EDBCF00F0FE0EDBCFFD
:101CB00001F0640E356E366A00C030F001C031F0BC
:101CC000FEEC1CF02CC000F02DC001F00A0E356EA9
:101CD000366A00C030F001C031F0FEEC1CF030C0BC
:101CE00000F031C001F0040E00C0DBFFFD0EDBCFC1
:101CF00000F0FE0EDBCF01F00A0E356E366A00C032
:101D000030F001C031F0FEEC1CF02CC000F02DC012
:101D100001F0050E00C0DBFFDE6ADD6ADECF00F0F9
:101D2000DDCF01F0020EDBCF02F0030EDBCF03F0BC
:101D30000250005C035001580AE2500EE66EB9EC06
:101D40001CF0E552DF2A010E01E3DB2AE7D7040E7F
:101D5000DB5008E0040EDB50080DF350E66EB9ECE2
:101D60001CF0E552050EDB5008E0050EDB50080DB7
:101D7000F350E66E14EC1DF0E552060EE15C02E253
:101D8000E16AE552E16EE552E7CFD9FF1200D9CF03
:101D9000E6FFE1CFD9FFF30EE66E7F0EE66EE66852
:101DA000DBEC1AF0E552E552E552FE0EDBCFE6FF22
:101DB000E7EC1CF0E55207EC00F0000901E0FBD76E
:101DC0004DEC1DF000D0E552E7CFD9FF1200D9CF7E
:101DD000E6FFE1CFD9FF030EE126FB0EDBCF02F0D9
:101DE000FC0EDBCF03F0DE500224006EDD5003203A
:101DF000016EFF0ED8800054030E015402E2000E63
:101E00004FD0DE6ADD6ADECF00F0DDCF01F0FA0EE2
:101E1000DB50026E036A0250005C035001583EE240
:101E2000010EE66EE66AFD0EDBCF02F0FE0EDBCFA2
:101E300003F0DE500224006EDD500320016E00C06E
:101E4000E6FF01C0E6FFD950020FE66E000EDA2071
:101E5000E66E0BEC1BF0046E060EE15E04505DECCA
:101E60001DF0020EDBCFE6FFFB0EDBCF02F0FC0E17
:101E7000DBCF03F0DE500224006EDD500320016E44
:101E800000C0E6FF01C0E6FFB4EC1BF0E552E552EE
:101E9000E552DF2A010E01E3DB2AB5D7010E00D09F
:101EA000006E030EE15C02E2E16AE552E16E005071
:101EB000E552E7CFD9FF1200D9CFE6FFE1CFD9FF36
:101EC000030EE126FB0EDBCF02F0FC0EDBCF03F0AE
:101ED000DE500224006EDD500320016EFF0ED8801C
:101EE0000054030E015402E2000E4DD0DE6ADD6A9A
:101EF000DECF00F0DDCF01F0FA0EDB50026E036A98
:101F00000250005C035001583CE2FB0EDBCF02F0B4
:101F1000FC0EDBCF03F0DE500224006EDD50032008
:101F2000016E00C0E6FF01C0E6FF24EC1CF0E552A4
:101F3000E552E76E020EE7CFDBFF010EE66EE66AC2
:101F4000D950020FE66E000EDA20E66EFD0EDBCFF2
:101F500002F0FE0EDBCF03F0DE500224006EDD50F7
:101F60000320016E00C0E6FF01C0E6FF0BEC1BF092
:101F7000046E060EE15E0450DF2A010E01E3DB2A47
:101F8000B7D7010E00D0006E030EE15C02E2E16AF9
:0E1F9000E552E16E0050E552E7CFD9FF120096
:021F9E00299E7A
:101FA00008D0299E31AE05D0306C311EE86A31224E
:101FB000298E31C02BF030C02AF03B6A3A6A8E0E6F
:101FC0002C6E2D6A18EF12F0377E296A54EC12F04D
:101FD0006CEC12F029B6FCEF11F029A20AD029AA64
:101FE00003D029BEFCEF11F029A408EF12F005EF91
:101FF00012F029AA05D029AC08EF12F005EF12F073
:1020000029A00AD029A808D029BE04D029A402D02A
:1020100011EF12F015EF12F03A6A2D6A3750325C68
:10202000396E10E32FC03BF030C02AF031C02BF0E6
:1020300032C038F034C02FF035C030F036C031F047
:10204000293A09D034C03BF035C02AF036C02BF015
:1020500037C038F0396C299E29BC298E38C02CF045
:1020600029B044EF12F01A0E396044EF12F02C6AD6
:10207000326A29A408D02F6C301E311E321EE86A45
:1020800030223122322229AC08D03B6C2A1E2B1E72
:102090002C1EE86A2A222B222C222E6A395207E0B3
:1020A0003234313230322F322E32392EF9D72F508E
:1020B0003B2630502A2231502B2232502C222EC067
:1020C0003AF0299E2CAE0BD03A6C3B1E2A1E2B1EDA
:1020D0002C1EE86A3B222A222B222C22298E2CA09D
:1020E00006D0D8802B322A323B323A32382A38C0D6
:1020F0002CF018EF12F0296A54EC12F06CEC12F08C
:1021000029B6FCEF11F029A205D029BAFCEF11F095
:1021100003EF12F029BA0FEF12F029A005D029B869
:10212000FCEF11F00FEF12F029B803EF12F02D6A57
:102130007F0E32242C6EE86A2D2237502C5EE86A1E
:102140002D5A1A0E386E326A3A6A3B6A2A6A2B6A2C
:1021500034502F5E3550305A3650315A000E325AB4
:1021600009E734502F263550302236503122000EE8
:10217000322201D03A8AD8902F3630363136323674
:10218000D8903A363B362A362B36382EE1D73150A6
:1021900030102F10D8A43A8A18EF12F0296A54ECA4
:1021A00012F06CEC12F029B6FCEF11F029A205D068
:1021B00029B8FCEF11F003EF12F029AA05D029B0DD
:1021C000FCEF11F003EF12F029B002D029A802D0E1
:1021D0000FEF12F02D6A375032242C6EE86A2D2250
:1021E0007E0E2C5EE86A2D5A3A6A3B6A2A6A2B6A8E
:1021F00036503102F4CF2BF0F3CF2AF035503102B4
:10220000F3503B26F4502A22000E2B223650300287
:10221000F3503B26F4502A22000E2B223450310278
:10222000F3503A26F4503B22000E2A222B2235503E
:102230003002F3503A26F4503B22000E2A222B2281
:1022400036502F02F3503A26F4503B22000E2A2239
:102250002B2234503002F4503A26000E3B222A2220
:102260002B2235502F02F4503A26000E3B222A2210
:102270002B2218EF12F0286A36AE44EF11F0356CBD
:10228000361EE86A3622281E31AE4CEF11F0306C53
:10229000311EE86A3122281EFEEC1CF031BE5CEFD4
:1022A00011F028AE000C306C311EE86A31222C6C23
:1022B0002D1EE86A2D22000C28BE53EF11F029884C
:1022C000FF0C286AE86A36AE6EEF11F0336C341EEC
:1022D000351E361E342235223622281E31AE79EFC5
:1022E00011F02E6C2F1E301E311E2F223022312273
:1022F000281E00EC1CF031BE90EF11F028AE000C4F
:102300002E6C2F1E301E311EE86A2F223022312201
:102310002A6C2B1E2C1E2D1E2B222C222D22000C53
:1023200028BE80EF11F02988FF0CA7EC11F029B628
:10233000000C29B0000C29B4000C010CA7EC11F022
:1023400029B6000C29B0000C29A4000C010C296A44
:1023500054EC12F06CEC12F029B6120029AE08D041
:1023600029A004D029A802D02980120029901200A7
:102370003750325C0BE13650315C08E13550305C4F
:1023800005E134502F5C02E129801200D8A002D070
:10239000298E10D0325037C032F0376E315036C0EF
:1023A00031F0366E305035C030F0356E2F5034C0BD
:1023B0002FF0346E3750325C10E0FF0F09E02990A7
:1023C00029B403D029AE2984120029AE2994120021
:1023D000372AD89036323532343234502F5E355069
:1023E000305A3650315A31BEEAD7D8902F3630366F
:1023F0003136322EF8D7C8D77F0E326EFF0E316ECF
:10240000306E2F6E12007F0E29BEFF0E326E02D08C
:102410007F0E326E800E316E306A2F6AF3D729AE8E
:1024200004D0800E326E316AF7D7326A316AF4D73F
:102430002B502A103B103A10F8E02DBEF0D72BBEDF
:102440000CD02C502D10EBE0D8903A363B362A3683
:102450002B362C06D8A02D06F2D72D50D4E12C28EF
:10246000D2E03AAE11D07F0E3A1402E13BA00CD07C
:102470003B2AE86A2A222B2207E3D8802B322A3211
:102480003B322C2A2C28BFE02C50C9E03BC02FF057
:102490002AC030F02B34316E2C30326E3132329E05
:1024A00029BE328E02EF12F03136323602E3298431
:1024B000297E06E12980326A316A306A2F6A120069
:1024C000322803E0D88031321200D890313202E154
:1024D00029821200298612003636373602E3298C0B
:1024E000297E06E12988376A366A356A346A12001D
:1024F000372803E0D88036321200D8903632EAE12D
:04250000298A120012
:0C250400D9CFE6FFE1CFD9FF006A016AE1
:10251000026A036A00C02EF001C02FF002C030F042
:1025200003C031F000D0E552E7CFD9FF1200D9CF78
:10253000E6FFE1CFD9FF080EE126FB0EDBCF00F06E
:10254000FC0EDBCF01F0FD0EDBCF02F0FE0EDBCF89
:1025500003F0F70EDBCF04F0F80EDBCF05F0F90E39
:10256000DBCF06F0FA0EDBCF07F004C034F005C075
:1025700035F006C036F007C037F000C02FF001C0BC
:1025800030F002C031F003C032F0E4EC0FF02FC0A5
:10259000DEFF30C0DEFF31C0DEFF32C0DDFFDD52C6
:1025A000DD52D9CFE9FFDACFEAFFEECF04F0EECF6C
:1025B00005F0EECF06F0EFCF07F060C034F061C059
:1025C00035F062C036F063C037F004C02FF005C0AC
:1025D00030F006C031F007C032F0CEEC10F02FC062
:1025E00000F030C001F031C002F032C003F0F30E51
:1025F000DBCF0CF0F40EDBCF0DF0F50EDBCF0EF0E1
:10260000F60EDBCF0FF064C034F065C035F066C065
:1026100036F067C037F00CC02FF00DC030F00EC0A0
:1026200031F00FC032F0CEEC10F02FC008F030C007
:1026300009F031C00AF032C00BF008C034F009C014
:1026400035F00AC036F00BC037F000C02FF001C0E3
:1026500030F002C031F003C032F0E4EC0FF0040EB1
:102660002FC0DBFF050E30C0DBFF060E31C0DBFFE5
:10267000070E32C0DBFF040EDBCF00F0050EDBCF10
:1026800001F0060EDBCF02F0070EDBCF03F000C037
:102690002EF001C02FF002C030F003C031F0080E60
:1026A000E15C03E200D0E16AE552E16EE552E7CF7A
:1026B000D9FF1200D9CFE6FFE1CFD9FF180EE126EE
:1026C000F70EDBCF00F0F80EDBCF01F0F90EDBCF19
:1026D00002F0FA0EDBCF03F0F30EDBCF04F0F40EC2
:1026E000DBCF05F0F50EDBCF06F0F60EDBCF07F003
:1026F00004C034F005C035F006C036F007C037F02E
:1027000000C02FF001C030F002C031F003C032F041
:10271000E4EC0FF02FC0DEFF30C0DEFF31C0DEFF83
:1027200032C0DDFFDD52DD52EF0EDBCF00F0F00EE8
:10273000DBCF01F0F10EDBCF02F0F20EDBCF03F0C6
:10274000C30E346EB80E356E320E366E3E0E376ED8
:1027500000C02FF001C030F002C031F003C032F0F1
:10276000CEEC10F0040E2FC0DBFF050E30C0DBFFF7
:10277000060E31C0DBFF070E32C0DBFFD9CFE9FF09
:10278000DACFEAFFEECF04F0EECF05F0EECF06F0A1
:10279000EFCF07F0040EDBCF08F0050EDBCF09F01A
:1027A000060EDBCF0AF0070EDBCF0BF008C034F0CB
:1027B00009C035F00AC036F00BC037F004C02FF066
:1027C00005C030F006C031F007C032F0E4EC0FF085
:1027D0002FC000F030C001F031C002F032C003F071
:1027E00068C034F069C035F06AC036F06BC037F0AD
:1027F00000C02FF001C030F002C031F003C032F051
:10280000CEEC10F0080E2FC0DBFF090E30C0DBFF4E
:102810000A0E31C0DBFF0B0E32C0DBFFFB0EDBCF3D
:1028200004F0FC0EDBCF05F0FD0EDBCF06F0FE0E54
:10283000DBCF07F0346A356A366A400E376E04C063
:102840002FF005C030F006C031F007C032F07BEC4D
:1028500010F02FC000F030C001F031C002F032C0E3
:1028600003F0080EDBCF08F0090EDBCF09F00A0EEB
:10287000DBCF0AF00B0EDBCF0BF008C034F009C041
:1028800035F00AC036F00BC037F000C02FF001C0A1
:1028900030F002C031F003C032F0E4EC0FF0100E63
:1028A0002FC0DBFF110E30C0DBFF120E31C0DBFF8B
:1028B000130E32C0DBFFFB0EDBCF04F0FC0EDBCFD0
:1028C00005F0FD0EDBCF06F0FE0EDBCF07F0346A1D
:1028D000356A366A400E376E04C02FF005C030F0FE
:1028E00006C031F007C032F07BEC10F02FC000F0D2
:1028F00030C001F031C002F032C003F0080EDBCF6F
:1029000008F0090EDBCF09F00A0EDBCF0AF00B0E40
:10291000DBCF0BF008C034F009C035F00AC036F048
:102920000BC037F000C02FF001C030F002C031F012
:1029300003C032F0E5EC0FF0140E2FC0DBFF150ED4
:1029400030C0DBFF160E31C0DBFF170E32C0DBFFDD
:10295000D950FB0FE96EFF0EDA20EA6E0C0EEECFB7
:10296000DBFF0D0EEECFDBFF0E0EEECFDBFF0F0E0B
:10297000EECFDBFF180EE15C02E2E16AE552E16EA8
:08298000E552E7CFD9FF120078
:08298800D9CFE6FFE1CFD9FF32
:10299000040EE126A5C030F0A6C031F0D1EC0FF056
:1029A0002FC004F030C005F031C006F032C007F08F
:1029B000FE0EDBCF0EF00F6A0EBE0F680001A151B4
:1029C0000E5C0C6EA2510F580D6E0CC030F00DC095
:1029D00031F0D1EC0FF02FC008F030C009F031C059
:1029E0000AF032C00BF008C034F009C035F00AC05C
:1029F00036F00BC037F004C02FF005C030F006C031
:102A000031F007C032F0CEEC10F02FC000F030C033
:102A100001F031C002F032C003F0A3C030F0A4C016
:102A200031F0D1EC0FF02FC010F030C011F031C0F8
:102A300012F032C013F010C034F011C035F012C0E3
:102A400036F013C037F000C02FF001C030F002C0E4
:102A500031F003C032F07BEC10F02FC0DEFF30C04D
:102A6000DEFF31C0DEFF32C0DDFFDD52DD52DECFE2
:102A70002EF0DECF2FF0DECF30F0DDCF31F0DD52A3
:102A8000DD52040EE15C03E200D0E16AE552E16E42
:102A9000E552E7CFD9FF1200010E00D01200D9CFC6
:102AA000E6FFE1CFD9FFE552E7CFD9FF1200D9CF3A
:102AB000E6FFE1CFD9FF040EE1260001A16BA26B76
:102AC000A36BA46B140EA56FA66B8B8A89988A9A48
:102AD0008B90899CD00EE66E070EE66E41EC0DF0F1
:102AE000E552E5528988DC0EE66E050EE66E41EC95
:102AF0000DF0E552E552898CDE6ADE6ADE6ADD6A37
:102B0000DD52DD52D9CFE9FFDACFEAFFD890030ECC
:102B1000EB50000A08E6140EEE5C000EEE58000EB4
:102B2000EE58000EEE581BE2970EE66EC7EC0EF064
:102B3000E552F3500001A127F450A223320EE66EB5
:102B4000E66A41EC0DF0E552E552D9CFE9FFDACF64
:102B5000EAFFEE2A000EEE22EE22EE22D3D7140E6A
:102B6000356E366AA1C030F0A2C031F03BEC11F0F6
:102B700030C0A1F031C0A2F0899C89988B80DC0E16
:102B8000E66E050EE66E41EC0DF0E552E552898CDD
:102B9000DE6ADE6ADE6ADD6ADD52DD52D9CFE9FF28
:102BA000DACFEAFFD890030EEB50000A08E6140EC5
:102BB000EE5C000EEE58000EEE58000EEE581BE2D2
:102BC000970EE66EC7EC0EF0E552F3500001A32716
:102BD000F450A423320EE66EE66A41EC0DF0E552A5
:102BE000E552D9CFE9FFDACFEAFFEE2A000EEE2256
:102BF000EE22EE22D3D7140E356E366AA3C030F023
:102C0000A4C031F03BEC11F030C0A3F031C0A4F00F
:102C10000001A251A419E8AE02D0A43504D0A351FA
:102C2000A15DA451A25905E2A151A35FA251A45BE9
:102C300006D0A351A15DA36FA451A259A46F8988A6
:102C4000010EE66E42EC1DF0E5528B8A010EE66E37
:102C500042EC1DF0E5528A8A8B80899C82B414D0A4
:102C600082A611D089988B9A8A9A8B90898CF40EBF
:102C7000E66E010EE66E41EC0DF0E552E552899CE0
:102C8000F36AF46A15D0EAD7ADEC0CF0898CF40E37
:102C9000E66E010EE66E41EC0DF0E552E5528998C4
:102CA0008B9A8A9A8B90899C010EF36EF46A00D0FD
:102CB000040EE15C02E2E16AE552E16EE552E7CF23
:042CC000D9FF120026
:0C2CC400D9CFE6FFE1CFD9FF020EE126D8
:102CD000ACA2FED7720EE66ED0EC1CF0E552720E7E
:102CE000DF6EACA2FED7FE0EDBCFE6FFD0EC1CF011
:102CF000E552FE0EDB50DF26010EDB6AFB0EDB50D9
:102D0000F36E010EDBCFF4FFF350F45C26E2ACA2CD
:102D1000FED7010EDB50E76EFC0EDBCFE9FFFD0EA8
:102D2000DBCFEAFFE750E926000EEA22EF50E66E1D
:102D3000D0EC1CF0E552010EDB50E76EFC0EDBCF51
:102D4000E9FFFD0EDBCFEAFFE750E926000EEA229D
:102D5000EF50DF26010EDB2AD1D7ACA2FED7DFCFA2
:102D6000E6FFD0EC1CF0E552020EE15C02E2E16A03
:102D7000E552E16EE552E7CFD9FF1200D9CFE6FF69
:102D8000E1CFD9FFE652DF6AABA204D00001A76B06
:102D9000A86BA96BAB920001A751EA6A8D0FE96E8F
:102DA000000EEA22FE0EDBCFEFFFA7510BE1FE0E75
:102DB000DB50720802E1000E01D0010E030DF3504A
:102DC000A927CCD0A70501E0B2D0FE0EDBCFAAF038
:102DD000AA519F0A01E1A6D0820A01E1A0D0810A8E
:102DE00001E19AD0800A01E194D0870A01E18ED0F6
:102DF000810A01E188D0030A01E183D0830A01E15D
:102E00007ED0030A01E179D0810A74E00F0A6FE0F5
:102E1000810A6AE0030A65E0800A60E0810A5BE0FB
:102E2000800A56E00A0A51E00D0A4CE0810A47E0A8
:102E3000800A42E0830A3DE0800A38E0810A33E0FC
:102E4000800A2EE09F0A29E0800A24E0010A1FE0A0
:102E5000030A1AE0010A15E0070A10E0010A0BE074
:102E6000810A06E0010A01E060D0020EAB6F5ED07D
:102E7000020EAB6F5BD0020EAB6F58D0020EAB6F81
:102E800055D0010EAB6F52D0040EAB6F4FD0040E75
:102E9000AB6F4CD0040EAB6F49D0040EAB6F46D075
:102EA000040EAB6F43D0040EAB6F40D0040EAB6F7B
:102EB0003DD0040EAB6F3AD0040EAB6F37D0040E8A
:102EC000AB6F34D0040EAB6F31D0040EAB6F2ED08D
:102ED000040EAB6F2BD0040EAB6F28D0040EAB6F7B
:102EE00025D0040EAB6F22D0040EAB6F1FD0040EA2
:102EF000AB6F1CD0040EAB6F19D0AB6B17D0AB6BA4
:102F000015D0AB6B13D0010EAB6F10D0020EAB6FB0
:102F10000DD0020EAB6F0AD0020EAB6F07D0010EC0
:102F2000AB6F04D0010EAB6F01D0A92B17D0AB054E
:102F3000A75D14E1FE0EDB50A85D02E1000E01D09A
:102F4000010EE824A927A95109E1AA519A0A01E032
:102F500003D090C08CF000D0010EDF6EDF5002E194
:102F6000A95104E0A76BA86BA96B04D0FE0EDB503F
:0E2F7000A827A72BE552E552E7CFD9FF1200A4
:022F7E00DACFA8
:102F8000E4FFE2CFDAFFE9CFE4FFEACFE4FFF6CFD8
:102F9000E4FFF7CFE4FFF5CFE4FFF3CFE4FFF4CF96
:102FA000E4FFFACFE4FF00EE28F0140EE80403E398
:102FB000EECFE4FFFBD700EE00F0280EE80403E3B9
:102FC000EECFE4FFFBD7E652A1A20DD0170EE66EBE
:102FD000FC0EE66E81EC1CF0E552E5520001B02BD0
:102FE000000EB123A192F2B2F292E55200EE27F068
:102FF000280EE80403E3E5CFEDFFFBD700EE3BF03E
:10300000140EE80403E3E5CFEDFFFBD7E5CFFAFFAD
:10301000E5CFF4FFE5CFF3FFE5CFF5FFE5CFF7FF11
:10302000E5CFF6FFE5CFEAFFE5CFE9FFE5CFDAFF31
:103030001100DACFE4FFE2CFDAFFE9CFE4FFEACF15
:10304000E4FFF6CFE4FFF7CFE4FFF5CFE4FFF3CFE3
:10305000E4FFF4CFE4FFFACFE4FF00EE28F0140E13
:10306000E80403E3EECFE4FFFBD700EE00F0280E08
:10307000E80403E3EECFE4FFFBD7E652D9CFE6FF47
:10308000E1CFD9FFE652F0A003D08AEC18F0F0901F
:10309000F0A203D08BEC18F0F0929EAA08D0AE50AC
:1030A000DF6EDFCFE6FFBEEC16F0E5528C76A4AA09
:1030B00003D07450DF6E8C747EB07E90F2A402D088
:1030C0008B72F294E552E552E7CFD9FFE55200EE5C
:1030D00027F0280EE80403E3E5CFEDFFFBD700EE71
:1030E0003BF0140EE80403E3E5CFEDFFFBD7E5CF9B
:1030F000FAFFE5CFF4FFE5CFF3FFE5CFF5FFE5CF2E
:10310000F7FFE5CFF6FFE5CFEAFFE5CFE9FFE5CF33
:04311000DAFF1100D1
:0C311400120012001200D9CFE6FFE1CF3C
:10312000D9FF200EE126100EDB6A110EDB6A400E7D
:10313000F36E120EF3CFDBFF410EF36E130EF3CFDF
:10314000DBFFD9CFE9FFDACFEAFFEECF00F0EECF19
:1031500001F0EECF02F0EECF03F0EECF04F0EECFB1
:1031600005F0EECF06F0EECF07F0EECF08F0EECF91
:1031700009F0EECF0AF0EECF0BF0EECF0CF0EECF71
:103180000DF0EECF0EF0EECF0FF0EECF10F0EECF51
:1031900011F0EECF12F0EECF13F0EECF14F0EECF31
:1031A00015F0EECF16F0EECF17F0EECF18F0EECF11
:1031B00019F0EECF1AF0EECF1BF0EECF1CF0EECFF1
:1031C0001DF0EECF1EF0EFCF1FF0D9CFE9FFDACF21
:1031D000EAFFED50ED501FC0EDFF1EC0EDFF1DC01A
:1031E000EDFF1CC0EDFF1BC0EDFF1AC0EDFF19C0C5
:1031F000EDFF18C0EDFF17C0EDFF16C0EDFF15C0C5
:10320000EDFF14C0EDFF13C0EDFF12C0EDFF11C0C4
:10321000EDFF10C0EDFF0FC0EDFF0EC0EDFF0DC0C4
:10322000EDFF0CC0EDFF0BC0EDFF0AC0EDFF09C0C4
:10323000EDFF08C0EDFF07C0EDFF06C0EDFF05C0C4
:10324000EDFF04C0EDFF03C0EDFF02C0EDFF01C0C4
:10325000EDFF00C0EFFF200EE15C03E200D0E16A69
:0C326000E552E16EE552E7CFD9FF120005
:04326C00D388D38AA6
:10327000D38CD392D3909B8CD3A4FED7928092828E
:10328000928492869298928A929C929E9380938244
:10329000938493869388939A938C938E949094922C
:1032A000948494869498949A949C948E9580958214
:1032B000959495969598958A959C958E96809682EC
:1032C0009684806A816A826A836A846A0F01386B95
:1032D000396B3A6B3B6B3C6B38813883388B3C8164
:1032E0003C833C85E66A930EE66E36EC1BF0E552B5
:1032F000E552170EE66EFC0EE66E81EC1CF0E55210
:10330000E552A282940EE66E9DEC1CF0E552F1941B
:10331000870EE66E65EC1CF0E5527F90FD0EE66EC2
:10332000DBEC1BF0E552BD0EE66E8AEC1BF0E552BD
:10333000BD0EE66E60EC1BF0E552190EE66EE66A15
:103340007C0EE66EA2EC1AF0E552E552E5529F9A29
:10335000190EE66EE66A7C0EE66E66EC1AF0E55231
:10336000E552E552A59AF292F294F090F0929E9A6C
:10337000A192A49A7E90D08EF28CF28E00D0120090
:10338000D9CFE6FFE1CFD9FFE652010EDF6E36EC72
:1033900019F0F6EC09F021EC0BF055EC0CF0E80E0E
:1033A000E66E030EE66E41EC0DF0E552E5526BEC75
:1033B00008F001081FE1010EE66E92EC05F0E552FF
:1033C000010EDF6EDF5016E0E66A92EC05F0E55282
:1033D000000901E1DF6A010EE66EB00EE66E000E36
:1033E000E66E9B0EE66E62EC16F0E552E552E55293
:1033F000E552E8D782A602D022EC00F082A402D0E7
:1034000057EC15F0010EE66EB00EE66E000EE66E9D
:103410009B0EE66E62EC16F0E552E552E552E5527F
:0E342000C6D7FFD7E552E552E7CFD9FF12001D
:02342E001E0E70
:10343000F66E000EF76E000EF86E00010900F550F2
:103440009C6F0900F5509D6F03E19C6701D03DD052
:103450000900F550976F0900F550986F0900F55075
:10346000996F09000900F550E96E0900F550EA6E00
:10347000090009000900F5509A6F0900F5509B6F8B
:1034800009000900F6CF9EF0F7CF9FF0F8CFA0F02B
:1034900097C0F6FF98C0F7FF99C0F8FF00019A5354
:1034A00002E19B5307E00900F550EE6E9A07F8E23F
:1034B0009B07F9D79EC0F6FF9FC0F7FFA0C0F8FF9B
:0C34C00000019C07000E9D5BBFD71200AE
:0434CC00D9CFE6FF6F
:1034D000DACFE6FFE1CFD9FFE2CFDAFF726A716A95
:1034E000FD0EDBB07288DBA202D0728C718CDBB473
:1034F000728EDBA602D0718801D0718ADBA802D05F
:10350000728401D07294DBBA7186DBAC02D0A38ADC
:1035100001D0A39ADBAE02D0A38801D0A398FB0E02
:10352000DB50756EFC0EDBCF01F001C000F0016ACC
:103530000050766E728A718EE552E5CFDAFFE7CFE2
:04354000D9FF12009D
:0C354400D9CFE6FFDACFE6FFE1CFD9FFD8
:10355000E2CFDAFFAC6AAB6AFD0EDBB0AC88DBA26F
:1035600002D0AC8CAB8CDBB4AC8EDBA602D0AB88CB
:1035700001D0AB8ADBB8AC84DBBAAB86DBAC02D063
:103580009D8A01D09D9ADBAE02D09D8801D09D9886
:10359000FB0EDB50AF6EFC0EDBCF01F001C000F084
:1035A000016A0050B06EAC8AAB8EE552E5CFDAFF0F
:0635B000E7CFD9FF120075
:0A35B600D9CFE6FFDACFE6FFE1CF40
:1035C000D9FFE2CFDAFFC26AC16AC06AFC0EDB50E3
:1035D0007C0BC26EFB0EDB50C16EFD0EDB50040D8A
:1035E000F350380B016EFD0EDB380F0B070B006E2E
:1035F000FD0EDB50800B00100110C06EFC0EDBAE28
:1036000003D09E9C9D8CF28CC280E552E5CFDAFF00
:06361000E7CFD9FF120014
:0A361600D9CFE6FFDACFE6FFFA0E87
:10362000E3CFD9FFFB0EE3CFDAFFFC0EE3CFE9FFD8
:10363000FD0EE3CFEAFFE9CFF3FFEACFF4FFF80E88
:10364000E35003E1F90EE35008E0F80EE30602E26E
:10365000F90EE306DECFEEFFF2D7FF0EE3CFDAFF7F
:0C366000E552FF0EE3CFD9FFE552120047
:04366C00D9CFE6FFCD
:10367000DACFE6FFE1CFD9FFE2CFDAFFFC0EDB5075
:10368000F30BB46EFD0EDB507F0BE824B16EB36A12
:10369000B26AA192A492FD0EDBAE02D0A08201D04C
:1036A000A092FC0EDBA402D0A38201D0A392B4BEF0
:1036B000B486B180E552E5CFDAFFE7CFD9FF12003B
:1036C000D9CFE6FFDACFE6FFE1CFD9FFE2CFDAFFCD
:1036D000F092FD0EDBA202D0F18801D0F198DBA0C0
:1036E00002D0F18E01D0F19E9384DBAC02D0F18048
:1036F00001D0F190DBAC02D0F08E01D0F09EDBAEB9
:1037000002D0F08801D0F098E552E5CFDAFFE7CF9C
:04371000D9FF1200CB
:0C371400D9CFE6FFDACFE6FFE1CFD9FF06
:10372000E2CFDAFFF090FD0EDBA202D0F18A01D0E9
:10373000F19ADBA002D0F18E01D0F19EDBAC02D079
:10374000F18001D0F190DBAC02D0F08C01D0F09C84
:103750009382DBAE02D0F08601D0F096E552E5CF41
:08376000DAFFE7CFD9FF1200E8
:08376800D9CFE6FFDACFE6FF3E
:10377000E1CFD9FFE2CFDAFFFF0EE76EFC0EDBCF21
:1037800000F0E75000160050A96EFB0EDB50A86E4B
:10379000A69EA69CA684F29E550EA76EAA0EA76EA4
:1037A000A682A6B2FED7F28EA694E552E5CFDAFF46
:0637B000E7CFD9FF120073
:0A37B600D9CFE6FFDACFE6FFE1CF3E
:1037C000D9FFE2CFDAFFF292FD0EDBA202D0F18C3C
:1037D00001D0F19CDBA002D0F18E01D0F19E93804C
:1037E000DBAC02D0F18001D0F190DBAE02D0F288E8
:1037F00001D0F298E552E5CFDAFFE7CFD9FF12000A
:103800002D6A2C6A2B6A2A6A200EE76ED8902E3613
:103810002F36303631362A362B362C362D3633506D
:103820002A5C34502B5835502C5836502D5809E30B
:1038300033502A5E34502B5A35502C5A36502D5A5C
:083840002E2AE72EE4D7120046
:08384800D9CFE6FFDACFE6FF5D
:10385000E1CFD9FFE2CFDAFFFF0EE76EFC0EDBCF40
:1038600000F0FD0EDBCF01F0E7500016016A0050BA
:10387000A96EA69CA69EA68000000000A85000D0BD
:0C388000E552E5CFDAFFE7CFD9FF1200D8
:04388C00D9CFE6FFAB
:10389000DACFE6FFE1CFD9FFE2CFDAFFE652E65218
:1038A000B250DF6E010EB3CFDBFFDECF00F0DDCF15
:1038B00001F000C0F3FF01C0F4FFE552E552E5520C
:0A38C000E5CFDAFFE7CFD9FF1200D1
:0638CA00D9CFE6FFDACFC2
:1038D000E6FFE1CFD9FFE2CFDAFFFD0EDB50FB0BB5
:1038E0000F01516F536B7E90FD0EDBAE02D07D80D9
:1038F00001D07D905185E552E5CFDAFFE7CFD9FFC2
:023900001200B3
:0E390200D9CFE6FFDACFE6FFE1CFD9FFE2CF63
:10391000DAFFE652E652FC0EDBCFDEFFDBCFDDFF47
:10392000010EDB50B36EDF50B26EE552E552E55248
:0A393000E5CFDAFFE7CFD9FF120060
:06393A00D9CFE6FFDACF51
:10394000E6FFE1CFD9FFE2CFDAFFFD0EDB507F0BC0
:10395000D56ED76AD66AF294FD0EDBAE02D0F28A3B
:1039600001D0F29AD58EE552E5CFDAFFE7CFD9FF45
:02397000120043
:0E397200FF0EE3503D6EEF0E01D0F30EE76E38
:10398000E72EC0EF1CF00C0E3C6EE76AE72EC6EF88
:103990001CF03C2EC5EF1CF03D2EBEEF1CF01200BB
:1039A000D9CFE6FFDACFE6FFE1CFD9FFE2CFDAFFEA
:1039B000ACAC04D0AC900001B2B3AC80FD0EDB50D7
:0E39C000AD6EE552E5CFDAFFE7CFD9FF12007A
:0239CE00D9CF4F
:1039D000E6FFDACFE6FFE1CFD9FFE2CFDAFFFD0E57
:1039E000DB507C0B006E830EC2140010C26EC282CC
:0C39F000E552E5CFDAFFE7CFD9FF120067
:0439FC002D6A2C6A9A
:103A0000100EE76ED890303631362C362D363550C4
:103A10002C5C36502D5805E335502C5E36502D5A0F
:083A2000302AE72EF0D7120056
:083A2800FF0EE3503D6E480E55
:103A300001D04C0EE76EE72EFED7E76AE72EFED7E1
:083A40003D2EF7D70000120033
:083A4800000EF36E00EE00F029
:103A5000060E01D81200EA6002D0EE6AFCD7F350DD
:083A6000E9601200EE6AFCD7D8
:083A680015EE00F025EE00F060
:103A7000F86A299C17EC1AF003EC00F0C0EC19F07E
:043A8000FBD712005E
:0C3A8400FF0EE350E84E1200000000D0DE
:0A3A900000D000D0E82EFAD7120093
:063A9A00C450036E026A35
:0C3AA000C3500210F36E03C0F4FF1200CC
:043AAC002F722F6ED8
:033AB0002564008A
:073AB3000D0A2564644400C4
:063ABA00A6B2FED71200C7
:023AC000000004
:053AC2000000000000FF
:093AC700000000000000000000F6
:033AD000000000F3
:020000040030CA
:0100010038C6
:0100020018E5
:010003003CC0
:01000500BF3B
:0100060001F8
:01000B00E014
:00000001FF
