:020000040000FA
:06000000B5EF1EF0120036
:020006001200E6
:06000800E5EF19F0120003
:02000E00C250DE
:08001000020B01E0010E1200D9
:060018003FEF1AF0120098
:02001E000400DC
:10002000FB3D0000A200000002000000F63D0000C1
:100030009500000005000000F43D0000A000000055
:1000400002000000F23D00009E00000002000000DF
:1000500064EC05F0FB0EDBCFF3FFDB06F350000989
:100060000AE0B2EC05F0FA0E1DEC06F0F3E1011C1B
:10007000F1E1010E01D0000E93EF05F064EC05F004
:100080003B0EE12402E3E168E652E16E010EDB6A19
:10009000020EDB6AF90EDBCFF6FFFA0EDBCFF7FFBD
:1000A000FB0EDBCFF8FF0800F550DF6EDF5002E1FA
:1000B000B7EF04F0250EDF5C02E0AAEF04F0030EB8
:1000C000DB6A040EDB6A050EDB6A060EDB6A070ECE
:1000D000DB6ACCEC04F02D0EDF5C0CE02B0EDF5C59
:1000E00009E0200EDF5C06E0230EDF5C03E0300E4B
:1000F000DF5C1AE1DF50300A14E0130A0FE0030A54
:100100000AE00B0A05E0060AE4E1030EDB80E1D712
:10011000030EDB82DED7030EDB84DBD7030EDB8628
:10012000D8D7030EDB88D5D72A0EDF5C1BE1C8ECDD
:1001300004F016EC05F010E0030EDB803068316847
:10014000130EDBCF35F0140EDBCF36F0D0EC0EF013
:10015000040E2EC0DBFF03D0130EFFEC04F0CCEC3A
:1001600004F00BD0090EDB6A6DEC05F003E0E1EC66
:1001700005F0FAD7090EFFEC04F0030EDBB0DB98B4
:100180002E0EDF5C1BE1CCEC04F02A0EDF5C0BE1F1
:10019000C8EC04F016EC05F003E1130E51EC05F089
:1001A000CCEC04F00BD0090EDB6A6DEC05F003E03B
:1001B000E1EC05F0FAD7090E51EC05F0680EDF5CB2
:1001C00007E1CCEC04F0680EDF5C1DE1030E18D0F3
:1001D000740EDF5C17E07A0EDF5C14E0480EDF5C23
:1001E00006E0540EDF5C03E05A0EDF5C02E1020E13
:1001F00007D06C0EDF5C03E06A0EDF5C04E1010EE9
:10020000A4EC05F0C9DBDF506E0A01E17FD31E0AC2
:1002100001E192D1200A01E18FD13F0A01E149D1E8
:100220001A0A01E146D10D0A01E143D1200A01E198
:1002300040D13A0A01E13DD1200A01E13AD1260A32
:1002400001E135D10D0A01E132D11A0A01E1D9D01B
:10025000200A4AE0300A1FE0460A0EE0250A01E0C3
:1002600083D3D950F90FE96EFF0EDA20EA6E010E42
:10027000EE5E000EEE5AEE5AB2EC05F0250EE66E7A
:1002800095DB03E1011C01E169D3AEEC05F001E26D
:100290006BD3DB2A69D3080EDB6A040EDB5001083E
:1002A00006E2040EDB0476EC05F0DB508BDB080E77
:1002B000DB5009E0030EDB50010B05E172DB01E0CE
:1002C0004DD3080EDB6A64DBEFCFDFFF26EC06F0D0
:1002D00003E1011C01E142D3AEEC05F001E3DB2AAE
:1002E00060DB01E141D33AD3070EDB5002080FE196
:1002F000F2EC05F0030EB9EC05F00E0EEECFDBFFCD
:100300000F0EEECFDBFF100EEECFDBFF20D0F70E8F
:10031000DBCF03F0F80EDBCF04F0020E035E000E1D
:10032000045AF70E03C0DBFFF80E04C0DBFF03C066
:10033000E9FF04C0EAFFA9EC05F0026A0E0E00C056
:10034000DBFF0F0E01C0DBFF100E02C0DBFF0E0E45
:10035000DBCFE6FF0F0EDBCFE6FF100EDBCFE6FFB5
:100360009AEC1AF0E552E552E552130E2FC0DBFF6E
:10037000140E30C0DBFF060EDB5005E0130EEDEC73
:1003800005F001E26ADB11EC06F002E2130E37DB46
:10039000D4EC05F006E0040EEDEC05F002E2050EEB
:1003A0002EDB030EDBB005D0FCDA01E0D7D2080E5D
:1003B000DB6A090EDB6A0E0EDBCFF6FF0F0EDBCF1A
:1003C000F7FF100EDBCFF8FF0800F550DF6EDF50AF
:1003D00014E017EC06F011E226EC06F003E1011C34
:1003E00001E1BCD2BBDB01E3DB2A090EDB2AD950D9
:1003F0000E0FE96E000ECBDBE7D7D3DA01E1B4D202
:10040000ADD2C6DA110EEECFDBFF120EEDCFDBFF61
:10041000110EDBCFE6FF120EDBCFE6FF8CEC1AF0FD
:10042000E552E552130EF3CFDBFF140EF4CFDBFFE2
:10043000060EDB5004E0130ED0DB01E20EDB11EC04
:1004400006F002E2130EDBDAAFDB05E0040EC5DBDB
:1004500002E2050ED4DA030EDBB005D0A2DA01E029
:100460007DD2080EDB6A090EDB6A110EDBCFE9FFD5
:10047000120EDBCFEAFFEFCFDFFFDF5014E0D7DB58
:1004800012E2E4DB03E1011C01E168D267DB01E376
:10049000DB2A090EDB2A110EDB2ADBCFE9FF120E65
:1004A000E8E3DB2AE6D77DDA01E15ED257D2030E1C
:1004B000DB8E070EDB0410E195DB040E5ADB0A0E1F
:1004C000EECFDBFF0B0EEECFDBFF0C0EEECFDBFF34
:1004D0000D0EEECFDBFF6CD0070EDB5003082CE1D6
:1004E000030EDBAE0DD0B2DA020E76DAEFCF00F0FB
:1004F000016A026A036A00AE39D00168026835D029
:10050000F70EDBCF01F0F80EDBCF02F0020E015E3A
:10051000000E025AF70E01C0DBFFF80E02C0DBFF2F
:1005200001C0E9FF02C0EAFFEFCF00F00A0E00C0F1
:10053000DBFF0B0EDB6A38D0070EDB50020809E147
:10054000030EDBAE04D059DB02AE10D00ED055DB6B
:100550000DD0030EDBAE12D079DA020E3DDAF9DAF5
:10056000026A036A01AE02D002680368E2DA0C0E86
:1005700002C0DBFF0D0E03C0DBFF1AD0F70EDBCF8E
:1005800002F0F80EDBCF03F0020E025E000E035AFB
:10059000F70E02C0DBFFF80E03C0DBFF02C0E9FF6D
:1005A00003C0EAFFD6DAC5DA0C0EDB6A0D0EDB6A91
:1005B000060EDB5005E1010EF36E050EF3CFDBFFF7
:1005C000150EDB6A160EDB6AD950370F006E000E6F
:1005D000DA20016E390E00C0DBFF3A0E01C0DBFFEE
:1005E000380EDB6A080EDB6A0A0EAEDADF50780AD4
:1005F00012E0200A10E0280A0CE0200A0AE03F0A74
:1006000006E00D0A02E0200A08E1020E05D0080EFD
:1006100003D0080EDF26100E97DA030EDBBE02D0E1
:10062000DB92DB94DB50800B24E08ADAD890030E57
:10063000EB50000A08E6000EEE5C000EEE58000ECD
:10064000EE58000EEE5815E213DA33683468356858
:10065000366811EC1CF00A0E2AC0DBFF0B0E2BC013
:10066000DBFF0C0E2CC0DBFF0D0E2DC0DBFF2D0EB3
:1006700008D0030EDBA202D02B0E03D0DBA408D0DF
:10068000200EF36E170EF3CFDBFF150EDB2A02D020
:10069000170EDB6A050EDB5003E1B7D901E189D003
:1006A000CA0E006E3D0E016E000E026E070EDBCF0D
:1006B00003F0046A056A066A03C033F004C034F02C
:1006C00005C035F006C036F0D3D96FEC1DF00050F0
:1006D0002A24F36E01502B20F46E02502C20F86E69
:1006E000F4CFF7FFF3CFF6FF0800090EF5CFDBFFDD
:1006F000580EDF5C0FE1610EF36E090E7BD90AE341
:10070000200E006E090EDBCFE7FF0050E75E090EFA
:10071000E7CFDBFF070EDBCF00F0016A026A036A56
:100720000FDA00C033F001C034F002C035F003C06E
:1007300036F0EECF2EF0EECF2FF0EECF30F0EFCF41
:1007400031F06FEC1DF031C0EDFF30C0EDFF2FC078
:10075000EDFF2EC0EFFF390EDBCFE9FFDB063A0ECF
:10076000DBCFEAFF01E2DB06090EDBCFEFFF150E60
:10077000DB2A4BD995E1030EDBA61DD06F0EDF5CA3
:1007800006E1C1D918E3150EDB285BDA14D0780E28
:10079000DF5C09E0580EDF5C06E0620EDF5C03E020
:1007A000420EDF5C08E1020EF36E160EF3CFDBFFA4
:1007B00002D0150EDB6A030EDB50100B0EE0040EA8
:1007C000DBCF00F0050EDB50D880005406E2060EA9
:1007D000DB5003E1040EDB5034DA95D90AE2050E52
:1007E000DBCFE7FF150EDB50E75E050EE7CFDBFF43
:1007F00002D0050EDB6A040EDBCF00F0160E45D9E1
:10080000D880005414E2160EDBCFE6FF150EDBCFC6
:10081000E6FF040EDBCFE6FF050EDB50E552E75C9A
:10082000E552D880E754E552D880E7545FD9030EEB
:10083000DB50010B0BE1080EDB5008E0B2D801E001
:100840008DD0080EDB50BED8080EDB6A170EDB50C9
:1008500007E088D9170EF1D903E1011C01E17ED030
:10086000160EDB5016E07ED9300EE66E9FD802E100
:10087000011C74E077D9DFCFE6FF5AEC1BF0E5529C
:10088000E552E552F4CF01F00001F31C02E1011C36
:1008900065E0050EDBCF00F0160EDB50D88000546B
:1008A00009E2050EDBCFE7FF160EDB50E75E050E13
:1008B000E7CFDBFF300EE66E050ECBD94FE1390EE8
:1008C000DB2ADBCFE9FF3A0E01E3DB2ADBCFEAFFCD
:1008D000090EEFCFDBFFDB500EE044D9090EADD996
:1008E00002E1011C3BE0390EDB2ADBCFE9FF3A0EC7
:1008F000EDE3DB2AEBD755D831E1160EDBCFE6FF6F
:10090000080EC3D8E552E7245DD82ED0070EDB5081
:10091000030A1CE0010A14E0030A07E07BD9DBCFDD
:10092000EEFF020EDBCFEDFF1FD0F5D8056A03AE58
:1009300002D0046805682CD8BCD805C0EEFF14D0DE
:10094000EAD803BE046824D8B4D80ED063D9DBCF6C
:10095000EFFF0AD07BD905E1011C03E1F368F468DD
:1009600010D0FCD801E3DB2A79D953EF00F0010E57
:10097000DBCF00F0020EDBCF01F000C0F3FF01C0BF
:10098000F4FF3B0EE15C02E2E16AE552E16ECBD09E
:1009900029D9020EB9EF05F061D90800F550DF6ED4
:1009A0001200200EE66E080E29EF06F05AEC1BF03E
:1009B000E552E552E552F3CF00F0F4CF01F000012B
:1009C000F31C1200006E016AD950010F4DD900507E
:1009D000EE260150ED221200045E000E055AF70EBD
:1009E00004C0DBFFF80E05C0DBFF04C0E9FF05C053
:1009F000EAFF1200DBCFF4FFF350F45C1200DB508F
:100A0000E76E040EE7CFDBFF12000A0EDBCF00F02B
:100A10000B0EDBCF01F00C0EDBCF02F00D0EDBCFA7
:100A200003F000500110021003101200130EEECF5D
:100A3000DBFF140EEDCFDBFF130EDBCF00F0140E47
:100A4000DBCF01F00001800E01141200F70EDBCFA6
:100A500004F0F80EDBCF05F01200050EDB50E66E59
:100A6000D950130F01D9E552E750EE6EED6A12002E
:100A70000A0EDBCF2EF00B0EDBCF2FF00C0EDBCFF0
:100A800030F00D0EDBCF31F01200DBCFE6FF150E9C
:100A9000DBCFE6FF050EDB50E552E724E552E72405
:100AA0001200DB50CED8010EF36E060EF3CFDBFF43
:100AB0001200EE50EFCFEAFFE96E02C0EEFF03C076
:100AC000EEFF04C0EEFF1200D9CFE6FFDACFE6FF5B
:100AD000E1CFD9FFE2CFDAFF1200DFCFE6FFE66A0F
:100AE00083EC1EF0E552E552F3501200E76E080E5B
:100AF000E7CFDBFF1200EECF00F0EECF01F0EFCF3B
:100B000002F0036A1200050EDBCF00F0150EDB5079
:100B1000D88000541200010EDBCF02F0020EDBCFB2
:100B200003F0046A1200E552E5CFDAFFE7CFD9FF00
:100B300012000A0E00C0DBFF0B0E01C0DBFF12002B
:100B4000D9500A0F34EF06F0F36E070EF3CFDBFF38
:100B50001200EECF00F0EFCF01F01200010EDB2A01
:100B6000020E1200FC0EDBCFE6FFFD0EDBCFE6FF30
:100B70001200005E000E015AF70E00C0DBFFF80EF7
:100B800001C0DBFF00C0E9FF01C0EAFF1200DA206C
:100B9000EA6EEF2AEECFF6FF000EEF22EECFF7FF60
:100BA000EF22EECFF8FF1200040EDBCFE6FF130EAC
:100BB000DB50E552E75C9ADFDB5004DF060EDB50CA
:100BC0001200090EDB500A0DF350DF24D00FE76E40
:100BD000090EE7CFDBFFCCEF04F0DB50F36E050E20
:100BE000FAEF04F0F70EDBCF00F0F80EDBCF01F0E8
:100BF0001200DFCFE6FFD6EF04F028DF030EECDEB5
:100C00007BEF05F028EC00F0E552E552E552E552A5
:100C100000091200BDDEEE50EFCFEAFFE96E010ED3
:100C20001200130EDB50F36E040EFAEF04F0040E04
:100C3000DB50F36E090EFAEF04F0DBCFE6FFD6EFE0
:100C400004F0E76E050EE7CFDBFF12008BDFF9EF54
:100C500005F0DBCFE6FF86DF02EF06F0D950F90F93
:100C6000E96EFF0EC7EF05F0E96E000EDA20EA6EBE
:020C7000120070
:0E0C7200D9CFE6FFE1CFD9FF080EE126DE6AFA
:100C8000DE6ADE6ADD6ADD52DD5289888B9A8A9AD5
:100C90008B90899CD00EE66E070EE66E39EC0FF055
:100CA000E552E5528A8ADC0EE66E050EE66E39ECF8
:100CB0000FF0E552E552898C040EDB6A050EDB6A03
:100CC000060EDB6A070EDB6AD950040FE96EDACF35
:100CD000EAFFD890030EEB50000A08E6140EEE5C13
:100CE000000EEE58000EEE58000EEE5830E2870E61
:100CF000E66EBFEC10F0E552F35000017427F4509B
:100D00007523930EE66EBFEC10F0E552F350000130
:100D10007A27F4507B23830EE66EBFEC10F0E55289
:100D2000F35000017C27F4507D23320EE66EE66A14
:100D300039EC0FF0E552E552D950040FE96EDACFE5
:100D4000EAFFEE2A000EEE22EE22EE22BDD7140EAE
:100D5000356E366A74C030F075C031F05AEC0DF063
:100D600030C074F031C075F0140E356E366A7AC03A
:100D700030F07BC031F05AEC0DF030C07AF031C069
:100D80007BF0140E356E366A7CC030F07DC031F0D9
:100D90005AEC0DF030C07CF031C07DF08A9A899C0D
:100DA0008B8ADC0EE66E050EE66E39EC0FF0E5522E
:100DB000E552898C040EDB6A050EDB6A060EDB6ADF
:100DC000070EDB6AD950040FE96EDACFEAFFD8903C
:100DD000030EEB50000A08E6B80EEE5C0B0EEE5860
:100DE000000EEE58000EEE582BE2830EE66EBFECBE
:100DF00010F0E552F3CF00F0F4CF01F0026A036A7D
:100E000001AE02D0026803680050DE260150DE22E7
:100E10000250DE220350DD22DD52DD52010EE66E6D
:100E2000E66A39EC0FF0E552E552D950040FE96E4D
:100E3000DACFEAFFEE2A000EEE22EE22EE22C2D731
:100E40007CC000F07DC001F0026A036A01AE02D0EE
:100E500002680368D9CFE9FFDACFEAFF0050EE5EFF
:100E60000150EE5A0250EE5A0350EE5AD9CFE9FF24
:100E7000DACFEAFF840E336E030E346E356A366ABB
:100E8000EECF2EF0EECF2FF0EECF30F0EFCF31F0EF
:100E900080EC0DF031C0EDFF30C0EDFF2FC0EDFF55
:100EA0002EC0EFFF000EDFCF7EF0010EDBCF7FF014
:100EB0008B9A8B80899CDC0EE66E050EE66E39EC13
:100EC0000FF0E552E552898C040EDB6A050EDB6AF1
:100ED000060EDB6A070EDB6AD950040FE96EDACF23
:100EE000EAFFD890030EEB50000A08E6140EEE5C01
:100EF000000EEE58000EEE58000EEE5826E2870E59
:100F0000E66EBFEC10F0E552F35000017627F45086
:100F10007723930EE66EBFEC10F0E552F35000011C
:100F20007827F4507923320EE66EE66A39EC0FF03A
:100F3000E552E552D950040FE96EDACFEAFFEE2A06
:100F4000000EEE22EE22EE22C7D7140E356E366A60
:100F500076C030F077C031F05AEC0DF030C076F04A
:100F600031C077F0140E356E366A78C030F079C033
:100F700031F05AEC0DF030C078F031C079F089884A
:100F8000010EE66ED1EC1EF0E5528B8A010EE66E84
:100F9000D1EC1EF0E5528A8A8B80899C82B414D0F1
:100FA00082A611D089988B9A8A9A8B90898CF40E9C
:100FB000E66E010EE66E39EC0FF0E552E552899CC3
:100FC000F36AF46A15D0EAD78CEC13F0898CF40E2E
:100FD000E66E010EE66E39EC0FF0E552E5528998A7
:100FE0008B9A8A9A8B90899C010EF36EF46A00D0DA
:100FF000080EE15C02E2E16AE552E16EE552E7CFFC
:10100000D9FF1200D9CFE6FFE1CFD9FF2D0EE1269F
:10101000600EDE6E020EDD6E880EF36E020EF3CFF2
:10102000DBFF030EDB6A6A0EF36E040EF3CFDBFF09
:10103000020EF36E050EF3CFDBFF630EF36E060EAA
:10104000F3CFDBFF070EDB6A2D0EF36E080EF3CF36
:10105000DBFF010EF36E090EF3CFDBFFCB0EF36E59
:101060000A0EF3CFDBFF030EF36E0B0EF3CFDBFFA5
:10107000C30E046EF50E056E1C0E066E410E076E55
:10108000FD0EDBCF0EF0FE0EDBCF0FF0DE500E5C60
:101090000C6EDD500F580D6E0CC030F00DC031F0ED
:1010A000F0EC0BF02FC008F030C009F031C00AF0AE
:1010B00032C00BF008C034F009C035F00AC036F079
:1010C0000BC037F004C02FF005C030F006C031F07F
:1010D00007C032F0EDEC0CF02FC000F030C001F092
:1010E00031C002F032C003F0020EDBCF30F0030E4D
:1010F000DBCF31F0F0EC0BF02FC010F030C011F06E
:1011000031C012F032C013F010C034F011C035F00D
:1011100012C036F013C037F000C02FF001C030F01D
:1011200002C031F003C032F09AEC0CF00C0E2FC06C
:10113000DBFF0D0E30C0DBFF0E0E31C0DBFF0F0EEC
:1011400032C0DBFFC30E046EF50E056E1C0E066E7C
:10115000410E076EFB0EDBCF0EF0FC0EDBCF0FF067
:10116000040EDB500E5C0C6E050EDB500F580D6E3E
:101170000CC030F00DC031F0F0EC0BF02FC008F0D7
:1011800030C009F031C00AF032C00BF008C034F0B2
:1011900009C035F00AC036F00BC037F004C02FF09C
:1011A00005C030F006C031F007C032F0EDEC0CF0B5
:1011B0002FC000F030C001F031C002F032C003F0A7
:1011C000060EDBCF30F0070EDBCF31F0F0EC0BF08A
:1011D0002FC010F030C011F031C012F032C013F047
:1011E00010C034F011C035F012C036F013C037F023
:1011F00000C02FF001C030F002C031F003C032F067
:101200009AEC0CF0100E2FC0DBFF110E30C0DBFF8C
:10121000120E31C0DBFF130E32C0DBFF046A056A19
:10122000C80E066EC20E076EF90EDBCF0EF0FA0E78
:10123000DBCF0FF0080EDB500E5C0C6E090EDB509E
:101240000F580D6E0CC030F00DC031F0F0EC0BF00B
:101250002FC008F030C009F031C00AF032C00BF0E6
:1012600008C034F009C035F00AC036F00BC037F0C2
:1012700004C02FF005C030F006C031F007C032F0D6
:10128000EDEC0CF02FC000F030C001F031C002F0E6
:1012900032C003F00A0EDBCF30F00B0EDBCF31F0A3
:1012A000F0EC0BF02FC010F030C011F031C012F094
:1012B00032C013F010C034F011C035F012C036F057
:1012C00013C037F000C02FF001C030F002C031F081
:1012D00003C032F09AEC0CF0140E2FC0DBFF150E99
:1012E00030C0DBFF160E31C0DBFF170E32C0DBFF54
:1012F0000C0EDBCF10F00D0EDBCF11F00E0EDBCF9E
:1013000012F00F0EDBCF13F0100EDBCF14F0110E26
:10131000DBCF15F0120EDBCF16F0130EDBCF17F07C
:1013200014C034F015C035F016C036F017C037F0D1
:1013300010C02FF011C030F012C031F013C032F0E5
:1013400004EC0CF02FC00CF030C00DF031C00EF0EA
:1013500032C00FF0F70EDBCF30F0F80EDBCF31F0FC
:10136000F0EC0BF02FC018F030C019F031C01AF0BB
:1013700032C01BF018C034F019C035F01AC036F076
:101380001BC037F00CC02FF00DC030F00EC031F094
:101390000FC032F003EC0CF02FC008F030C009F0A1
:1013A00031C00AF032C00BF0C30E346EF50E356E4C
:1013B0001C0E366E410E376E08C02FF009C030F09B
:1013C0000AC031F00BC032F003EC0CF02FC004F077
:1013D00030C005F031C006F032C007F0330E346E75
:1013E000356E650E366E420E376E04C02FF005C0A6
:1013F00030F006C031F007C032F0EDEC0CF02FC039
:1014000000F030C001F031C002F032C003F0C30E72
:10141000206EF50E216E1C0E226E410E236EF70E0D
:10142000DBCF30F0F80EDBCF31F0F0EC0BF02FC05B
:1014300024F030C025F031C026F032C027F024C09F
:1014400034F025C035F026C036F027C037F020C074
:101450002FF021C030F022C031F023C032F003EC75
:101460000CF02FC01CF030C01DF031C01EF032C097
:101470001FF01CC034F01DC035F01EC036F01FC078
:1014800037F000C02FF001C030F002C031F003C0CF
:1014900032F09AEC0CF0180E2FC0DBFF190E30C0A2
:1014A000DBFF1A0E31C0DBFF1B0E32C0DBFF180E54
:1014B000DBCF00F0190EDBCF01F01A0EDBCF02F00C
:1014C0001B0EDBCF03F0346A356A700E366E410EA8
:1014D000376E00C02FF001C030F002C031F003C001
:1014E00032F0E3EC0DF0010A13E1180EDB6A190E7D
:1014F000DB6A700EF36E1A0EF3CFDBFF410EF36E54
:101500001B0EF3CFDBFF010EF36E2C0EF3CFDBFFD0
:10151000180EDBCF00F0190EDBCF01F01A0EDBCF77
:1015200002F01B0EDBCF03F0346A356A700E366EA4
:10153000C10E376E00C02FF001C030F002C031F094
:1015400003C032F0ECEC0DF0010A13E1180EDB6A77
:10155000190EDB6A700EF36E1A0EF3CFDBFFC10EAD
:10156000F36E1B0EF3CFDBFF010EF36E2C0EF3CFE9
:10157000DBFF140EDBCF08F0150EDBCF09F0160EE3
:10158000DBCF0AF0170EDBCF0BF0F30EDBCF30F022
:10159000F40EDBCF31F0F0EC0BF02FC00CF030C0CC
:1015A0000DF031C00EF032C00FF00CC034F00DC0A1
:1015B00035F00EC036F00FC037F008C02FF009C06C
:1015C00030F00AC031F00BC032F0EDEC0CF02FC05F
:1015D00004F030C005F031C006F032C007F0346AC4
:1015E000356A7A0E366E440E376E04C02FF005C091
:1015F00030F006C031F007C032F09AEC0CF02FC08A
:1016000000F030C001F031C002F032C003F0F50E3E
:10161000DBCF30F0F60EDBCF31F0F0EC0BF02FC06B
:1016200010F030C011F031C012F032C013F010C011
:1016300034F011C035F012C036F013C037F000C0DE
:101640002FF001C030F002C031F003C032F004ECE2
:101650000CF01C0E2FC0DBFF1D0E30C0DBFF1E0E7A
:1016600031C0DBFF1F0E32C0DBFF6CC02FF06DC03E
:1016700030F06EC031F06FC032F0180EDBCF34F0B6
:10168000190EDBCF35F01A0EDBCF36F01B0EDBCF99
:1016900037F0EDEC0CF02FC000F030C001F031C09D
:1016A00002F032C003F0086A096A7A0E0A6E440E2C
:1016B0000B6E6CC034F06DC035F06EC036F06FC08C
:1016C00037F008C02FF009C030F00AC031F00BC06D
:1016D00032F003EC0CF01C0EDBCF34F01D0EDBCF30
:1016E00035F01E0EDBCF36F01F0EDBCF37F0EDEC02
:1016F0000CF02FC004F030C005F031C006F032C04D
:1017000007F004C034F005C035F006C036F007C05D
:1017100037F000C02FF001C030F002C031F003C03C
:1017200032F004EC0CF0240E2FC0DBFF250E30C08D
:10173000DBFF260E31C0DBFF270E32C0DBFFD950A6
:10174000140FE96EDACFEAFF280EEECFDBFF290E89
:10175000EECFDBFF2A0EEECFDBFF2B0EEECFDBFF53
:10176000240EDBCF00F0250EDBCF01F0260EDBCF01
:1017700002F0270EDBCF03F0280EDBCF04F0290E9A
:10178000DBCF05F02A0EDBCF06F02B0EDBCF07F008
:101790002C0EDBCF08F0D9CFE9FFDACFEAFFED500E
:1017A000ED5008C0EDFF07C0EDFF06C0EDFF05C01E
:1017B000EDFF04C0EDFF03C0EDFF02C0EDFF01C06F
:1017C000EDFF00C0EFFF2D0EE15C03E200D0E16A07
:0C17D000E552E16EE552E7CFD9FF1200B0
:0417DC00299E08D06A
:1017E000299E31AE05D0306C311EE86A3122298E37
:1017F00031C02BF030C02AF03B6A3A6A8E0E2C6E54
:101800002D6A66EF0EF0377E296AA2EC0EF0BAEC74
:101810000EF029B64AEF0EF029A20AD029AA03D069
:1018200029BE4AEF0EF029A456EF0EF053EF0EF04A
:1018300029AA05D029AC56EF0EF053EF0EF029A0DF
:101840000AD029A808D029BE04D029A402D05FEF6D
:101850000EF063EF0EF03A6A2D6A3750325C396E43
:1018600010E32FC03BF030C02AF031C02BF032C063
:1018700038F034C02FF035C030F036C031F0293A9E
:1018800009D034C03BF035C02AF036C02BF037C049
:1018900038F0396C299E29BC298E38C02CF029B02B
:1018A00092EF0EF01A0E396092EF0EF02C6A326A47
:1018B00029A408D02F6C301E311E321EE86A302257
:1018C0003122322229AC08D03B6C2A1E2B1E2C1E42
:1018D000E86A2A222B222C222E6A395207E032345F
:1018E000313230322F322E32392EF9D72F503B265B
:1018F00030502A2231502B2232502C222EC03AF066
:10190000299E2CAE0BD03A6C3B1E2A1E2B1E2C1E81
:10191000E86A3B222A222B222C22298E2CA006D0D8
:10192000D8802B322A323B323A32382A38C02CF057
:1019300066EF0EF0296AA2EC0EF0BAEC0EF029B6B2
:101940004AEF0EF029A205D029BA4AEF0EF051EF66
:101950000EF029BA5DEF0EF029A005D029B84AEFA4
:101960000EF05DEF0EF029B851EF0EF02D6A7F0EEC
:1019700032242C6EE86A2D2237502C5EE86A2D5AEC
:101980001A0E386E326A3A6A3B6A2A6A2B6A3450F7
:101990002F5E3550305A3650315A000E325A09E710
:1019A00034502F263550302236503122000E32224C
:1019B00001D03A8AD8902F36303631363236D89028
:1019C0003A363B362A362B36382EE1D73150301096
:1019D0002F10D8A43A8A66EF0EF0296AA2EC0EF016
:1019E000BAEC0EF029B64AEF0EF029A205D029B8BC
:1019F0004AEF0EF051EF0EF029AA05D029B04AEFB8
:101A00000EF051EF0EF029B002D029A802D05DEF00
:101A10000EF02D6A375032242C6EE86A2D227E0E8D
:101A20002C5EE86A2D5A3A6A3B6A2A6A2B6A36505B
:101A30003102F4CF2BF0F3CF2AF035503102F350BE
:101A40003B26F4502A22000E2B2236503002F3504F
:101A50003B26F4502A22000E2B2234503102F35040
:101A60003A26F4503B22000E2A222B223550300217
:101A7000F3503A26F4503B22000E2A222B223650F5
:101A80002F02F3503A26F4503B22000E2A222B223A
:101A900034503002F4503A26000E3B222A222B22E8
:101AA00035502F02F4503A26000E3B222A222B22D8
:101AB00066EF0EF0286A36AE63EF0DF0356C361E19
:101AC000E86A3622281E31AE6BEF0DF0306C311E05
:101AD000E86A3122281E6DEC1EF031BE7BEF0DF05E
:101AE00028AE000C306C311EE86A31222C6C2D1EA1
:101AF000E86A2D22000C28BE72EF0DF02988FF0C39
:101B0000286AE86A36AE8DEF0DF0336C341E351E50
:101B1000361E342235223622281E31AE98EF0DF0C3
:101B20002E6C2F1E301E311E2F2230223122281EF5
:101B30006FEC1DF031BEAFEF0DF028AE000C2E6C37
:101B40002F1E301E311EE86A2F22302231222A6CCD
:101B50002B1E2C1E2D1E2B222C222D22000C28BECB
:101B60009FEF0DF02988FF0C296AA2EC0EF029B630
:101B7000BEEF0DF029A20ED029B405D07F0E316E34
:101B8000FF0E306E1FD0800E316E306A1BD0316A6E
:101B9000306A18D029B0FBD78F0E3260EDD77E0E99
:101BA0003264F5D78E0E325C05E0D8903132303297
:101BB000322AF8D729A406D0306C311EE86A3122C7
:101BC00031AEE5D71200F5EC0DF029B6000C29B0C6
:101BD000000C29B4000C010CF5EC0DF029B6000C3A
:101BE00029B0000C29A4000C010C296AA2EC0EF00B
:101BF000BAEC0EF029B6120029AE08D029A004D004
:101C000029A802D029801200299012003750325C96
:101C10000BE13650315C08E13550305C05E1345061
:101C20002F5C02E129801200D8A002D0298E10D0AA
:101C3000325037C032F0376E315036C031F0366E28
:101C4000305035C030F0356E2F5034C02FF0346E28
:101C50003750325C10E0FF0F09E0299029B403D01F
:101C600029AE2984120029AE29941200372AD8906F
:101C700036323532343234502F5E3550305A365089
:101C8000315A31BEEAD7D8902F3630363136322E1F
:101C9000F8D7C8D77F0E326EFF0E316E306E2F6EC2
:101CA00012007F0E29BEFF0E326E02D07F0E326E02
:101CB000800E316E306A2F6AF3D729AE04D0800EC1
:101CC000326E316AF7D7326A316AF4D72B502A1054
:101CD0003B103A10F8E02DBEF0D72BBE0CD02C50A4
:101CE0002D10EBE0D8903A363B362A362B362C06B0
:101CF000D8A02D06F2D72D50D4E12C28D2E03AAE50
:101D000011D07F0E3A1402E13BA00CD03B2AE86AC6
:101D10002A222B2207E3D8802B322A323B322C2A6C
:101D20002C28BFE02C50C9E03BC02FF02AC030F077
:101D30002B34316E2C30326E3132329E29BE328ECF
:101D400050EF0EF03136323602E32984297E06E167
:101D50002980326A316A306A2F6A1200322803E021
:101D6000D88031321200D890313202E1298212003B
:101D7000298612003636373602E3298C297E06E1A1
:101D80002988376A366A356A346A1200372803E0D0
:101D9000D88036321200D8903632EAE1298A120011
:101DA00031C03BF030C03AF030503502F4CF2FF064
:101DB000F3CF2EF031503602F4CF31F0F3CF30F0C4
:101DC0003502F3502F26F4503022E86A31223A507F
:101DD0003602F3502F26F4503022E86A312236AE14
:101DE000F6EF0EF03A50305E3B50315A3BAE000CED
:0A1DF0003550305E3650315A000CB9
:061DFA00D9CFE6FFE1CFA6
:101E0000D9FFFD0EDB5000019E5D0001006EFE0E4D
:101E1000DB5000019F590001016E00C0F3FF01C0BB
:101E2000F4FF00D0E552E7CFD9FF1200D9CFE6FF8B
:101E3000E1CFD9FFFD0EDB5000019E5D0001006E79
:101E4000FE0EDB5000019F590001016EFB0EDBCF3F
:101E500002F0FC0EDBCF03F00050025C015003588F
:101E600002E3000E01D0010E00D0E552E7CFD9FF0A
:101E70001200D9CFE6FFE1CFD9FF020EE1269EC0C6
:101E8000DEFF9FC0DDFF0001DE509E5D006EDD5075
:101E90009F59016EFD0EDBCF02F0FE0EDBCF03F08B
:101EA0000250005C0350015801E2EDD7020EE15CE4
:101EB00002E2E16AE552E16EE552E7CFD9FF120096
:101EC000B5EC1DF0F3CF00F0F4CF01F0026A170E6D
:101ED000005EFC0E015A000E025A00C0F3FF01C062
:101EE000F4FF00D01200D9CFE6FFE1CFD9FF020EF8
:101EF000E126E6DFF3CFDEFFF4CFDDFFDECF02F039
:101F0000DDCF03F002C0E6FF03C0E6FFD9DFE552F4
:101F1000E7CF03F0E552E7CF02F00250F35C006E2A
:101F20000350F458016EFD0EDBCF04F0FE0EDBCF44
:101F300005F00450005C0550015801E2DFD7020EA5
:101F4000E15C02E2E16AE552E16EE552E7CFD9FFDA
:101F50001200D9CFE6FFE1CFD9FF040EE126C00E73
:101F6000006E1E0E016E026A036A9EC004F09FC0DE
:101F700005F0E80E0502F3CF05F0030E0402F3505E
:101F80000526E80E0402F3CF04F0F4500526066A95
:101F9000076A04500026055001220650022207500D
:101FA000032200C0DFFF010E01C0DBFF020E02C0F2
:101FB000DBFF030E03C0DBFFDECF2EF0DECF2FF002
:101FC000DECF30F0DDCF31F0DD52DD52040EE15CCA
:101FD00003E200D0E16AE552E16EE552E7CFD9FFB6
:101FE0001200D9CFE6FFE1CFD9FFFB0EDBCF04F023
:101FF000FC0EDBCF05F0FD0EDBCF06F0FE0EDBCFD7
:1020000007F004C0E6FF05C0E6FF06C0E6FF07C014
:10201000E6FF9FDFE552E7CF07F0E552E7CF06F096
:10202000E552E7CF05F0E552E7CF04F00001045098
:102030002E5C006E05502F58016E06503058026E0F
:1020400007503158036E00C02EF001C02FF002C0BF
:1020500030F003C031F000D0E552E7CFD9FF1200D5
:10206000D9CFE6FFE1CFD9FF060EE126640E006E60
:10207000016AFD0EDBCF30F0FE0EDBCF31F000C089
:1020800035F001C036F06DEC1EF0020E30C0DBFF03
:10209000030E31C0DBFFFD0EDBCF00F0FE0EDBCF09
:1020A00001F0640E356E366A00C030F001C031F0C8
:1020B0006DEC1EF02CC000F02DC001F00A0E356E44
:1020C000366A00C030F001C031F06DEC1EF030C057
:1020D00000F031C001F0040E00C0DBFFFD0EDBCFCD
:1020E00000F0FE0EDBCF01F00A0E356E366A00C03E
:1020F00030F001C031F06DEC1EF02CC000F02DC0AE
:1021000001F0050E00C0DBFFDE6ADD6ADECF00F005
:10211000DDCF01F0020EDBCF02F0030EDBCF03F0C8
:102120000250005C035001580AE2500EE66E28ECA3
:102130001EF0E552DF2A010E01E3DB2AE7D7040E89
:10214000DB5008E0040EDB50080DF350E66E28EC7F
:102150001EF0E552050EDB5008E0050EDB50080DC1
:10216000F350E66E95EC1EF0E552060EE15C02E2DD
:10217000E16AE552E16EE552E7CFD9FF1200D9CF0F
:10218000E6FFE1CFD9FFF30EE66E7F0EE66EE6685E
:1021900049EC1CF0E552E552E552FE0EDBCFE6FFBE
:1021A00056EC1EF0E55207EC00F0000901E0FBD709
:1021B000DCEC1EF000D0E552E7CFD9FF1200D9CFFA
:1021C000E6FFE1CFD9FF030EE126FB0EDBCF02F0E5
:1021D000FC0EDBCF03F0DE500224006EDD50032046
:1021E000016EFF0ED8800054030E015402E2000E6F
:1021F0004FD0DE6ADD6ADECF00F0DDCF01F0FA0EEF
:10220000DB50026E036A0250005C035001583EE24C
:10221000010EE66EE66AFD0EDBCF02F0FE0EDBCFAE
:1022200003F0DE500224006EDD500320016E00C07A
:10223000E6FF01C0E6FFD950020FE66E000EDA207D
:10224000E66E61EC1AF0046E060EE15E0450F5ECE9
:102250001EF0020EDBCFE6FFFB0EDBCF02F0FC0E22
:10226000DBCF03F0DE500224006EDD500320016E50
:1022700000C0E6FF01C0E6FF23EC1DF0E552E55289
:10228000E552DF2A010E01E3DB2AB5D7010E00D0AB
:10229000006E030EE15C02E2E16AE552E16E00507D
:1022A000E552E7CFD9FF1200D9CFE6FFE1CFD9FF42
:1022B000030EE126FB0EDBCF02F0FC0EDBCF03F0BA
:1022C000DE500224006EDD500320016EFF0ED88028
:1022D0000054030E015402E2000E4DD0DE6ADD6AA6
:1022E000DECF00F0DDCF01F0FA0EDB50026E036AA4
:1022F0000250005C035001583CE2FB0EDBCF02F0C1
:10230000FC0EDBCF03F0DE500224006EDD50032014
:10231000016E00C0E6FF01C0E6FF93EC1DF0E55240
:10232000E552E76E020EE7CFDBFF010EE66EE66ACE
:10233000D950020FE66E000EDA20E66EFD0EDBCFFE
:1023400002F0FE0EDBCF03F0DE500224006EDD5003
:102350000320016E00C0E6FF01C0E6FF61EC1AF049
:10236000046E060EE15E0450DF2A010E01E3DB2A53
:10237000B7D7010E00D0006E030EE15C02E2E16A05
:0E238000E552E16E0050E552E7CFD9FF1200A2
:02238E0000014C
:10239000606B616BA00E626F410E636F646B656B67
:1023A000200E666F410E676F686B696BF00E6A6F87
:1023B000410E6B6FCD0E6C6FCC0E6D6F4C0E6E6F51
:1023C0003E0E6F6F706B716B726B3F0E736F12000E
:1023D000D9CFE6FFE1CFD9FF030EE1268C0EDE6EEA
:1023E000DD6A040EF36E020EF3CFDBFFDBCFE6FFF8
:1023F000DECFE6FFDDCFE6FF600EE66E000EE66E96
:1024000054EC11F0006E050EE15E0050020EDB5040
:10241000DE26000EDD22020EDBCFE6FFDECFE6FF7A
:10242000DDCFE6FF640EE66E000EE66E54EC11F0B2
:10243000006E050EE15E0050020EDB50DE26000E3F
:10244000DD22020EDBCFE6FFDECFE6FFDDCFE6FFCB
:10245000680EE66E000EE66E54EC11F0006E050E8E
:10246000E15E0050020EDB50DE26000EDD22020E81
:10247000DBCFE6FFDECFE6FFDDCFE6FF6C0EE66EDC
:10248000000EE66E54EC11F0006E050EE15E005099
:10249000020EDB50DE26000EDD22020EDBCFE6FF51
:1024A000DECFE6FFDDCFE6FF700EE66E000EE66ED5
:1024B00054EC11F0006E050EE15E0050020EDB5090
:1024C000DE26000EDD22030EE15C02E2E16AE55247
:1024D000E16EE552E7CFD9FF1200D9CFE6FFE1CF99
:1024E000D9FF030EE1268C0EDE6EDD6A040EF36E5C
:1024F000020EF3CFDBFFDBCFE6FFDECFE6FFDDCF63
:10250000E6FF600EE66E000EE66EDFEC10F0006E89
:10251000050EE15E0050020EDB50DE26000EDD22CD
:10252000020EDBCFE6FFDECFE6FFDDCFE6FF640E77
:10253000E66E000EE66EDFEC10F0006E050EE15E5A
:102540000050020EDB50DE26000EDD22020EDBCF35
:10255000E6FFDECFE6FFDDCFE6FF680EE66E000E9B
:10256000E66EDFEC10F0006E050EE15E0050020E2C
:10257000DB50DE26000EDD22020EDBCFE6FFDECFD3
:10258000E6FFDDCFE6FF6C0EE66E000EE66EDFECDA
:1025900010F0006E050EE15E0050020EDB50DE26EC
:1025A000000EDD22020EDBCFE6FFDECFE6FFDDCF41
:1025B000E6FF700EE66E000EE66EDFEC10F0006EC9
:1025C000050EE15E0050020EDB50DE26000EDD221D
:1025D000030EE15C02E2E16AE552E16EE552E7CF0B
:1025E000D9FF1200D9CFE6FFE1CFD9FF030EE126D4
:1025F000640EDE6EDD6A020EF36EF3CFDBFFDBCF1F
:10260000E6FFDECFE6FFDDCFE6FF740EE66E000EDE
:10261000E66E54EC11F0006E050EE15E0050020E05
:10262000DB50DE26000EDD22020EDBCFE6FFDECF22
:10263000E6FFDDCFE6FF760EE66E000EE66E54ECAA
:1026400011F0006E050EE15E0050020EDB50DE263A
:10265000000EDD22020EDBCFE6FFDECFE6FFDDCF90
:10266000E6FF780EE66E000EE66E54EC11F0006E9A
:10267000050EE15E0050020EDB50DE26000EDD226C
:10268000020EDBCFE6FFDECFE6FFDDCFE6FF7A0E00
:10269000E66E000EE66E54EC11F0006E050EE15E83
:1026A0000050020EDB50DE26000EDD22020EDBCFD4
:1026B000E6FFDECFE6FFDDCFE6FF7C0EE66E000E26
:1026C000E66E54EC11F0006E050EE15E0050020E55
:1026D000DB50DE26000EDD22020EDBCFE6FFDECF72
:1026E000E6FFDDCFE6FF7E0EE66E000EE66E54ECF2
:1026F00011F0006E050EE15E0050020EDB50DE268A
:10270000000EDD22030EE15C02E2E16AE552E16EB9
:10271000E552E7CFD9FF1200D9CFE6FFE1CFD9FFCD
:10272000030EE126640EDE6EDD6A020EF36EF3CF59
:10273000DBFFDBCFE6FFDECFE6FFDDCFE6FF740E8B
:10274000E66E000EE66EDFEC10F0006E050EE15E48
:102750000050020EDB50DE26000EDD22020EDBCF23
:10276000E6FFDECFE6FFDDCFE6FF760EE66E000E7B
:10277000E66EDFEC10F0006E050EE15E0050020E1A
:10278000DB50DE26000EDD22020EDBCFE6FFDECFC1
:10279000E6FFDDCFE6FF780EE66E000EE66EDFECBC
:1027A00010F0006E050EE15E0050020EDB50DE26DA
:1027B000000EDD22020EDBCFE6FFDECFE6FFDDCF2F
:1027C000E6FF7A0EE66E000EE66EDFEC10F0006EAD
:1027D000050EE15E0050020EDB50DE26000EDD220B
:1027E000020EDBCFE6FFDECFE6FFDDCFE6FF7C0E9D
:1027F000E66E000EE66EDFEC10F0006E050EE15E98
:102800000050020EDB50DE26000EDD22020EDBCF72
:10281000E6FFDECFE6FFDDCFE6FF7E0EE66E000EC2
:10282000E66EDFEC10F0006E050EE15E0050020E69
:10283000DB50DE26000EDD22030EE15C02E2E16ADF
:0C284000E552E16EE552E7CFD9FF12002F
:04284C00D9CFE6FFFB
:10285000E1CFD9FF080EE126FB0EDBCF00F0FC0E26
:10286000DBCF01F0FD0EDBCF02F0FE0EDBCF03F07D
:10287000F70EDBCF04F0F80EDBCF05F0F90EDBCF5F
:1028800006F0FA0EDBCF07F004C034F005C035F0D7
:1028900006C036F007C037F000C02FF001C030F09E
:1028A00002C031F003C032F003EC0CF02FC0DEFFA9
:1028B00030C0DEFF31C0DEFF32C0DDFFDD52DD5251
:1028C000D9CFE9FFDACFEAFFEECF04F0EECF05F083
:1028D000EECF06F0EFCF07F060C034F061C035F006
:1028E00062C036F063C037F004C02FF005C030F08E
:1028F00006C031F007C032F0EDEC0CF02FC000F054
:1029000030C001F031C002F032C003F0F30EDBCF73
:102910000CF0F40EDBCF0DF0F50EDBCF0EF0F60E63
:10292000DBCF0FF064C034F065C035F066C036F020
:1029300067C037F00CC02FF00DC030F00EC031F082
:102940000FC032F0EDEC0CF02FC008F030C009F0F1
:1029500031C00AF032C00BF008C034F009C035F0C5
:102960000AC036F00BC037F000C02FF001C030F0C5
:1029700002C031F003C032F003EC0CF0040E2FC0A3
:10298000DBFF050E30C0DBFF060E31C0DBFF070E9C
:1029900032C0DBFF040EDBCF00F0050EDBCF01F011
:1029A000060EDBCF02F0070EDBCF03F000C02EF0E7
:1029B00001C02FF002C030F003C031F0080EE15C1E
:1029C00003E200D0E16AE552E16EE552E7CFD9FFBC
:1029D0001200D9CFE6FFE1CFD9FF180EE126F70E9E
:1029E000DBCF00F0F80EDBCF01F0F90EDBCF02F009
:1029F000FA0EDBCF03F0F30EDBCF04F0F40EDBCFE7
:102A000005F0F50EDBCF06F0F60EDBCF07F004C0C5
:102A100034F005C035F006C036F007C037F000C00E
:102A20002FF001C030F002C031F003C032F003ECEF
:102A30000CF02FC0DEFF30C0DEFF31C0DEFF32C041
:102A4000DDFFDD52DD52EF0EDBCF00F0F00EDBCF0D
:102A500001F0F10EDBCF02F0F20EDBCF03F0346AAF
:102A6000356AA00E366E400E376E00C02FF001C0E2
:102A700030F002C031F003C032F09AEC0CF0040EDA
:102A80002FC0DBFF050E30C0DBFF060E31C0DBFFC1
:102A9000070E32C0DBFFD9CFE9FFDACFEAFFEECF76
:102AA00004F0EECF05F0EECF06F0EFCF07F0040E06
:102AB000DBCF08F0050EDBCF09F0060EDBCF0AF006
:102AC000070EDBCF0BF008C034F009C035F00AC0A8
:102AD00036F00BC037F004C02FF005C030F006C050
:102AE00031F007C032F003EC0CF02FC000F030C022
:102AF00001F031C002F032C003F068C034F069C0A8
:102B000035F06AC036F06BC037F000C02FF001C05E
:102B100030F002C031F003C032F0EDEC0CF0080EE2
:102B20002FC0DBFF090E30C0DBFF0A0E31C0DBFF18
:102B30000B0E32C0DBFFFB0EDBCF04F0FC0EDBCF55
:102B400005F0FD0EDBCF06F0FE0EDBCF07F0346A9A
:102B5000356A366A400E376E04C02FF005C030F07B
:102B600006C031F007C032F09AEC0CF02FC000F034
:102B700030C001F031C002F032C003F0080EDBCFEC
:102B800008F0090EDBCF09F00A0EDBCF0AF00B0EBE
:102B9000DBCF0BF008C034F009C035F00AC036F0C6
:102BA0000BC037F000C02FF001C030F002C031F090
:102BB00003C032F003EC0CF0100E2FC0DBFF110E3F
:102BC00030C0DBFF120E31C0DBFF130E32C0DBFF63
:102BD000FB0EDBCF04F0FC0EDBCF05F0FD0EDBCFF0
:102BE00006F0FE0EDBCF07F0346A356A366A400E17
:102BF000376E04C02FF005C030F006C031F007C0BA
:102C000032F09AEC0CF02FC000F030C001F031C06F
:102C100002F032C003F0080EDBCF08F0090EDBCF64
:102C200009F00A0EDBCF0AF00B0EDBCF0BF008C069
:102C300034F009C035F00AC036F00BC037F000C0E0
:102C40002FF001C030F002C031F003C032F004ECCC
:102C50000CF0140E2FC0DBFF150E30C0DBFF160E7C
:102C600031C0DBFF170E32C0DBFFD950FB0FE96E1E
:102C7000FF0EDA20EA6E0C0EEECFDBFF0D0EEECF6C
:102C8000DBFF0E0EEECFDBFF0F0EEECFDBFF180EDD
:102C9000E15C02E2E16AE552E16EE552E7CFD9FF7D
:022CA000120020
:0E2CA200D9CFE6FFE1CFD9FF020EE126ACA2AA
:102CB000FED7720EE66E3FEC1EF0E552720EDF6E2E
:102CC000ACA2FED7FE0EDBCFE6FF3FEC1EF0E552D6
:102CD000FE0EDB50DF26010EDB6AFB0EDB50F36ECF
:102CE000010EDBCFF4FFF350F45C26E2ACA2FED77A
:102CF000010EDB50E76EFC0EDBCFE9FFFD0EDBCFF4
:102D0000EAFFE750E926000EEA22EF50E66E3FECBC
:102D10001EF0E552010EDB50E76EFC0EDBCFE9FF43
:102D2000FD0EDBCFEAFFE750E926000EEA22EF5066
:102D3000DF26010EDB2AD1D7ACA2FED7DFCFE6FF1C
:102D40003FEC1EF0E552020EE15C02E2E16AE55260
:102D5000E16EE552E7CFD9FF1200D9CFE6FFE1CF10
:102D6000D9FFE652DF6AABA204D00001956B966BE7
:102D7000976BAB9200019551EA6A810FE96E000EE4
:102D8000EA22FE0EDBCFEFFF95510BE1FE0EDB508A
:102D9000720802E1000E01D0010E030DF3509727D7
:102DA000CBD0950501E0B1D0FE0EDBCF98F0985165
:102DB0009F0A01E1A5D0820A01E19FD0810A01E1C9
:102DC00099D0800A01E193D0870A01E18DD0810A70
:102DD00001E187D0030A01E182D0830A01E17DD0BD
:102DE000030A01E178D0810A73E00F0A6EE0810ADC
:102DF0006AE0030A65E0800A60E0810A5BE0800A1D
:102E000056E00A0A51E00D0A4CE0810A47E0800AC8
:102E100042E0830A3DE0800A38E0810A33E0800A1C
:102E20002EE09F0A29E0800A24E0010A1FE0030A3D
:102E30001AE0010A15E0070A10E0010A0BE0810A16
:102E400006E0010A01E05FD0010E996F5DD0010E2E
:102E5000996F5AD0010E996F57D0010E996F54D0C7
:102E6000010E996F51D0020E996F4ED0020E996FDC
:102E70004BD0020E996F48D0020E996F45D0020ECA
:102E8000996F42D0020E996F3FD0020E996F3CD0DD
:102E9000020E996F39D0020E996F36D0020E996FDB
:102EA00033D0020E996F30D0020E996F2DD0020EE2
:102EB000996F2AD0020E996F27D0010E996F24D0F6
:102EC000010E996F21D0996B1FD0020E996F1CD003
:102ED000020E996F19D0996B17D0996B15D0996B19
:102EE00013D0010E996F10D0010E996F0DD0020E04
:102EF000996F0AD0020E996F07D0010E996F04D016
:102F0000010E996F01D0972B17D09905955D14E1AB
:102F1000FE0EDB50965D02E1000E01D0010EE824AA
:102F20009727975109E198519A0A01E003D084C08C
:102F300080F000D0010EDF6EDF5002E1975104E017
:102F4000956B966B976B04D0FE0EDB509627952BF6
:0A2F5000E552E552E7CFD9FF120069
:062F5A00D9CFE6FFE1CF34
:102F6000D9FF0A0EE126090EF36E020EF3CFDBFF46
:102F7000030EDB6A0A0EF36E080EF3CFDBFF090EB9
:102F8000DB6AC30EF36E040EF3CFDBFFF50EF36EB8
:102F9000050EF3CFDBFF1C0EF36E060EF3CFDBFF47
:102FA000410EF36E070EF3CFDBFF080EDBCF30F0E0
:102FB000090EDBCF31F0F0EC0BF02FC000F030C089
:102FC00001F031C002F032C003F0D950040FE96EB5
:102FD000DACFEAFFEECF2FF0EECF30F0EECF31F0C8
:102FE000EFCF32F000C034F001C035F002C036F04F
:102FF00003C037F0EDEC0CF032C0EDFF31C0EDFF57
:1030000030C0EDFF2FC0EFFF040EDBCF2FF0050E19
:10301000DBCF30F0060EDBCF31F0070EDBCF32F026
:10302000B4EC0DF0080E30C0DBFF090E31C0DBFF41
:103030005BEC19F0C7EC11F0F2EC12F08B82E80EA9
:10304000E66E030EE66E39EC0FF0E552E552020E25
:10305000E66E050EE66EE66AD950020FE66E000EC9
:10306000DA20E66EDFEC10F0006E050EE15E005037
:10307000020EE66E050EE66EE66AD950020FE66EA7
:10308000000EDA20E66E54EC11F0006E050EE15EE3
:1030900000500A0EE66EE66ADECFE6FFDDCFE6FF01
:1030A000000EE66EE66A830EE66EBFEC10F0E552A7
:1030B000F3CF00F0F4CF01F000C0E6FF01C0E6FF5F
:1030C000930EE66EBFEC10F0E552F3CF02F0F4CFB2
:1030D00003F002C0E6FF03C0E6FF870EE66EBFEC1A
:1030E00010F0E552F3CF04F0F4CF05F004C0E6FF92
:1030F00005C0E6FF02EC08F0066E0C0EE15E06501D
:10310000640EE66EE66A39EC0FF0E552E552DECF6A
:10311000E6FFDDCFE6FFE20EE66E3D0EE66E000E48
:10312000E66E0EEC1BF0006E050EE15E005082A410
:1031300002D039EC06F0ADD7FFD7FFD70A0EE15C1D
:1031400002E2E16AE552E16EE552E7CFD9FF1200F3
:1031500012001200D9CFE6FFE1CFD9FFE552E7CF49
:10316000D9FF1200D9CFE6FFE1CFD9FF200EE1262B
:10317000040EDB6A050EDB6A400EF36E060EF3CF1B
:10318000DBFF410EF36E070EF3CFDBFFD9CFE9FF74
:10319000DACFEAFFEECF00F0EECF01F0EECF02F093
:1031A000EECF03F0EECF04F0EECF05F0EECF06F059
:1031B000EECF07F0EECF08F0EECF09F0EECF0AF039
:1031C000EECF0BF0EECF0CF0EECF0DF0EECF0EF019
:1031D000EECF0FF0EECF10F0EECF11F0EECF12F0F9
:1031E000EECF13F0EECF14F0EECF15F0EECF16F0D9
:1031F000EECF17F0EECF18F0EECF19F0EECF1AF0B9
:10320000EECF1BF0EECF1CF0EECF1DF0EECF1EF098
:10321000EFCF1FF0D9CFE9FFDACFEAFFED50ED5045
:103220001FC0EDFF1EC0EDFF1DC0EDFF1CC0EDFF78
:103230001BC0EDFF1AC0EDFF19C0EDFF18C0EDFF78
:1032400017C0EDFF16C0EDFF15C0EDFF14C0EDFF78
:1032500013C0EDFF12C0EDFF11C0EDFF10C0EDFF78
:103260000FC0EDFF0EC0EDFF0DC0EDFF0CC0EDFF78
:103270000BC0EDFF0AC0EDFF09C0EDFF08C0EDFF78
:1032800007C0EDFF06C0EDFF05C0EDFF04C0EDFF78
:1032900003C0EDFF02C0EDFF01C0EDFF00C0EFFF76
:1032A000200EE15C03E200D0E16AE552E16EE552F6
:0632B000E7CFD9FF120078
:0A32B600D388D38AD38CD392D3902F
:1032C0009B8CD3A4FED7928092829284928692980D
:1032D000928A929C929E9380938293849386938801
:1032E000939A938C938E94909492948494869498C9
:1032F000949A949C948E95809582959495969598A1
:10330000958A959C958E968096829684806A816A2D
:10331000826A836A846A0F01386B396B3A6B3B6B44
:103320003C6B38813883388B3C813C833C85E66A32
:10333000930EE66EA5EC1CF0E552E552170EE66E14
:10334000FC0EE66EF0EC1DF0E552E552A282940E02
:10335000E66E0CEC1EF0E552F194870EE66ED4ECAE
:103360001DF0E5527F90FD0EE66E4AEC1DF0E55231
:10337000BD0EE66EF9EC1CF0E552BD0EE66ECFEC2C
:103380001CF0E552190EE66EE66A7C0EE66ED8EC8D
:103390001BF0E552E552E5529F9A190EE66EE66A79
:1033A0007C0EE66E9CEC1BF0E552E552E552A59AC8
:1033B000F292F294F090F0929E9AA192A49A7E904A
:0A33C000D08EF28CF28E00D01200C5
:0633CA00DACFE4FFE2CFC0
:1033D000DAFFE9CFE4FFEACFE4FFF6CFE4FFF7CF6F
:1033E000E4FFF5CFE4FFF3CFE4FFF4CFE4FFFACF3F
:1033F000E4FF00EE28F0140EE80403E3EECFE4FF50
:10340000FBD700EE00F0280EE80403E3EECFE4FF64
:10341000FBD7E652A1A20DD0170EE66EFC0EE66EAB
:10342000F0EC1DF0E552E55200019E2B000E9F23AB
:10343000A192F2B2F292E55200EE27F0280EE804D3
:1034400003E3E5CFEDFFFBD700EE3BF0140EE804FD
:1034500003E3E5CFEDFFFBD7E5CFFAFFE5CFF4FFC0
:10346000E5CFF3FFE5CFF5FFE5CFF7FFE5CFF6FFBB
:10347000E5CFEAFFE5CFE9FFE5CFDAFF1100DACFCC
:10348000E4FFE2CFDAFFE652D9CFE6FFE1CFD9FF82
:10349000E652F0B0F090F0B2F0929EAA02D0AE5098
:1034A000DF6EA4AA02D07450DF6E7EB07E90F2B4BC
:1034B000F294E552E552E7CFD9FFE552E5CFDAFFC6
:0234C0001100F9
:0E34C200D9CFE6FFDACFE6FFFA0EE3CFD9FF4F
:1034D000FB0EE3CFDAFFFC0EE3CFE9FFFD0EE3CFF7
:1034E000EAFFE9CFF3FFEACFF4FFF80EE35003E180
:1034F000F90EE35008E0F80EE30602E2F90EE306E7
:10350000DECFEEFFF2D7FF0EE3CFDAFFE552FF0E7C
:10351000E3CFD9FFE5521200FE0EE3CFE9FFFF0E25
:10352000E3CFEAFFF36AF46AEE5203E0F34AF42AC7
:10353000FBD71200FF0EE3CFF8FFE552FF0EE3CFFB
:10354000F7FFE552FF0EE3CFF6FFE552E66AE66AC3
:10355000E66A0900F55209E0FD0EE32A05E1FE0ED8
:10356000E32A02E1FF0EE32AF4D7FD0EE3CF2FF0AA
:0E357000FE0EE3CF30F0FF0EE3CF31F012007D
:02357E001E0E1F
:10358000F66E000EF76E000EF86E00010900F550A1
:10359000906F0900F550916F03E1906701D03DD025
:1035A0000900F5508B6F0900F5508C6F0900F5503C
:1035B0008D6F09000900F550E96E0900F550EA6EBB
:1035C000090009000900F5508E6F0900F5508F6F52
:1035D00009000900F6CF92F0F7CF93F0F8CF94F0FE
:1035E0008BC0F6FF8CC0F7FF8DC0F8FF00018E5333
:1035F00002E18F5307E00900F550EE6E8E07F8E206
:103600008F07F9D792C0F6FF93C0F7FF94C0F8FF79
:0C36100000019007000E915BBFD7120074
:04361C00D9CFE6FF1D
:10362000DACFE6FFE1CFD9FFE2CFDAFFE652E6528A
:10363000E652E652D950FB0F006EFF0EDA20016E03
:1036400000C0DEFFDD6EDECFE6FFDDCFE6FFFB0E66
:10365000DBCFE6FFFC0EDBCFE6FFFD0EDBCFE6FFA8
:10366000A0C0E6FFA1C0E6FF3EEC00F0006E070E32
:10367000E15C02E2E16AE552E16E0050020EF3CF36
:10368000DBFF030EF4CFDBFF020EDBCF00F0030EF7
:10369000DBCF01F000C0F3FF01C0F4FF040EE15CDA
:1036A00002E2E16AE552E16EE552E5CFDAFFE7CFEB
:0436B000D9FF12002C
:0C36B400D9CFE6FFDACFE6FFE1CFD9FF67
:1036C000E2CFDAFFFB0EDBCF00F0FC0EDBCF01F028
:1036D0000001800E01141AE1FB0EDBCFE9FFFC0EA6
:1036E000DBCFEAFFEECFF3FFEDCFF4FFEE2A000EC3
:1036F000EF22F3CFE9FFF4CFEAFFFD0EDBCFEFFFC0
:10370000EF50016AF36E01C0F4FF10D0FB0EDB50E6
:10371000FE0806E1FD0EDBCFE6FFC3EC1EF005D090
:10372000FD0EDBCFE6FF03EC00F0E552E552E5CFFE
:08373000DAFFE7CFD9FF120018
:08373800D9CFE6FFDACFE6FF6E
:10374000E1CFD9FFE2CFDAFF726A716AFD0EDBB01A
:103750007288DBA202D0728C718CDBB4728EDBA615
:1037600002D0718801D0718ADBA802D0728401D0A6
:103770007294DBBA7186DBAC02D0A38A01D0A39A23
:10378000DBAE02D0A38801D0A398FB0EDB50756E90
:10379000FC0EDBCF01F001C000F0016A0050766E34
:1037A000728A718EE552E5CFDAFFE7CFD9FF1200BA
:1037B000D9CFE6FFDACFE6FFE1CFD9FFE2CFDAFFDC
:1037C000AC6AAB6AFD0EDBB0AC88DBA202D0AC8C7D
:1037D000AB8CDBB4AC8EDBA602D0AB8801D0AB8A5D
:1037E000DBB8AC84DBBAAB86DBAC02D09D8A01D0FF
:1037F0009D9ADBAE02D09D8801D09D98FB0EDB50D8
:10380000AF6EFC0EDBCF01F001C000F0016A00508A
:10381000B06EAC8AAB8EE552E5CFDAFFE7CFD9FFC9
:02382000120094
:0E3822002E503302F3CF2AF0F4CF2BF03402F5
:10383000F3502B26000EF4202C6E2E503502F35040
:103840002C26000EF4202D6E2E503602F3502D261D
:103850002F503302F3502B26F4502C22000E2D2231
:103860002F503402F3502C26F4502D222F503502C5
:10387000F3502D2630503302F3502C26F4502D22D5
:1038800030503402F3502D2631503302F3502D26A0
:02389000120024
:0E389200D9CFE6FFDACFE6FFE1CFD9FFE2CFD4
:1038A000DAFFC26AC16AC06AFC0EDB507C0BC26ED2
:1038B000FB0EDB50C16EFD0EDB50040DF350380BD8
:1038C000016EFD0EDB380F0B070B006EFD0EDB509B
:1038D000800B00100110C06EFC0EDBAE03D09E9C6E
:1038E0009D8CF28CC280E552E5CFDAFFE7CFD9FF9D
:0238F0001200C4
:0E38F200D9CFE6FFE1CFD9FF020EE126A2C03A
:10390000E6FFA3C0E6FFFDEC0EF0E552E552F3CF73
:10391000DEFFF4CFDDFF9EC0A2F09FC0A3F0D9CFA1
:10392000E9FFDACFEAFFE80ED880EE54030EED543B
:1039300002E2DE6ADD6A020EE15C02E2E16AE55261
:0A394000E16EE552E7CFD9FF120057
:06394A00D9CFE6FFDACF41
:10395000E6FFE1CFD9FFE2CFDAFFFC0EDB50F30B3D
:10396000B46EFD0EDB507F0BE824B16EB36AB26A11
:10397000A192A492FD0EDBAE02D0A08201D0A09253
:10398000FC0EDBA402D0A38201D0A392B4BEB48605
:0E399000B180E552E5CFDAFFE7CFD9FF120094
:02399E00D9CF7F
:1039A000E6FFDACFE6FFE1CFD9FFE2CFDAFFF09210
:1039B000FD0EDBA202D0F18801D0F198DBA002D08D
:1039C000F18E01D0F19E9384DBAC02D0F18001D066
:1039D000F190DBAC02D0F08E01D0F09EDBAE02D0D5
:1039E000F08801D0F098E552E5CFDAFFE7CFD9FFB4
:0239F0001200C3
:0E39F200D9CFE6FFDACFE6FFE1CFD9FFE2CF73
:103A0000DAFFF090FD0EDBA202D0F18A01D0F19A2C
:103A1000DBA002D0F18E01D0F19EDBAC02D0F180B0
:103A200001D0F190DBAC02D0F08C01D0F09C9382FD
:103A3000DBAE02D0F08601D0F096E552E5CFDAFF9A
:063A4000E7CFD9FF1200E0
:0A3A4600D9CFE6FFDACFE6FFE1CFAB
:103A5000D9FFE2CFDAFFFF0EE76EFC0EDBCF00F0FE
:103A6000E75000160050A96EFB0EDB50A86EA69E14
:103A7000A69CA684F29E550EA76EAA0EA76EA682DD
:103A8000A6B2FED7F28EA694E552E5CFDAFFE7CFD5
:043A9000D9FF120048
:0C3A9400D9CFE6FFDACFE6FFE1CFD9FF83
:103AA000E2CFDAFFF292FD0EDBA202D0F18C01D060
:103AB000F19CDBA002D0F18E01D0F19E9380DBACB3
:103AC00002D0F18001D0F190DBAE02D0F28801D0BB
:0E3AD000F298E552E5CFDAFFE7CFD9FF1200FA
:023ADE002D6A4F
:103AE0002C6A2B6A2A6A200EE76ED8902E362F3663
:103AF000303631362A362B362C362D3633502A5C6A
:103B000034502B5835502C5836502D5809E333502B
:103B10002A5E34502B5A35502C5A36502D5A2E2AA4
:063B2000E72EE4D71200BD
:0A3B2600D9CFE6FFDACFE6FFE1CFCA
:103B3000D9FFE2CFDAFFFF0EE76EFC0EDBCF00F01D
:103B4000FD0EDBCF01F0E7500016016A0050A96EB0
:103B5000A69CA69EA68000000000A85000D0E552BA
:0A3B6000E5CFDAFFE7CFD9FF12002E
:063B6A00D9CFE6FFDACF1F
:103B7000E6FFE1CFD9FFE2CFDAFFE652E652B250DC
:103B8000DF6E010EB3CFDBFFDECF00F0DDCF01F043
:103B900000C0F3FF01C0F4FFE552E552E552E5CF66
:083BA000DAFFE7CFD9FF1200A4
:083BA800D9CFE6FFDACFE6FFFA
:103BB000E1CFD9FFE2CFDAFFFD0EDB50FB0B0F01A7
:103BC000516F536B7E90FD0EDBAE02D07D8001D035
:103BD0007D905185E552E5CFDAFFE7CFD9FF12009E
:103BE000D9CFE6FFDACFE6FFE1CFD9FFE2CFDAFFA8
:103BF000E652E652FC0EDBCFDEFFDBCFDDFF010E2F
:103C0000DB50B36EDF50B26EE552E552E552E5CFC0
:083C1000DAFFE7CFD9FF120033
:083C1800D9CFE6FFDACFE6FF89
:103C2000E1CFD9FFE2CFDAFFFD0EDB507F0BD56E7F
:103C3000D76AD66AF294FD0EDBAE02D0F28A01D0CA
:103C4000F29AD58EE552E5CFDAFFE7CFD9FF120021
:103C5000FF0EE3503D6EEF0E01D0F30EE76EE72E40
:103C60002FEF1EF00C0E3C6EE76AE72E35EF1EF0CC
:0E3C70003C2E34EF1EF03D2E2DEF1EF0120004
:023C7E00D9CF9C
:103C8000E6FFDACFE6FFE1CFD9FFE2CFDAFFACAC57
:103C900004D0AC900001A4B3AC80FD0EDB50AD6E3F
:0C3CA000E552E5CFDAFFE7CFD9FF1200B4
:043CAC00D9CFE6FF87
:103CB000DACFE6FFE1CFD9FFE2CFDAFFFD0EDB502E
:103CC0007C0B006E830EC2140010C26EC282E552DD
:0A3CD000E5CFDAFFE7CFD9FF1200BD
:063CDA002D6A2C6A100E99
:103CE000E76ED890303631362C362D3635502C5C78
:103CF00036502D5805E335502C5E36502D5A302A5B
:063D0000E72EF0D71200CF
:0A3D0600F36AF46AFF0EE124E96E8F
:103D1000FF0EE220EA6EED6607D02F0EEF6404D0AE
:0A3D20003A0EEF6001D0F32A120002
:063D2A00FF0EE3503D6EA8
:103D3000480E01D04C0EE76EE72EFED7E76AE72E5D
:0A3D4000FED73D2EF7D70000120059
:063D4A00000EF36E00EE16
:103D500000F0060E01D81200EA6002D0EE6AFCD72D
:0A3D6000F350E9601200EE6AFCD790
:063D6A0015EE00F025EE4D
:103D700000F0F86A299CBFEC1AF0F8EC1EF0ADECEC
:063D800017F0FBD7120052
:0A3D8600FF0EE350ACBA04D0AF6AA0
:103D9000AB8EAC8A949CACA2FED7AD6EF36EF46A87
:023DA00012000F
:0E3DA200FF0EE350E84E1200000000D000D0EB
:083DB00000D0E82EFAD7120042
:083DB800C450036E026AC350FF
:0A3DC0000210F36E03C0F4FF1200BE
:063DCA00303132333435C4
:0B3DD0003637383961626364656600B5
:053DDB002F722F6E2580
:023DE00064007D
:073DE2000D0A256464440092
:063DEA00A6B2FED7120094
:023DF0001200BF
:023DF2000000CF
:023DF400FEFFD0
:053DF6000000000000C8
:023DFB000000C6
:020000040030CA
:0100010038C6
:0100020018E5
:010003003CC0
:01000500BF3B
:0100060001F8
:01000B00E014
:00000001FF
