:020000040000FA
:0600000031EF11F01200C7
:020006001200E6
:06000800ECEF10F0120005
:02000E00C250DE
:08001000020B01E0010E1200D9
:06001800F5EF10F01200EC
:02001E000200DE
:10002000EE2200008100000005000000EC2200002C
:08003000860000000200000040
:0800380058EC05F0FB0EDBCFD4
:10004000F3FFDB06F35000090AE0A6EC05F0FA0E18
:1000500011EC06F0F3E1151CF1E1010E01D0000EE8
:1000600087EF05F058EC05F03B0EE12402E3E16870
:10007000E652E16E010EDB6A020EDB6AF90EDBCF9F
:10008000F6FFFA0EDBCFF7FFFB0EDBCFF8FF080021
:10009000F550DF6EDF5002E1ABEF04F0250EDF5CC0
:1000A00002E09EEF04F0030EDB6A040EDB6A050E2D
:1000B000DB6A060EDB6A070EDB6AC0EC04F02D0E6D
:1000C000DF5C0CE02B0EDF5C09E0200EDF5C06E05D
:1000D000230EDF5C03E0300EDF5C1AE1DF50300AF4
:1000E00014E0130A0FE0030A0AE00B0A05E0060A0F
:1000F000E4E1030EDB80E1D7030EDB82DED7030EE3
:10010000DB84DBD7030EDB86D8D7030EDB88D5D79D
:100110002A0EDF5C1BE1BCEC04F00AEC05F010E0F9
:10012000030EDB8008680968130EDBCF0DF0140E98
:10013000DBCF0EF0A4EC0DF0040E06C0DBFF03D005
:10014000130EF3EC04F0C0EC04F00BD0090EDB6AE4
:1001500061EC05F003E0D5EC05F0FAD7090EF3ECFD
:1001600004F0030EDBB0DB982E0EDF5C1BE1C0EC6D
:1001700004F02A0EDF5C0BE1BCEC04F00AEC05F0A5
:1001800003E1130E45EC05F0C0EC04F00BD0090EB2
:10019000DB6A61EC05F003E0D5EC05F0FAD7090E57
:1001A00045EC05F0680EDF5C07E1C0EC04F0680E7A
:1001B000DF5C1DE1030E18D0740EDF5C17E07A0ED1
:1001C000DF5C14E0480EDF5C06E0540EDF5C03E009
:1001D0005A0EDF5C02E1020E07D06C0EDF5C03E01A
:1001E0006A0EDF5C04E1010E98EC05F0C9DBDF501C
:1001F0006E0A01E17FD31E0A01E192D1200A01E1DA
:100200008FD13F0A01E149D11A0A01E146D10D0A15
:1002100001E143D1200A01E140D13A0A01E13DD197
:10022000200A01E13AD1260A01E135D10D0A01E1A6
:1002300032D11A0A01E1D9D0200A4AE0300A1FE07F
:10024000460A0EE0250A01E083D3D950F90FE96E82
:10025000FF0EDA20EA6E010EEE5E000EEE5AEE5A46
:10026000A6EC05F0250EE66E95DB03E1151C01E119
:1002700069D3A2EC05F001E26BD3DB2A69D3080E47
:10028000DB6A040EDB50010806E2040EDB046AECB4
:1002900005F0DB508BDB080EDB5009E0030EDB5072
:1002A000010B05E172DB01E04DD3080EDB6A64DB74
:1002B000EFCFDFFF1AEC06F003E1151C01E142D39A
:1002C000A2EC05F001E3DB2A60DB01E141D33AD384
:1002D000070EDB5002080FE1E6EC05F0030EADEC73
:1002E00005F00E0EEECFDBFF0F0EEECFDBFF100E94
:1002F000EECFDBFF20D0F70EDBCF17F0F80EDBCF11
:1003000018F0020E175E000E185AF70E17C0DBFF2A
:10031000F80E18C0DBFF17C0E9FF18C0EAFF9DEC1C
:1003200005F0166A0E0E14C0DBFF0F0E15C0DBFFC2
:10033000100E16C0DBFF0E0EDBCFE6FF0F0EDBCF7D
:10034000E6FF100EDBCFE6FFF1EC0FF0E552E552D1
:10035000E552130E07C0DBFF140E08C0DBFF060ECC
:10036000DB5005E0130EE1EC05F001E26ADB05EC81
:1003700006F002E2130E37DBC8EC05F006E0040ECF
:10038000E1EC05F002E2050E2EDB030EDBB005D03A
:10039000FCDA01E0D7D2080EDB6A090EDB6A0E0E2A
:1003A000DBCFF6FF0F0EDBCFF7FF100EDBCFF8FF32
:1003B0000800F550DF6EDF5014E00BEC06F011E2A0
:1003C0001AEC06F003E1151C01E1BCD2BBDB01E332
:1003D000DB2A090EDB2AD9500E0FE96E000ECBDBAB
:1003E000E7D7D3DA01E1B4D2ADD2C6DA110EEECF3F
:1003F000DBFF120EEDCFDBFF110EDBCFE6FF120E9F
:10040000DBCFE6FFE3EC0FF0E552E552130EF3CF3E
:10041000DBFF140EF4CFDBFF060EDB5004E0130EFF
:10042000D0DB01E20EDB05EC06F002E2130EDBDAB4
:10043000AFDB05E0040EC5DB02E2050ED4DA030EE5
:10044000DBB005D0A2DA01E07DD2080EDB6A090E2E
:10045000DB6A110EDBCFE9FF120EDBCFEAFFEFCF35
:10046000DFFFDF5014E0D7DB12E2E4DB03E1151C11
:1004700001E168D267DB01E3DB2A090EDB2A110EFA
:10048000DB2ADBCFE9FF120EE8E3DB2AE6D77DDAD1
:1004900001E15ED257D2030EDB8E070EDB0410E1C2
:1004A00095DB040E5ADB0A0EEECFDBFF0B0EEECF10
:1004B000DBFF0C0EEECFDBFF0D0EEECFDBFF6CD0C3
:1004C000070EDB5003082CE1030EDBAE0DD0B2DAD1
:1004D000020E76DAEFCF14F0156A166A176A14AEB8
:1004E00039D01568166835D0F70EDBCF15F0F80E49
:1004F000DBCF16F0020E155E000E165AF70E15C071
:10050000DBFFF80E16C0DBFF15C0E9FF16C0EAFFDF
:10051000EFCF14F00A0E14C0DBFF0B0EDB6A38D0ED
:10052000070EDB50020809E1030EDBAE04D059DBF5
:1005300016AE10D00ED055DB0DD0030EDBAE12D0B0
:1005400079DA020E3DDAF9DA166A176A15AE02D0C8
:1005500016681768E2DA0C0E16C0DBFF0D0E17C026
:10056000DBFF1AD0F70EDBCF16F0F80EDBCF17F05B
:10057000020E165E000E175AF70E16C0DBFFF80EBD
:1005800017C0DBFF16C0E9FF17C0EAFFD6DAC5DAED
:100590000C0EDB6A0D0EDB6A060EDB5005E1010E68
:1005A000F36E050EF3CFDBFF150EDB6A160EDB6A6A
:1005B000D950370F146E000EDA20156E390E14C0A4
:1005C000DBFF3A0E15C0DBFF380EDB6A080EDB6A74
:1005D0000A0EAEDADF50780A12E0200A10E0280A8C
:1005E0000CE0200A0AE03F0A06E00D0A02E0200AB9
:1005F00008E1020E05D0080E03D0080EDF26100E0B
:1006000097DA030EDBBE02D0DB92DB94DB50800B6B
:1006100024E08ADAD890030EEB50000A08E6000EB8
:10062000EE5C000EEE58000EEE58000EEE5815E28D
:1006300013DA0B680C680D680E68ABEC0FF00A0E4D
:1006400002C0DBFF0B0E03C0DBFF0C0E04C0DBFFA0
:100650000D0E05C0DBFF2D0E08D0030EDBA202D06D
:100660002B0E03D0DBA408D0200EF36E170EF3CFB1
:10067000DBFF150EDB2A02D0170EDB6A050EDB50FE
:1006800003E1B7D901E189D0C20E146E220E156EB6
:10069000000E166E070EDBCF17F0186A196A1A6A79
:1006A00017C00BF018C00CF019C00DF01AC00EF0F6
:1006B000D3D96DEC10F014500224F36E15500320C2
:1006C000F46E16500420F86EF4CFF7FFF3CFF6FF68
:1006D0000800090EF5CFDBFF580EDF5C0FE1610E5D
:1006E000F36E090E7BD90AE3200E146E090EDBCFE0
:1006F000E7FF1450E75E090EE7CFDBFF070EDBCF05
:1007000014F0156A166A176A0FDA14C00BF015C0D8
:100710000CF016C00DF017C00EF0EECF06F0EECFC5
:1007200007F0EECF08F0EFCF09F06DEC10F009C044
:10073000EDFF08C0EDFF07C0EDFF06C0EFFF390E6B
:10074000DBCFE9FFDB063A0EDBCFEAFF01E2DB0697
:10075000090EDBCFEFFF150EDB2A4BD995E1030E17
:10076000DBA61DD06F0EDF5C06E1C1D918E3150EC4
:10077000DB285BDA14D0780EDF5C09E0580EDF5C12
:1007800006E0620EDF5C03E0420EDF5C08E1020E71
:10079000F36E160EF3CFDBFF02D0150EDB6A030EED
:1007A000DB50100B0EE0040EDBCF14F0050EDB5017
:1007B000D880145406E2060EDB5003E1040EDB5031
:1007C00034DA95D90AE2050EDBCFE7FF150EDB50D0
:1007D000E75E050EE7CFDBFF02D0050EDB6A040EF5
:1007E000DBCF14F0160E45D9D880145414E2160E3F
:1007F000DBCFE6FF150EDBCFE6FF040EDBCFE6FF17
:10080000050EDB50E552E75CE552D880E754E5522F
:10081000D880E7545FD9030EDB50010B0BE1080EC3
:10082000DB5008E0B2D801E08DD0080EDB50BED816
:10083000080EDB6A170EDB5007E088D9170EF1D9D6
:1008400003E1151C01E17ED0160EDB5016E07ED9C7
:10085000300EE66E9FD802E1151C74E077D9DFCF29
:10086000E6FF30EC0FF0E552E552E552F4CF15F01B
:100870000001F31C02E1151C65E0050EDBCF14F04E
:10088000160EDB50D880145409E2050EDBCFE7FFCB
:10089000160EDB50E75E050EE7CFDBFF300EE66E8F
:1008A000050ECBD94FE1390EDB2ADBCFE9FF3A0E3B
:1008B00001E3DB2ADBCFEAFF090EEFCFDBFFDB50E2
:1008C0000EE044D9090EADD902E1151C3BE0390E0A
:1008D000DB2ADBCFE9FF3A0EEDE3DB2AEBD755D875
:1008E00031E1160EDBCFE6FF080EC3D8E552E72450
:1008F0005DD82ED0070EDB50030A1CE0010A14E07D
:10090000030A07E07BD9DBCFEEFF020EDBCFEDFF62
:100910001FD0F5D8196A17AE02D0186819682CD8FC
:10092000BCD819C0EEFF14D0EAD817BE186824D876
:10093000B4D80ED063D9DBCFEFFF0AD07BD905E165
:10094000151C03E1F368F46810D0FCD801E3DB2A3E
:1009500079D947EF00F0010EDBCF14F0020EDBCFA8
:1009600015F014C0F3FF15C0F4FF3B0EE15C02E28A
:10097000E16AE552E16ECBD029D9020EADEF05F068
:1009800061D90800F550DF6E1200200EE66E080EE9
:100990001DEF06F030EC0FF0E552E552E552F3CFD3
:1009A00014F0F4CF15F00001F31C1200146E156A58
:1009B000D950010F4DD91450EE261550ED221200DA
:1009C000185E000E195AF70E18C0DBFFF80E19C09A
:1009D000DBFF18C0E9FF19C0EAFF1200DBCFF4FF0C
:1009E000F350F45C1200DB50E76E040EE7CFDBFF40
:1009F00012000A0EDBCF14F00B0EDBCF15F00C0E3D
:100A0000DBCF16F00D0EDBCF17F0145015101610BB
:100A100017101200130EEECFDBFF140EEDCFDBFF2D
:100A2000130EDBCF14F0140EDBCF15F00001800E97
:100A300015141200F70EDBCF18F0F80EDBCF19F00B
:100A40001200050EDB50E66ED950130F01D9E552A6
:100A5000E750EE6EED6A12000A0EDBCF06F00B0EC9
:100A6000DBCF07F00C0EDBCF08F00D0EDBCF09F06B
:100A70001200DBCFE6FF150EDBCFE6FF050EDB50E5
:100A8000E552E724E552E7241200DB50CED8010EF0
:100A9000F36E060EF3CFDBFF1200EE50EFCFEAFF4E
:100AA000E96E16C0EEFF17C0EEFF18C0EEFF120091
:100AB000D9CFE6FFDACFE6FFE1CFD9FFE2CFDAFF09
:100AC0001200DFCFE6FFE66AFFEC10F0E552E552D8
:100AD000F3501200E76E080EE7CFDBFF1200EECFF7
:100AE00014F0EECF15F0EFCF16F0176A1200050ED6
:100AF000DBCF14F0150EDB50D88014541200010E19
:100B0000DBCF16F0020EDBCF17F0186A1200E552A9
:100B1000E5CFDAFFE7CFD9FF12000A0E14C0DBFFE2
:100B20000B0E15C0DBFF1200D9500A0F28EF06F09C
:100B3000F36E070EF3CFDBFF1200EECF14F0EFCF12
:100B400015F01200010EDB2A020E1200FC0EDBCFA4
:100B5000E6FFFD0EDBCFE6FF1200145E000E155A15
:100B6000F70E14C0DBFFF80E15C0DBFF14C0E9FF61
:100B700015C0EAFF1200DA20EA6EEF2AEECFF6FF88
:100B8000000EEF22EECFF7FFEF22EECFF8FF1200BC
:100B9000040EDBCFE6FF130EDB50E552E75C9ADF75
:100BA000DB5004DF060EDB501200090EDB500A0D8D
:100BB000F350DF24D00FE76E090EE7CFDBFFC0EF65
:100BC00004F0DB50F36E050EEEEF04F0F70EDBCF12
:100BD00014F0F80EDBCF15F01200DFCFE6FFCAEFFE
:100BE00004F028DF030EECDE6FEF05F01CEC00F0E4
:100BF000E552E552E552E55200091200BDDEEE5025
:100C0000EFCFEAFFE96E010E1200130EDB50F36E18
:100C1000040EEEEF04F0040EDB50F36E090EEEEF5F
:100C200004F0DBCFE6FFCAEF04F0E76E050EE7CF76
:100C3000DBFF12008BDFEDEF05F0DBCFE6FF86DF99
:100C4000F6EF05F0D950F90FE96EFF0EBBEF05F096
:0A0C5000E96E000EDA20EA6E1200D1
:060C5A00D9CFE6FFE1CF57
:100C6000D9FF140EE126DE6ADE6ADE6ADD6ADD5235
:100C7000DD52040EDB6A050EDB6A060EDB6A070E28
:100C8000DB6A080EDB6A090EDB6A0A0EDB6A0B0EF2
:100C9000DB6A0C0EDB6A0D0EDB6A0E0EDB6A0F0ED2
:100CA000DB6A89888C908C928B90899CD00EE66E42
:100CB000070EE66EBBEC0CF0E552E5528C82DC0EC2
:100CC000E66E050EE66EBBEC0CF0E552E552898C43
:100CD000100EDB6A110EDB6A120EDB6A130EDB6A82
:100CE000D950100FE96EDACFEAFFD890030EEB501F
:100CF000000A08E6140EEE5C000EEE58000EEE58E8
:100D0000000EEE5848E2870EE66E9BEC0CF0E552C2
:100D1000F3CF14F0F4CF15F0D950040FE96EDACF09
:100D2000EAFF1450EE261550ED22930EE66E9BEC72
:100D30000CF0E552F3CF14F0F4CF15F0D9500A0FB0
:100D4000E96EDACFEAFF1450EE261550ED22830E3D
:100D5000E66E9BEC0CF0E552F3CF14F0F4CF15F0F7
:100D6000D9500C0FE96EDACFEAFF1450EE26155079
:100D7000ED22320EE66EE66ABBEC0CF0E552E5526F
:100D8000D950100FE96EDACFEAFFEE2A000EEE22FC
:100D9000EE22EE22A5D7D950040FE96EDACFEAFF92
:100DA000140E0D6E0E6AEECF08F0EDCF09F04AEC8E
:100DB0000DF008C0EEFF09C0EDFFD9500A0FE96E33
:100DC000DACFEAFF140E0D6E0E6AEECF08F0EDCF0B
:100DD00009F04AEC0DF008C0EEFF09C0EDFFD95054
:100DE0000C0FE96EDACFEAFF140E0D6E0E6AEECF2D
:100DF00008F0EDCF09F04AEC0DF008C0EEFF09C095
:100E0000EDFF8C92899C8C80DC0EE66E050EE66E02
:100E1000BBEC0CF0E552E552898C100EDB6A110E2A
:100E2000DB6A120EDB6A130EDB6AD950100FE96E13
:100E3000DACFEAFFD890030EEB50000A08E6B80EAE
:100E4000EE5C0B0EEE58000EEE58000EEE582BE244
:100E5000830EE66E9BEC0CF0E552F3CF14F0F4CF6A
:100E600015F0166A176A15AE02D016681768145086
:100E7000DE261550DE221650DE221750DD22DD520E
:100E8000DD52010EE66EE66ABBEC0CF0E552E5526F
:100E9000D950100FE96EDACFEAFFEE2A000EEE22EB
:100EA000EE22EE22C2D70C0EDBCF14F00D0EDBCFFC
:100EB00015F0166A176A15AE02D016681768D9CFF2
:100EC000E9FFDACFEAFF1450EE5E1550EE5A1650E5
:100ED000EE5A1750EE5AD9CFE9FFDACFEAFF840E67
:100EE0000B6E030E0C6E0D6A0E6AEECF06F0EECF9F
:100EF00007F0EECF08F0EFCF09F070EC0DF009C06D
:100F0000EDFF08C0EDFF07C0EDFF06C0EFFFD9CF32
:100F1000E9FFDACFEAFF0E0EEECFDBFF0F0EEDCFCB
:100F2000DBFF8C908B80899CDC0EE66E050EE66EF6
:100F3000BBEC0CF0E552E552898C100EDB6A110E09
:100F4000DB6A120EDB6A130EDB6AD950100FE96EF2
:100F5000DACFEAFFD890030EEB50000A08E6140E31
:100F6000EE5C000EEE58000EEE58000EEE5836E223
:100F7000870EE66E9BEC0CF0E552F3CF14F0F4CF45
:100F800015F0D950060FE96EDACFEAFF1450EE26BD
:100F90001550ED22930EE66E9BEC0CF0E552F3CF6C
:100FA00014F0F4CF15F0D950080FE96EDACFEAFF4C
:100FB0001450EE261550ED22320EE66EE66ABBECBA
:100FC0000CF0E552E552D950100FE96EDACFEAFF86
:100FD000EE2A000EEE22EE22EE22B7D7D950060FEF
:100FE000E96EDACFEAFF140E0D6E0E6AEECF08F04E
:100FF000EDCF09F04AEC0DF008C0EEFF09C0EDFF9F
:10100000D950080FE96EDACFEAFF140E0D6E0E6AA2
:10101000EECF08F0EDCF09F04AEC0DF008C0EEFF7E
:1010200009C0EDFF8988010EE66E4DEC11F0E55226
:101030008C80010EE66E4DEC11F0E5528C828B80B7
:10104000899C82B414D082A611D089988C908C92FD
:101050008B90898CF40EE66E010EE66EBBEC0CF004
:10106000E552E552899CF36AF46A23D1EAD7100E5F
:10107000DB6A110EDB6A120EDB6A130EDB6A040EEA
:10108000DBCFE6FF100EDBCFE6FF110EDBCFE6FF76
:1010900046EC10F0E552E552E55271EC11F0D950F2
:1010A000100FE96EDACFEAFFEE2A000EEE22EE22F2
:1010B000EE22060EDBCFE6FF100EDBCFE6FF110EB1
:1010C000DBCFE6FF46EC10F0E552E552E55271EC5D
:1010D00011F0D950100FE96EDACFEAFFEE2A000EB8
:1010E000EE22EE22EE22080EDBCFE6FF100EDBCF63
:1010F000E6FF110EDBCFE6FF46EC10F0E552E552BD
:10110000E55271EC11F0D950100FE96EDACFEAFF19
:10111000EE2A000EEE22EE22EE220A0EDBCFE6FFD2
:10112000100EDBCFE6FF110EDBCFE6FF46EC10F032
:10113000E552E552E55271EC11F0D950100FE96E0D
:10114000DACFEAFFEE2A000EEE22EE22EE220C0E9D
:10115000DBCFE6FF100EDBCFE6FF110EDBCFE6FFA5
:1011600046EC10F0E552E552E55271EC11F0D95021
:10117000100FE96EDACFEAFFEE2A000EEE22EE2221
:10118000EE220E0EDBCFE6FF100EDBCFE6FF110ED8
:10119000DBCFE6FF46EC10F0E552E552E55271EC8C
:1011A00011F0D950100FE96EDACFEAFFEE2A000EE7
:1011B000EE22EE22EE22898CF40EE66E010EE66E31
:1011C000BBEC0CF0E552E55289988C908C928B9098
:1011D000899C040EDBCFE6FF050EDBCFE6FFD30EC6
:1011E000E66E220EE66E000EE66E9FEC0EF0146EBA
:1011F000050EE15E1450060EDBCFE6FF070EDBCFD7
:10120000E6FFD30EE66E220EE66E000EE66E9FEC53
:101210000EF0146E050EE15E1450080EDBCFE6FFF3
:10122000090EDBCFE6FFD30EE66E220EE66E000E51
:10123000E66E9FEC0EF0146E050EE15E14500A0E81
:10124000DBCFE6FF0B0EDBCFE6FFD30EE66E220E02
:10125000E66E000EE66E9FEC0EF0146E050EE15E7B
:1012600014500C0EDBCFE6FF0D0EDBCFE6FFD30EE6
:10127000E66E220EE66E000EE66E9FEC0EF0146E29
:10128000050EE15E14500E0EDBCFE6FF0F0EDBCF36
:10129000E6FFD30EE66E220EE66E000EE66E9FECC3
:1012A0000EF0146E050EE15E1450010EF36EF46A3A
:1012B00000D0140EE15C02E2E16AE552E16EE55213
:1012C000E7CFD9FF1200D9CFE6FFE1CFD9FF200E3B
:1012D000E126600EDE6E020EDD6E880EF36E020EEB
:1012E000F3CFDBFF030EDB6A6A0EF36E040EF3CF5F
:1012F000DBFF020EF36E050EF3CFDBFF630EF36E22
:10130000060EF3CFDBFF070EDB6A2D0EF36E080E21
:10131000F3CFDBFF010EF36E090EF3CFDBFFCB0E35
:10132000F36E0A0EF3CFDBFF030EF36E0B0EF3CF5B
:10133000DBFF0F0EF36E0C0EF3CFDBFF0D0EDB6A3F
:101340000E0EDB6A0F0EDB6AFD0EDBCF18F0FE0E11
:10135000DBCF19F0DE50185C166EDD501958176E91
:10136000640E086E096A16C00DF017C00EF0A4ECEA
:101370000DF006C014F007C015F014C008F015C039
:1013800009F0020EDBCF0DF0030EDBCF0EF04AECBE
:101390000DF0100E08C0DBFF110E09C0DBFFFB0EC5
:1013A000DBCF18F0FC0EDBCF19F0040EDB50185C1D
:1013B000166E050EDB501958176E640E086E096A1A
:1013C00016C00DF017C00EF0A4EC0DF006C014F01E
:1013D00007C015F014C008F015C009F0060EDBCFE9
:1013E0000DF0070EDBCF0EF04AEC0DF0120E08C028
:1013F000DBFF130E09C0DBFFF90EDBCF18F0FA0E8E
:10140000DBCF19F0080EDB50185C166E090EDB50AE
:101410001958176E9C0E086E096816C00DF017C09B
:101420000EF0A4EC0DF006C014F007C015F014C0C7
:1014300008F015C009F00A0EDBCF0DF00B0EDBCF64
:101440000EF04AEC0DF0140E08C0DBFF150E09C0BB
:10145000DBFFF70EDBCF1AF0F80EDBCF1BF0640ECC
:10146000D8801A56000E1B560A0E0D6E0E6A1AC050
:1014700008F01BC009F04AEC0DF008C01AF009C0D2
:101480001BF0120EDBCF18F0130EDBCF19F0100E8D
:10149000DB501824166E110EDB501920176EF70E54
:1014A000DB50165C146EF80EDB501758156E640E88
:1014B000145E000E155A390E1502F3CF15F0140202
:1014C000F3CF14F0F450152614C008F015C009F03D
:1014D0001AC00DF01BC00EF04AEC0DF0160E08C03D
:1014E000DBFF170E09C0DBFF140EDBCF08F0150E73
:1014F000DBCF09F0F30EDBCF0DF0F40EDBCF0EF0F7
:10150000A4EC0DF006C016F007C017F0640E0D6EC7
:101510000E6A16C008F017C009F04AEC0DF008C0BA
:1015200016F009C017F0F50EDB501624146EF60EF7
:10153000DB501720156E180E14C0DBFF190E15C0F6
:10154000DBFF160EDBCF18F0170EDBCF19F01A6A8F
:101550001B6A19AE02D01A681B6818C006F019C0C1
:1015600007F01AC008F01BC009F00C0EDBCF0BF01F
:101570000D0EDBCF0CF00E0EDBCF0DF00F0EDBCF20
:101580000EF0ABEC0FF002C014F003C015F004C075
:1015900016F005C017F0180EDBCF24F0190EDBCFC4
:1015A00025F0266A276A25AE02D026682768640ED1
:1015B000206E216A226A236AD9500C0FE96EDACFB5
:1015C000EAFFEE50205C1C6EEE5021581D6EEE506E
:1015D00022581E6EEE5023581F6E1CC006F01DC010
:1015E00007F01EC008F01FC009F024C00BF025C092
:1015F0000CF026C00DF027C00EF0ABEC0FF014502D
:101600000224066E15500320076E16500420086E43
:1016100017500520096E640E0B6E0C6A0D6A0E6A77
:1016200070EC0DF01C0E06C0DBFF1D0E07C0DBFFCB
:101630001E0E08C0DBFF1F0E09C0DBFF1C0EDBCF38
:1016400008F01D0EDBCF09F01A0E08C0DBFF1B0EE1
:1016500009C0DBFF1A0EDBCF14F01B0EDBCF15F039
:1016600014C0F3FF15C0F4FF200EE15C03E200D0CC
:0E167000E16AE552E16EE552E7CFD9FF1200C4
:02167E00D9CFC2
:10168000E6FFE1CFD9FF020EE126ACA2FED7720E33
:10169000E66EA8EC10F0E552720EDF6EACA2FED73B
:1016A000FE0EDBCFE6FFA8EC10F0E552FE0EDB509D
:1016B000DF26010EDB6AFB0EDB50F36E010EDBCF83
:1016C000F4FFF350F45C26E2ACA2FED7010EDB502F
:1016D000E76EFC0EDBCFE9FFFD0EDBCFEAFFE75044
:1016E000E926000EEA22EF50E66EA8EC10F0E55273
:1016F000010EDB50E76EFC0EDBCFE9FFFD0EDBCF0A
:10170000EAFFE750E926000EEA22EF50DF26010E3D
:10171000DB2AD1D7ACA2FED7DFCFE6FFA8EC10F0D2
:10172000E552020EE15C02E2E16AE552E16EE55249
:10173000E7CFD9FF1200D9CFE6FFE1CFD9FFE652BC
:10174000DF6AFD0EDB5004E00001816B826B836B6E
:1017500000018151EA6A6D0FE96E000EEA22FE0E69
:10176000DBCFEFFF81510BE1FE0EDB50720802E18F
:10177000000E01D0010E030DF3508327CBD081055D
:1017800001E0B1D0FE0EDBCF84F084519F0A01E16D
:10179000A5D0820A01E19FD0810A01E199D0800A97
:1017A00001E193D0870A01E18DD0810A01E187D060
:1017B000030A01E182D0830A01E17DD0030A01E13D
:1017C00078D0810A73E00F0A6EE0810A6AE0030AAA
:1017D00065E0800A60E0810A5BE0800A56E00A0A60
:1017E00051E00D0A4CE0810A47E0800A42E0830A9A
:1017F0003DE0800A38E0810A33E0800A2EE09F0A4B
:1018000029E0800A24E0010A1FE0030A1AE0010A25
:1018100015E0070A10E0010A0BE0810A06E0010A60
:1018200001E05FD0010E856F5DD0010E856F5AD04B
:10183000010E856F57D0010E856F54D0010E856F54
:1018400051D0020E856F4ED0020E856F4BD0020E26
:10185000856F48D0020E856F45D0020E856F42D04D
:10186000020E856F3FD0020E856F3CD0020E856F51
:1018700039D0020E856F36D0020E856F33D0020E3E
:10188000856F30D0020E856F2DD0020E856F2AD065
:10189000020E856F27D0010E856F24D0010E856F53
:1018A00021D0856B1FD0020E856F1CD0020E856F74
:1018B00019D0856B17D0856B15D0856B13D0010EB1
:1018C000856F10D0010E856F0DD0020E856F0AD086
:1018D000020E856F07D0010E856F04D0010E856F53
:1018E00001D0832B17D08505815D14E1FE0EDB50FE
:1018F000825D02E1000E01D0010EE82483278351AE
:1019000009E184519A0A01E003D070C06CF000D064
:10191000010EDF6EDF5002E1835104E0816B826BC8
:10192000836B04D0FE0EDB508227812BE552E552FB
:06193000E7CFD9FF120011
:0A193600D9CFE6FFE1CFD9FFF30E91
:10194000E66E7F0EE66EE66816EC10F0E552E552A4
:10195000E552FE0EDBCFE6FFBFEC10F0E55207ECE0
:1019600000F0000901E0FBD758EC11F000D0E5527F
:10197000E7CFD9FF1200D9CFE6FFE1CFD9FF060E9E
:10198000E126640E146E156AFD0EDBCF08F0FE0E24
:10199000DBCF09F014C00DF015C00EF0D6EC10F03E
:1019A000020E08C0DBFF030E09C0DBFFFD0EDBCF1C
:1019B00014F0FE0EDBCF15F0640E0D6E0E6A14C02F
:1019C00008F015C009F0D6EC10F004C014F005C002
:1019D00015F00A0E0D6E0E6A14C008F015C009F05D
:1019E000D6EC10F008C014F009C015F0040E14C0B5
:1019F000DBFFFD0EDBCF14F0FE0EDBCF15F00A0E81
:101A00000D6E0E6A14C008F015C009F0D6EC10F087
:101A100004C014F005C015F0050E14C0DBFFDE6A2B
:101A2000DD6ADECF14F0DDCF15F0020EDBCF16F04D
:101A3000030EDBCF17F01650145C175015580AE24E
:101A4000500EE66E91EC10F0E552DF2A010E01E334
:101A5000DB2AE7D7040EDB5008E0040EDB50080D4C
:101A6000F350E66E91EC10F0E552050EDB5008E005
:101A7000050EDB50080DF350E66E11EC11F0E55247
:101A8000060EE15C02E2E16AE552E16EE552E7CF63
:041A9000D9FF120068
:0C1A9400006A0EAE53EF0DF00D6C0E1E3C
:101AA000E86A0E22001E09AE5BEF0DF0086C091EFD
:101AB000E86A0922001ED6EC10F009BE6BEF0DF0AB
:101AC00000AE000C086C091EE86A0922046C051EB1
:101AD000E86A0522000C00BE62EF0DF00188FF0CE1
:101AE000006AE86A0EAE7DEF0DF00B6C0C1E0D1E49
:101AF0000E1E0C220D220E22001E09AE88EF0DF0E4
:101B0000066C071E081E091E072208220922001E55
:101B10006DEC10F009BE9FEF0DF000AE000C066CEE
:101B2000071E081E091EE86A072208220922026C05
:101B3000031E041E051E032204220522000C00BE03
:101B40008FEF0DF00188FF0C09C013F008C012F0F0
:101B500008500D02F4CF07F0F3CF06F009500E0243
:101B6000F4CF09F0F3CF08F00D02F3500726F4503C
:101B70000822E86A092212500E02F3500726F45098
:101B80000822E86A09220EAECAEF0DF01250085E74
:101B90001350095A13AE000C0D50085E0E50095A2E
:021BA000000C37
:0E1BA200D9CFE6FFE1CFD9FF020EE126EBEC32
:101BB0000EF0330EE66EE66A7C0EE66E72EC0FF007
:101BC000E552E552E5529F9A8B82E80EE66E030ECF
:101BD000E66EBBEC0CF0E552E5520A0EE66EE66AE4
:101BE000DECFE6FFDDCFE6FF000EE66EE66A830E8F
:101BF000E66E9BEC0CF0E552F3CF14F0F4CF15F049
:101C000014C0E6FF15C0E6FF930EE66E9BEC0CF0E9
:101C1000E552F3CF16F0F4CF17F016C0E6FF17C069
:101C2000E6FF870EE66E9BEC0CF0E552F3CF18F062
:101C3000F4CF19F018C0E6FF19C0E6FF63EC09F015
:101C40001A6E0C0EE15E1A50F3CFDEFFF4CFDDFF0B
:101C5000640EE66EE66ABBEC0CF0E552E552DECFB0
:101C6000E6FFDDCFE6FFDA0EE66E220EE66E000E30
:101C7000E66E9FEC0EF0146E050EE15E145082A429
:101C800002D02DEC06F0A9D7FFD7FFD7020EE15CFA
:101C900002E2E16AE552E16EE552E7CFD9FF1200B8
:101CA0001E0EF66E000EF76E000EF86E00010900B3
:101CB000F5507C6F0900F5507D6F03E17C6701D022
:101CC0003DD00900F550776F0900F550786F090095
:101CD000F550796F09000900F550E96E0900F550DB
:101CE000EA6E090009000900F5507A6F0900F55005
:101CF0007B6F09000900F6CF7EF0F7CF7FF0F8CFB9
:101D000080F077C0F6FF78C0F7FF79C0F8FF0001D8
:101D10007A5302E17B5307E00900F550EE6E7A0733
:101D2000F8E27B07F9D77EC0F6FF7FC0F7FF80C0DF
:0E1D3000F8FF00017C07000E7D5BBFD712009C
:021D3E00D9CFFB
:101D4000E6FFDACFE6FFE1CFD9FFE2CFDAFFE652D6
:101D5000E652E652E652D950FB0F146EFF0EDA201F
:101D6000156E14C0DEFFDD6EDECFE6FFDDCFE6FFD1
:101D7000FB0EDBCFE6FFFC0EDBCFE6FFFD0EDBCF7D
:101D8000E6FF86C0E6FF87C0E6FF32EC00F0146E87
:101D9000070EE15C02E2E16AE552E16E1450020EC8
:101DA000F3CFDBFF030EF4CFDBFF020EDBCF14F02B
:101DB000030EDBCF15F014C0F3FF15C0F4FF040EC3
:101DC000E15C02E2E16AE552E16EE552E5CFDAFF5D
:061DD000E7CFD9FF12006D
:0A1DD600D398D38AD38CD392D39014
:101DE0009B8CD3A4FED7928092829298928A929CE6
:101DF000929E9380938293869388938C938E9490F3
:101E00009492948494869498949C948E95909592B0
:101E100095949596958A958A959C958E96809682AE
:101E20009684806A816A826A836A846A0F01386B49
:101E3000396B3A6B3B6B3C6B38813883388B3B8B0F
:101E40003C813C833C85330EE66EE66A7C0EE66E92
:101E500072EC0FF0E552E552E5529F9A00D0120065
:101E6000D9CFE6FFDACFE6FFE1CFD9FFE2CFDAFF45
:101E7000FB0EDBCF14F0FC0EDBCF15F00001800E63
:101E800015141AE1FB0EDBCFE9FFFC0EDBCFEAFFF6
:101E9000EECFF3FFEDCFF4FFEE2A000EEF22F3CFEB
:101EA000E9FFF4CFEAFFFD0EDBCFEFFFEF50156A3D
:101EB000F36E15C0F4FF10D0FB0EDB50FE0806E1F8
:101EC000FD0EDBCFE6FF3FEC11F005D0FD0EDBCFC2
:101ED000E6FF74EC11F0E552E552E5CFDAFFE7CF0B
:041EE000D9FF120014
:0C1EE400D9CFE6FFDACFE6FFE1CFD9FF4F
:101EF000E2CFDAFFAC6AAB6AFD0EDBB0AC88DBA2E6
:101F000002D0AC8CAB8CDBB4AC8EDBA602D0AB8841
:101F100001D0AB8ADBB8AC84DBBAAB86DBAC02D0D9
:101F20009D8A01D09D9ADBAE02D09D8801D09D98FC
:101F3000FB0EDB50AF6EFC0EDBCF15F015C014F0BE
:101F4000156A1450B06EAC8AAB8EE552E5CFDAFF5D
:061F5000E7CFD9FF1200EB
:0A1F560006500B02F3CF02F0F4CFA7
:101F600003F00C02F3500326000EF420046E06501A
:101F70000D02F3500426000EF420056E06500E02EA
:101F8000F350052607500B02F3500326F4500422A9
:101F9000000E052207500C02F3500426F4500522CF
:101FA00007500D02F350052608500B02F35004268B
:101FB000F450052208500C02F350052609500B027C
:061FC000F350052612009B
:0A1FC600FE0EE3CFE9FFFF0EE3CFAC
:101FD000EAFFF36AF46AEE5203E0F34AF42AFBD70D
:101FE0001200FF0EE3CFF8FFE552FF0EE3CFF7FF3D
:101FF000E552FF0EE3CFF6FFE552E66AE66AE66ACF
:102000000900F55209E0FD0EE32A05E1FE0EE32A80
:1020100002E1FF0EE32AF4D7FD0EE3CF07F0FE0E38
:0C202000E3CF08F0FF0EE3CF09F0120040
:04202C00D9CFE6FF23
:10203000DACFE6FFE1CFD9FFE2CFDAFFC26AC16AA9
:10204000C06AFC0EDB507C0BC26EFB0EDB50C16E17
:10205000FD0EDB50040DF350380B156EFD0EDB3812
:102060000F0B070B146EFD0EDB50800B14101510B8
:10207000C06EFC0EDBAE03D09E9C9D8CF28CC280A9
:0C208000E552E5CFDAFFE7CFD9FF1200F0
:04208C00D9CFE6FFC3
:10209000DACFE6FFE1CFD9FFE2CFDAFFFF0EE76E3E
:1020A000FC0EDBCF14F0E75014161450A96EFB0E93
:1020B000DB50A86EA69EA69CA684F29E550EA76E27
:1020C000AA0EA76EA682A6B2FED7F28EA694E552FD
:0A20D000E5CFDAFFE7CFD9FF1200D9
:0620DA00056A046A036AB6
:1020E000026A200EE76ED8900636073608360936A3
:1020F00002360336043605360B50025C0C5003588A
:102100000D5004580E50055809E30B50025E0C5058
:10211000035A0D50045A0E50055A062AE72EE4D7EA
:022120001200AB
:0E212200FF0EE350296EEF0E01D0F30EE76EB4
:10213000E72E98EF10F00C0E286EE76AE72E9EEF60
:1021400010F0282E9DEF10F0292E96EF10F01200BF
:10215000D9CFE6FFDACFE6FFE1CFD9FFE2CFDAFF52
:10216000ACAC04D0AC90000188B3AC80FD0EDB5069
:0E217000AD6EE552E5CFDAFFE7CFD9FF1200E2
:02217E00D9CFB7
:10218000E6FFDACFE6FFE1CFD9FFE2CFDAFFFD0EBF
:10219000DB507C0B146E830EC2141410C26EC2820C
:0C21A000E552E5CFDAFFE7CFD9FF1200CF
:0421AC00056A046A52
:1021B000100EE76ED89008360936043605360D50F5
:1021C000045C0E50055805E30D50045E0E50055A90
:0821D000082AE72EF0D71200E7
:0821D800DACFE4FFE2CFDAFFE9
:1021E000E652E552E5CFDAFF1100DACFE4FFE2CFA5
:0E21F000DAFFE652E552E5CFDAFF11001200E9
:0221FE00F36A82
:10220000F46AFF0EE124E96EFF0EE220EA6EED664D
:1022100007D02F0EEF6404D03A0EEF6001D0F32AFE
:022220001200AA
:0E222200FF0EE350296E480E01D04C0EE76E01
:10223000E72EFED7E76AE72EFED7292EF7D7000054
:0222400012008A
:0E224200000EF36E00EE00F0060E01D8120042
:10225000EA6002D0EE6AFCD7F350E9601200EE6A41
:02226000FCD7A9
:0E22620015EE00F025EE00F0F86A019C50EC3D
:0E2270000EF075EC11F0D1EC0DF0FBD7120062
:02227E00FF0E51
:10228000E350ACBA04D0AF6AAB8EAC8A949CACA2DB
:0A229000FED7AD6EF36EF46A120083
:06229A00FF0EE350E84EC8
:1022A0001200000000D000D000D0E82EFAD71200B3
:1022B000C450176E166AC3501610F36E17C0F4FFA1
:0222C00012000A
:0E22C200303132333435363738396162636477
:0322D00065660040
:0722D3002F722F6E2564003D
:0622DA000D0A25646444B6
:0122E00000FD
:0622E200A6B2FED71200B7
:0222E8001200E2
:0222EA001200E0
:0222EC00FEFFF3
:0222EE000000EE
:0322F000000000EB
:020000040030CA
:0100010038C6
:0100020019E4
:010003003CC0
:01000500BF3B
:0100060001F8
:01000B00E014
:00000001FF
