:020000040000FA
:06000000F2EF2DF01200EA
:020006001200E6
:0600080064EF28F0120075
:02000E00C250DE
:08001000020B01E0010E1200D9
:06001800BEEF28F012000B
:02001E000400DC
:100020006D5C0000BA0000000C000000685C00007D
:10003000E100000005000000665C0000E800000030
:1000400002000000645C0000E60000000200000006
:100050008150100B01E0010EE66EF050010BE66ED0
:1000600042DBE552E5520001706F700519E160C096
:100070002FF061C030F062C031F063C032F0346AFA
:10008000356A800E366E3F0E376E04EC19F02FC0C5
:1000900060F030C061F031C062F032C063F01AD05D
:1000A000705118E164C02FF065C030F066C031F0C7
:1000B00067C032F0346A356A800E366E3F0E376E96
:1000C00003EC19F02FC064F030C065F031C066F069
:1000D00032C067F00001682B000E69236A236B238E
:1000E00012008150080B01E0010EE66EF050020B89
:1000F00001E0010EE66EF7DAE552E5520001716F9C
:10010000710519E160C02FF061C030F062C031F0BC
:1001100063C032F0346A356A800E366E3F0E376E39
:1001200004EC19F02FC060F030C061F031C062F013
:1001300032C063F01AD0715118E164C02FF065C06D
:1001400030F066C031F067C032F0346A356A800E34
:10015000366E3F0E376E03EC19F02FC064F030C0DE
:1001600065F031C066F032C067F000016C2B000E04
:100170006D236E236F2312000001606B616B626B55
:10018000636B646B656B666B676B686B696B6A6BE3
:100190006B6B6C6B6D6B6E6B6F6B706B716B726B93
:1001A000736B746B756B766B776B786B796B7A6B43
:1001B0007B6B7C6B7D6B7E6B7F6B806B816B826BF3
:1001C000836B846B856B866B876B886B896B8A6BA3
:1001D0008B6B8C6B8D6B8E6B8F6B906B916B926B53
:1001E000936B946B956B966B976B986B996B1200F6
:1001F000D9CFE6FFE1CFD9FF200EE12660C0E6FFB0
:1002000061C0E6FF62C0E6FF63C0E6FF88DAE55240
:10021000E552E552E5522EC0DEFF2FC0DEFF30C0B2
:10022000DEFF31C0DDFFDD52DD5264C0E6FF65C098
:10023000E6FF66C0E6FF67C0E6FF71DAE552E55209
:10024000E552E552040E2EC0DBFF050E2FC0DBFF8A
:10025000060E30C0DBFF070E31C0DBFF6CC0E6FFCF
:100260006DC0E6FF6EC0E6FF6FC0E6FF68C0E6FF48
:1002700069C0E6FF6AC0E6FF6BC0E6FF75DB006E93
:10028000080EE15E0050080E2EC0DBFF090E2FC0E5
:10029000DBFF0A0E30C0DBFF0B0E31C0DBFF0C0EA4
:1002A000DBCF82F00D0EDBCF83F00E0EDBCF84F0C0
:1002B0000F0EDBCF85F0100EDBCF86F0110EDBCFFB
:1002C00087F0120EDBCF88F0130EDBCF89F0D95008
:1002D000FB0FE96EFF0EDA20EA6EEECFE6FFEECFFF
:1002E000E6FFEECFE6FFEFCFE6FF76C0E6FF77C092
:1002F000E6FF78C0E6FF79C0E6FF60C0E6FF61C0B8
:10030000E6FF62C0E6FF63C0E6FF97EC05F0006E13
:100310000C0EE15E00500C0E2EC0DBFF0D0E2FC048
:10032000DBFF0E0E30C0DBFF0F0E31C0DBFFD950FC
:10033000FB0FE96EFF0EDA20EA6EEECFE6FFEECF9E
:10034000E6FFEECFE6FFEFCFE6FF72C0E6FF73C039
:10035000E6FF74C0E6FF75C0E6FF64C0E6FF65C057
:10036000E6FF66C0E6FF67C0E6FFE1DB006E0C0E4D
:10037000E15E0050100E2EC0DBFF110E2FC0DBFF20
:10038000120E30C0DBFF130E31C0DBFF60C076F011
:1003900061C077F062C078F063C079F064C072F039
:1003A00065C073F066C074F067C075F00C0EDBCFEB
:1003B0007AF00D0EDBCF7BF00E0EDBCF7CF00F0E54
:1003C000DBCF7DF0100EDBCF7EF0110EDBCF7FF0A8
:1003D000120EDBCF80F0130EDBCF81F08AC08EF0DF
:1003E0008BC08FF08CC090F08DC091F07EC0E6FF86
:1003F0007FC0E6FF80C0E6FF81C0E6FF7AC0E6FF6F
:100400007BC0E6FF7CC0E6FF7DC0E6FF36EC06F071
:10041000006E080EE15E00502EC08AF02FC08BF0F7
:1004200030C08CF031C08DF0140E8AC0DBFF150E89
:100430008BC0DBFF160E8CC0DBFF170E8DC0DBFF01
:100440008AC0E6FF8BC0E6FF8CC0E6FF8DC0E6FFEA
:10045000140EE66E6E0EE66EA20EE66E430EE66EAD
:100460001DEC07F0006E080EE15E0050180E2EC065
:10047000DBFF190E2FC0DBFF1A0E30C0DBFF1B0E97
:1004800031C0DBFF92C096F093C097F094C098F013
:1004900095C099F0D950FB0FE96EFF0EDA20EA6E95
:1004A000EECFE6FFEECFE6FFEECFE6FFEFCFE6FFC3
:1004B000AAC0E6FFABC0E6FFACC0E6FFADC0E6FFFA
:1004C0008EC0E6FF8FC0E6FF90C0E6FF91C0E6FF5A
:1004D0008AC0E6FF8BC0E6FF8CC0E6FF8DC0E6FF5A
:1004E00096C0E6FF97C0E6FF98C0E6FF99C0E6FF1A
:1004F000B7EC07F0006E140EE15E00501C0E2EC02B
:10050000DBFF1D0E2FC0DBFF1E0E30C0DBFF1F0EFA
:1005100031C0DBFF1C0EDBCF92F01D0EDBCF93F062
:100520001E0EDBCF94F01F0EDBCF95F0D950FB0FE2
:10053000E96EFF0EDA20EA6EEECFE6FFEECFE6FFC1
:10054000EECFE6FFEFCFE6FFAAC0E6FFABC0E6FFC7
:10055000ACC0E6FFADC0E6FF8EC0E6FF8FC0E6FF91
:1005600090C0E6FF91C0E6FF8AC0E6FF8BC0E6FFC1
:100570008CC0E6FF8DC0E6FF96C0E6FF97C0E6FFA1
:1005800098C0E6FF99C0E6FFB7EC07F0006E140EC6
:10059000E15E00502EC092F02FC093F030C094F076
:1005A00031C095F01C0E92C0DBFF1D0E93C0DBFF27
:1005B0001E0E94C0DBFF1F0E95C0DBFFD9CFE9FFF5
:1005C000DACFEAFFEECF00F0EECF01F0EECF02F08F
:1005D000EECF03F0EECF04F0EECF05F0EECF06F055
:1005E000EECF07F0EECF08F0EECF09F0EECF0AF035
:1005F000EECF0BF0EECF0CF0EECF0DF0EECF0EF015
:10060000EECF0FF0EECF10F0EECF11F0EECF12F0F4
:10061000EECF13F0EECF14F0EECF15F0EECF16F0D4
:10062000EECF17F0EECF18F0EECF19F0EECF1AF0B4
:10063000EECF1BF0EECF1CF0EECF1DF0EECF1EF094
:10064000EFCF1FF0D9CFE9FFDACFEAFFED50ED5041
:100650001FC0EDFF1EC0EDFF1DC0EDFF1CC0EDFF74
:100660001BC0EDFF1AC0EDFF19C0EDFF18C0EDFF74
:1006700017C0EDFF16C0EDFF15C0EDFF14C0EDFF74
:1006800013C0EDFF12C0EDFF11C0EDFF10C0EDFF74
:100690000FC0EDFF0EC0EDFF0DC0EDFF0CC0EDFF74
:1006A0000BC0EDFF0AC0EDFF09C0EDFF08C0EDFF74
:1006B00007C0EDFF06C0EDFF05C0EDFF04C0EDFF74
:1006C00003C0EDFF02C0EDFF01C0EDFF00C0EFFF72
:1006D000200EE15C03E200D0E16AE552E16EE552F2
:1006E000E7CFD9FF1200D9CFE6FFE1CFD9FFE6521D
:1006F000FE0EDB0406E1FD0EDB0403E1010EDF6EFE
:1007000007D0FE0EDB0404E1FD0EDB5001E1DF6AE1
:10071000DF5000D0E552E552E7CFD9FF1200D9CF24
:10072000E6FFE1CFD9FF080EE126026A036A7A0EDE
:10073000046E440E056EFB0EDBCF06F0FC0EDBCF25
:1007400007F0FD0EDBCF08F0FE0EDBCF09F006C090
:1007500034F007C035F008C036F009C037F002C0E9
:100760002FF003C030F004C031F005C032F021ECAE
:100770001BF0010A02E0000E01D0010E006E016ABA
:1007800000BE0168D880015004E7180E005CFC0E22
:10079000015801E3DFD0FB0EDBCF00F0FC0EDBCF16
:1007A00001F0FD0EDBCF02F0FE0EDBCF03F0346A6A
:1007B000356A7A0E366E440E376E00C02FF001C0D7
:1007C00030F002C031F003C032F018EC1BF0010A27
:1007D00029E1FB0EDBCF00F0FC0EDBCF01F0FD0EBC
:1007E000DBCF02F0FE0EDBCF03F0346A356A7A0EFF
:1007F000366E440E376E00C02FF001C030F002C0DC
:1008000031F003C032F003EC19F0E1EC1AF02EC025
:10081000DEFF2FC0DEFF30C0DEFF31C0DDFFDD5266
:10082000DD5246D0FB0EDBCF00F0FC0EDBCF01F03B
:10083000FD0EDBCF02F0FE0EDBCF03F0346A356A2B
:100840007A0E366EC40E376E00C02FF001C030F045
:1008500002C031F003C032F021EC1BF0010A28E1A4
:10086000FB0EDBCF00F0FC0EDBCF01F0FD0EDBCF8B
:1008700002F0FE0EDBCF03F0346A356A7A0E366E74
:10088000440E376E00C02FF001C030F002C031F0CE
:1008900003C032F004EC19F0E1EC1AF02EC0DEFFD8
:1008A0002FC0DEFF30C0DEFF31C0DDFFDD52DD5284
:1008B000D9CFE9FFDACFEAFFEECF04F0EECF05F0B3
:1008C000EECF06F0EFCF07F004C02EF005C02FF0FA
:1008D00006C030F007C031F0EAEC18F02FC000F08D
:1008E00030C001F031C002F032C003F0EC0E346EC3
:1008F000510E356EB80E366E3E0E376E00C02FF0BC
:1009000001C030F002C031F003C032F0EDEC19F05C
:10091000040E2FC0DBFF050E30C0DBFF060E31C01A
:10092000DBFF070E32C0DBFF040EDBCF00F0050E4D
:10093000DBCF01F0060EDBCF02F0070EDBCF03F0BA
:1009400000C02EF001C02FF002C030F003C031F023
:1009500001D0EBD6080EE15C02E2E16AE552E16EFD
:10096000E552E7CFD9FF1200D9CFE6FFE1CFD9FF9B
:10097000040EE126FB0EDBCF00F0FC0EDBCF01F016
:10098000FD0EDBCF02F0FE0EDBCF03F0D950F70FE8
:10099000E96EFF0EDA20EA6EEE500026EE500122DC
:1009A000EE500222EE50032200C02EF001C02FF0C4
:1009B00002C030F003C031F0EAEC18F02FC0DEFFC7
:1009C00030C0DEFF31C0DEFF32C0DDFFDD52DD5260
:1009D000D9CFE9FFDACFEAFFEECF00F0EECF01F09A
:1009E000EECF02F0EFCF03F0346A356A366A400E7C
:1009F000376E00C02FF001C030F002C031F003C0EC
:100A000032F09AEC19F02FC0DEFF30C0DEFF31C0AB
:100A1000DEFF32C0DDFFDD52DD52D9CFE9FFDACF94
:100A2000EAFFEECF00F0EECF01F0EECF02F0EFCF15
:100A300003F0E10E346E7A0E356EC40E366E400E43
:100A4000376E00C02FF001C030F002C031F003C09B
:100A500032F0EDEC19F02FC0DEFF30C0DEFF31C008
:100A6000DEFF32C0DDFFDD52DD52D9CFE9FFDACF44
:100A7000EAFFEECF00F0EECF01F0EECF02F0EFCFC5
:100A800003F0346A356AF00E366E410E376E00C0E0
:100A90002FF001C030F002C031F003C032F0EDECB5
:100AA00019F02FC0DEFF30C0DEFF31C0DEFF32C0E4
:100AB000DDFFDD52DD52D9CFE9FFDACFEAFFEECF1D
:100AC00000F0EECF01F0EECF02F0EFCF03F0346A8A
:100AD000500E356EC30E366E470E376E00C02FF0C7
:100AE00001C030F002C031F003C032F09AEC19F0CE
:100AF0002FC0DEFF30C0DEFF31C0DEFF32C0DDFFC1
:100B0000DD52DD52DECF2EF0DECF2FF0DECF30F023
:100B1000DDCF31F0DD52DD52040EE15C03E200D0A6
:100B2000E16AE552E16EE552E7CFD9FF1200D9CF75
:100B3000E6FFE1CFD9FF040EE126FB0EDBCF00F08C
:100B4000FC0EDBCF01F0FD0EDBCF02F0FE0EDBCFA3
:100B500003F0F70EDBCF04F0F80EDBCF05F0F90E53
:100B6000DBCF06F0FA0EDBCF07F004C034F005C08F
:100B700035F006C036F007C037F000C02FF001C0D6
:100B800030F002C031F003C032F003EC19F02FC096
:100B9000DEFF30C0DEFF31C0DEFF32C0DDFFDD52E0
:100BA000DD52D9CFE9FFDACFEAFFEECF00F0EECF8A
:100BB00001F0EECF02F0EFCF03F0EC0E346E510EE9
:100BC000356EB80E366E3E0E376E00C02FF001C087
:100BD00030F002C031F003C032F0EDEC19F02FC05C
:100BE000DEFF30C0DEFF31C0DEFF32C0DDFFDD5290
:100BF000DD52D9CFE9FFDACFEAFFEECF00F0EECF3A
:100C000001F0EECF02F0EFCF03F06F0E346E120E54
:100C1000356E830E366E3A0E376E00C02FF001C06F
:100C200030F002C031F003C032F0EDEC19F02FC00B
:100C3000DEFF30C0DEFF31C0DEFF32C0DDFFDD523F
:100C4000DD52DECF2EF0DECF2FF0DECF30F0DDCF65
:100C500031F0DD52DD52040EE15C03E200D0E16AC6
:100C6000E552E16EE552E7CFD9FF1200D9CFE6FF9A
:100C7000E1CFD9FF040EE126FB0EDBCF00F0FC0E26
:100C8000DBCF01F0FD0EDBCF02F0FE0EDBCF03F079
:100C9000F70EDBCF04F0F80EDBCF05F0F90EDBCF5B
:100CA00006F0FA0EDBCF07F004C034F005C035F0D3
:100CB00006C036F007C037F000C02FF001C030F09A
:100CC00002C031F003C032F004EC19F02FC0DEFF97
:100CD00030C0DEFF31C0DEFF32C0DDFFDD52DD524D
:100CE000D9CFE9FFDACFEAFFEECF00F0EECF01F087
:100CF000EECF02F0EFCF03F0346A356A366A400E69
:100D0000376E00C02FF001C030F002C031F003C0D8
:100D100032F09AEC19F02FC0DEFF30C0DEFF31C098
:100D2000DEFF32C0DDFFDD52DD52D9CFE9FFDACF81
:100D3000EAFFEECF00F0EECF01F0EECF02F0EFCF02
:100D400003F0346A356AF00E366E410E376E00C01D
:100D50002FF001C030F002C031F003C032F0EDECF2
:100D600019F02FC0DEFF30C0DEFF31C0DEFF32C021
:100D7000DDFFDD52DD52D9CFE9FFDACFEAFFEECF5A
:100D800000F0EECF01F0EECF02F0EFCF03F0346AC7
:100D9000356A610E366E450E376E00C02FF001C009
:100DA00030F002C031F003C032F09AEC19F02FC0DD
:100DB000DEFF30C0DEFF31C0DEFF32C0DDFFDD52BE
:100DC000DD52D9CFE9FFDACFEAFFEECF00F0EECF68
:100DD00001F0EECF02F0EFCF03F0346A240E356E4F
:100DE000740E366E490E376E00C02FF001C030F021
:100DF00002C031F003C032F09AEC19F02FC0DEFFD0
:100E000030C0DEFF31C0DEFF32C0DDFFDD52DD521B
:100E1000DECF2EF0DECF2FF0DECF30F0DDCF31F0A1
:100E2000DD52DD52040EE15C03E200D0E16AE552DE
:100E3000E16EE552E7CFD9FF1200D9CFE6FFE1CF4F
:100E4000D9FF040EE126F70EDBCF00F0F80EDBCF62
:100E500001F0F90EDBCF02F0FA0EDBCF03F09A0EB1
:100E6000346EC90E356E250E366E450E376E00C0D7
:100E70002FF001C030F002C031F003C032F0EDECD1
:100E800019F0F70E2FC0DBFFF80E30C0DBFFF90EB4
:100E900031C0DBFFFA0E32C0DBFFF70EDBCF00F014
:100EA000F80EDBCF01F0F90EDBCF02F0FA0EDBCF4C
:100EB00003F0346A356AF00E366E410E376E00C0AC
:100EC0002FF001C030F002C031F003C032F09AECD4
:100ED00019F0F70E2FC0DBFFF80E30C0DBFFF90E64
:100EE00031C0DBFFFA0E32C0DBFFF70EDBCF2FF095
:100EF000F80EDBCF30F0F90EDBCF31F0FA0EDBCF9E
:100F000032F0FB0EDBCF34F0FC0EDBCF35F0FD0E04
:100F1000DBCF36F0FE0EDBCF37F09AEC19F02FC0A6
:100F200000F030C001F031C002F032C003F000C068
:100F3000DFFF010E01C0DBFF020E02C0DBFF030E6C
:100F400003C0DBFFDECF2EF0DECF2FF0DECF30F0A0
:100F5000DDCF31F0DD52DD52040EE15C03E200D062
:100F6000E16AE552E16EE552E7CFD9FF1200D9CF31
:100F7000E6FFE1CFD9FF080EE126006A016A800E84
:100F8000026E3F0E036EEF0EDBCF04F0F00EDBCFF0
:100F900005F0F10EDBCF06F0F20EDBCF07F004C058
:100FA00034F005C035F006C036F007C037F000C099
:100FB0002FF001C030F002C031F003C032F003EC7A
:100FC00019F0FB0EDBCF34F0FC0EDBCF35F0FD0E5D
:100FD000DBCF36F0FE0EDBCF37F0EDEC19F02FC093
:100FE000DEFF30C0DEFF31C0DEFF32C0DDFFDD528C
:100FF000DD52F70EDBCF00F0F80EDBCF01F0F90E7B
:10100000DBCF02F0FA0EDBCF03F0F30EDBCF04F000
:10101000F40EDBCF05F0F50EDBCF06F0F60EDBCFDE
:1010200007F004C034F005C035F006C036F007C044
:1010300037F000C02FF001C030F002C031F003C023
:1010400032F003EC19F0040E2FC0DBFF050E30C0A8
:10105000DBFF060E31C0DBFF070E32C0DBFF040EE4
:10106000DBCF00F0050EDBCF01F0060EDBCF02F088
:10107000070EDBCF03F0290E346E5C0E356E8F0E3B
:10108000366E3E0E376E00C02FF001C030F002C049
:1010900031F003C032F0EDEC19F0040E2FC0DBFF8D
:1010A000050E30C0DBFF060E31C0DBFF070E32C07D
:1010B000DBFF040EDBCF2FF0050EDBCF30F0060E8A
:1010C000DBCF31F0070EDBCF32F0EB0EDBCF34F0AD
:1010D000EC0EDBCF35F0ED0EDBCF36F0EE0EDBCFD6
:1010E00037F09AEC19F02FC000F030C001F031C099
:1010F00002F032C003F0040E00C0DBFF050E01C099
:10110000DBFF060E02C0DBFF070E03C0DBFFD9CFFB
:10111000E9FFDACFEAFFEECF00F0EECF01F0EECF3D
:1011200002F0EFCF03F0EF0EDBCF2FF0F00EDBCFAE
:1011300030F0F10EDBCF31F0F20EDBCF32F0040EE7
:10114000DBCF34F0050EDBCF35F0060EDBCF36F00B
:10115000070EDBCF37F0EDEC19F02FC004F030C0F4
:1011600005F031C006F032C007F004C034F005C00D
:1011700035F006C036F007C037F000C02FF001C0D0
:1011800030F002C031F003C032F004EC19F02FC08F
:10119000DEFF30C0DEFF31C0DEFF32C0DDFFDD52DA
:1011A000DD52DECF2EF0DECF2FF0DECF30F0DDCF00
:1011B00031F0DD52DD52080EE15C03E200D0E16A5D
:0C11C000E552E16EE552E7CFD9FF1200C6
:0411CC0022EC0EF013
:1011D000FB0EDBCFF3FFDB06F35000090AE070ECF7
:1011E0000EF0FA0EDBEC0EF0F3E1011CF1E1010E62
:1011F00001D0000E51EF0EF022EC0EF03B0EE12478
:1012000002E3E168E652E16E010EDB6A020EDB6A80
:10121000F90EDBCFF6FFFA0EDBCFF7FFFB0EDBCFCD
:10122000F8FF0800F550DF6EDF5002E175EF0DF0BA
:10123000250EDF5C02E068EF0DF0030EDB6A040EA2
:10124000DB6A050EDB6A060EDB6A070EDB6A8AECD8
:101250000DF02D0EDF5C0CE02B0EDF5C09E0200EA4
:10126000DF5C06E0230EDF5C03E0300EDF5C1AE19A
:10127000DF50300A14E0130A0FE0030A0AE00B0AF9
:1012800005E0060AE4E1030EDB80E1D7030EDB8212
:10129000DED7030EDB84DBD7030EDB86D8D7030E45
:1012A000DB88D5D72A0EDF5C1BE186EC0DF0D4EC91
:1012B0000DF010E0030EDB8030683168130EDBCFD9
:1012C00035F0140EDBCF36F005EC1CF0040E2EC00A
:1012D000DBFF03D0130EBDEC0DF08AEC0DF00BD04C
:1012E000090EDB6A2BEC0EF003E09FEC0EF0FAD750
:1012F000090EBDEC0DF0030EDBB0DB982E0EDF5CAB
:101300001BE18AEC0DF02A0EDF5C0BE186EC0DF0A0
:10131000D4EC0DF003E1130E0FEC0EF08AEC0DF09F
:101320000BD0090EDB6A2BEC0EF003E09FEC0EF005
:10133000FAD7090E0FEC0EF0680EDF5C07E18AECBD
:101340000DF0680EDF5C1DE1030E18D0740EDF5C3B
:1013500017E07A0EDF5C14E0480EDF5C06E0540E06
:10136000DF5C03E05A0EDF5C02E1020E07D06C0E78
:10137000DF5C03E06A0EDF5C04E1010E62EC0EF05C
:10138000C9DBDF506E0A01E17FD31E0A01E192D171
:10139000200A01E18FD13F0A01E149D11A0A01E196
:1013A00046D10D0A01E143D1200A01E140D13A0AB8
:1013B00001E13DD1200A01E13AD1260A01E135D10E
:1013C0000D0A01E132D11A0A01E1D9D0200A4AE01E
:1013D000300A1FE0460A0EE0250A01E083D3D95007
:1013E000F90FE96EFF0EDA20EA6E010EEE5E000ED6
:1013F000EE5AEE5A70EC0EF0250EE66E95DB03E128
:10140000011C01E169D36CEC0EF001E26BD3DB2A25
:1014100069D3080EDB6A040EDB50010806E2040EF5
:10142000DB0434EC0EF0DB508BDB080EDB5009E004
:10143000030EDB50010B05E172DB01E04DD3080E1A
:10144000DB6A64DBEFCFDFFFE4EC0EF003E1011CAD
:1014500001E142D36CEC0EF001E3DB2A60DB01E139
:1014600041D33AD3070EDB5002080FE1B0EC0EF087
:10147000030E77EC0EF00E0EEECFDBFF0F0EEECF6D
:10148000DBFF100EEECFDBFF20D0F70EDBCF03F03B
:10149000F80EDBCF04F0020E035E000E045AF70EC6
:1014A00003C0DBFFF80E04C0DBFF03C0E9FF04C08C
:1014B000EAFF67EC0EF0026A0E0E00C0DBFF0F0EB3
:1014C00001C0DBFF100E02C0DBFF0E0EDBCFE6FF1C
:1014D0000F0EDBCFE6FF100EDBCFE6FFECEC29F0C2
:1014E000E552E552E552130E2FC0DBFF140E30C05B
:1014F000DBFF060EDB5005E0130EABEC0EF001E255
:101500006ADBCFEC0EF002E2130E37DB92EC0EF04A
:1015100006E0040EABEC0EF002E2050E2EDB030E2D
:10152000DBB005D0FCDA01E0D7D2080EDB6A090E89
:10153000DB6A0E0EDBCFF6FF0F0EDBCFF7FF100ED0
:10154000DBCFF8FF0800F550DF6EDF5014E0D5EC7C
:101550000EF011E2E4EC0EF003E1011C01E1BCD25B
:10156000BBDB01E3DB2A090EDB2AD9500E0FE96E43
:10157000000ECBDBE7D7D3DA01E1B4D2ADD2C6DAC5
:10158000110EEECFDBFF120EEDCFDBFF110EDBCF26
:10159000E6FF120EDBCFE6FFDEEC29F0E552E55266
:1015A000130EF3CFDBFF140EF4CFDBFF060EDB5080
:1015B00004E0130ED0DB01E20EDBCFEC0EF002E212
:1015C000130EDBDAAFDB05E0040EC5DB02E2050E2D
:1015D000D4DA030EDBB005D0A2DA01E07DD2080E2A
:1015E000DB6A090EDB6A110EDBCFE9FF120EDBCFDF
:1015F000EAFFEFCFDFFFDF5014E0D7DB12E2E4DBDE
:1016000003E1011C01E168D267DB01E3DB2A090E7B
:10161000DB2A110EDB2ADBCFE9FF120EE8E3DB2A1F
:10162000E6D77DDA01E15ED257D2030EDB8E070EDC
:10163000DB0410E195DB040E5ADB0A0EEECFDBFF74
:101640000B0EEECFDBFF0C0EEECFDBFF0D0EEECF61
:10165000DBFF6CD0070EDB5003082CE1030EDBAE82
:101660000DD0B2DA020E76DAEFCF00F0016A026A2C
:10167000036A00AE39D00168026835D0F70EDBCFBF
:1016800001F0F80EDBCF02F0020E015E000E025AEE
:10169000F70E01C0DBFFF80E02C0DBFF01C0E9FF5F
:1016A00002C0EAFFEFCF00F00A0E00C0DBFF0B0E16
:1016B000DB6A38D0070EDB50020809E1030EDBAE0F
:1016C00004D059DB02AE10D00ED055DB0DD0030E86
:1016D000DBAE12D079DA020E3DDAF9DA026A036A79
:1016E00001AE02D002680368E2DA0C0E02C0DBFF32
:1016F0000D0E03C0DBFF1AD0F70EDBCF02F0F80EA1
:10170000DBCF03F0020E025E000E035AF70E02C09A
:10171000DBFFF80E03C0DBFF02C0E9FF03C0EAFFF6
:10172000D6DAC5DA0C0EDB6A0D0EDB6A060EDB506C
:1017300005E1010EF36E050EF3CFDBFF150EDB6A3C
:10174000160EDB6AD950370F006E000EDA20016EDC
:10175000390E00C0DBFF3A0E01C0DBFF380EDB6A3A
:10176000080EDB6A0A0EAEDADF50780A12E0200AB1
:1017700010E0280A0CE0200A0AE03F0A06E00D0A01
:1017800002E0200A08E1020E05D0080E03D0080E80
:10179000DF26100E97DA030EDBBE02D0DB92DB945D
:1017A000DB50800B24E08ADAD890030EEB50000A5D
:1017B00008E6000EEE5C000EEE58000EEE58000E2D
:1017C000EE5815E213DA336834683568366863EC2E
:1017D0002BF00A0E2AC0DBFF0B0E2BC0DBFF0C0E1A
:1017E0002CC0DBFF0D0E2DC0DBFF2D0E08D0030E2D
:1017F000DBA202D02B0E03D0DBA408D0200EF36EA8
:10180000170EF3CFDBFF150EDB2A02D0170EDB6AB3
:10181000050EDB5003E1B7D901E189D0440E006E1B
:101820005C0E016E000E026E070EDBCF03F0046A41
:10183000056A066A03C033F004C034F005C035F011
:1018400006C036F0D3D995EC2CF000502A24F36E64
:1018500001502B20F46E02502C20F86EF4CFF7FFCD
:10186000F3CFF6FF0800090EF5CFDBFF580EDF5C63
:101870000FE1610EF36E090E7BD90AE3200E006EB4
:10188000090EDBCFE7FF0050E75E090EE7CFDBFF75
:10189000070EDBCF00F0016A026A036A0FDA00C0AC
:1018A00033F001C034F002C035F003C036F0EECFA3
:1018B0002EF0EECF2FF0EECF30F0EFCF31F095ECF1
:1018C0002CF031C0EDFF30C0EDFF2FC0EDFF2EC07A
:1018D000EFFF390EDBCFE9FFDB063A0EDBCFEAFF85
:1018E00001E2DB06090EDBCFEFFF150EDB2A4BD939
:1018F00095E1030EDBA61DD06F0EDF5C06E1C1D9BA
:1019000018E3150EDB285BDA14D0780EDF5C09E0F3
:10191000580EDF5C06E0620EDF5C03E0420EDF5C27
:1019200008E1020EF36E160EF3CFDBFF02D0150EA8
:10193000DB6A030EDB50100B0EE0040EDBCF00F071
:10194000050EDB50D880005406E2060EDB5003E1A2
:10195000040EDB5034DA95D90AE2050EDBCFE7FF3F
:10196000150EDB50E75E050EE7CFDBFF02D0050E5C
:10197000DB6A040EDBCF00F0160E45D9D880005488
:1019800014E2160EDBCFE6FF150EDBCFE6FF040EEA
:10199000DBCFE6FF050EDB50E552E75CE552D88071
:1019A000E754E552D880E7545FD9030EDB50010BB2
:1019B0000BE1080EDB5008E0B2D801E08DD0080E34
:1019C000DB50BED8080EDB6A170EDB5007E088D963
:1019D000170EF1D903E1011C01E17ED0160EDB5098
:1019E00016E07ED9300EE66E9FD802E1011C74E04D
:1019F00077D9DFCFE6FFACEC2AF0E552E552E552AD
:101A0000F4CF01F00001F31C02E1011C65E0050EBA
:101A1000DBCF00F0160EDB50D880005409E2050E33
:101A2000DBCFE7FF160EDB50E75E050EE7CFDBFFEF
:101A3000300EE66E050ECBD94FE1390EDB2ADBCF37
:101A4000E9FF3A0E01E3DB2ADBCFEAFF090EEFCF15
:101A5000DBFFDB500EE044D9090EADD902E1011CD9
:101A60003BE0390EDB2ADBCFE9FF3A0EEDE3DB2A60
:101A7000EBD755D831E1160EDBCFE6FF080EC3D801
:101A8000E552E7245DD82ED0070EDB50030A1CE098
:101A9000010A14E0030A07E07BD9DBCFEEFF020E58
:101AA000DBCFEDFF1FD0F5D8056A03AE02D0046886
:101AB00005682CD8BCD805C0EEFF14D0EAD803BE08
:101AC000046824D8B4D80ED063D9DBCFEFFF0AD096
:101AD0007BD905E1011C03E1F368F46810D0FCD860
:101AE00001E3DB2A79D911EF09F0010EDBCF00F019
:101AF000020EDBCF01F000C0F3FF01C0F4FF3B0E8C
:101B0000E15C02E2E16AE552E16ECBD029D9020E36
:101B100077EF0EF061D90800F550DF6E1200200E4D
:101B2000E66E080EE7EF0EF0ACEC2AF0E552E55257
:101B3000E552F3CF00F0F4CF01F00001F31C1200E6
:101B4000006E016AD950010F4DD90050EE260150A8
:101B5000ED221200045E000E055AF70E04C0DBFFF2
:101B6000F80E05C0DBFF04C0E9FF05C0EAFF120064
:101B7000DBCFF4FFF350F45C1200DB50E76E040E91
:101B8000E7CFDBFF12000A0EDBCF00F00B0EDBCF3E
:101B900001F00C0EDBCF02F00D0EDBCF03F0005096
:101BA0000110021003101200130EEECFDBFF140E13
:101BB000EDCFDBFF130EDBCF00F0140EDBCF01F017
:101BC0000001800E01141200F70EDBCF04F0F80EB6
:101BD000DBCF05F01200050EDB50E66ED950130F77
:101BE00001D9E552E750EE6EED6A12000A0EDBCF26
:101BF0002EF00B0EDBCF2FF00C0EDBCF30F00D0EE6
:101C0000DBCF31F01200DBCFE6FF150EDBCFE6FFB6
:101C1000050EDB50E552E724E552E7241200DB50C5
:101C2000CED8010EF36E060EF3CFDBFF1200EE509E
:101C3000EFCFEAFFE96E02C0EEFF03C0EEFF04C083
:101C4000EEFF1200D9CFE6FFDACFE6FFE1CFD9FFF2
:101C5000E2CFDAFF1200DFCFE6FFE66AC0EC2DF03C
:101C6000E552E552F3501200E76E080EE7CFDBFFB6
:101C70001200EECF00F0EECF01F0EFCF02F0036ADA
:101C80001200050EDBCF00F0150EDB50D88000549B
:101C90001200010EDBCF02F0020EDBCF03F0046A6C
:101CA0001200E552E5CFDAFFE7CFD9FF12000A0EA6
:101CB00000C0DBFF0B0E01C0DBFF1200D9500A0F82
:101CC000F2EF0EF0F36E070EF3CFDBFF1200EECF54
:101CD00000F0EFCF01F01200010EDB2A020E12001D
:101CE000FC0EDBCFE6FFFD0EDBCFE6FF1200005E51
:101CF000000E015AF70E00C0DBFFF80E01C0DBFF3B
:101D000000C0E9FF01C0EAFF1200DA20EA6EEF2A04
:101D1000EECFF6FF000EEF22EECFF7FFEF22EECF71
:101D2000F8FF1200040EDBCFE6FF130EDB50E55286
:101D3000E75C9ADFDB5004DF060EDB501200090E71
:101D4000DB500A0DF350DF24D00FE76E090EE7CF0A
:101D5000DBFF8AEF0DF0DB50F36E050EB8EF0DF0F0
:101D6000F70EDBCF00F0F80EDBCF01F01200DFCF73
:101D7000E6FF94EF0DF028DF030EECDE39EF0EF0F6
:101D8000E6EC08F0E552E552E552E5520009120092
:101D9000BDDEEE50EFCFEAFFE96E010E1200130E2A
:101DA000DB50F36E040EB8EF0DF0040EDB50F36E53
:101DB000090EB8EF0DF0DBCFE6FF94EF0DF0E76E04
:101DC000050EE7CFDBFF12008BDFB7EF0EF0DBCFA6
:101DD000E6FF86DFC0EF0EF0D950F90FE96EFF0E77
:0E1DE00085EF0EF0E96E000EDA20EA6E1200BA
:021DEE00D9CF4B
:101DF000E6FFE1CFD9FF080EE126DE6ADE6ADE6A81
:101E0000DD6ADD52DD520001AE6BAF6B0001B06BDD
:101E1000B16B0001B26BB36B0001B46BB56B000129
:101E2000B66BB76B0001B86BB96B89888B9A8A9ACD
:101E30008B90899CD00EE66E070EE66E7DEC1FF04F
:101E4000E552E5528A8ADC0EE66E050EE66E7DEC02
:101E50001FF0E552E552898C040EDB6A050EDB6A41
:101E6000060EDB6A070EDB6AD950040FE96EDACF83
:101E7000EAFFD890030EEB50000A08E6140EEE5C61
:101E8000000EEE58000EEE58000EEE5830E2870EAF
:101E9000E66E15EC21F0E552F3500001AE27F45048
:101EA000AF23930EE66E15EC21F0E552F3500001DE
:101EB000B427F450B523830EE66E15EC21F0E552FD
:101EC000F3500001B627F450B723320EE66EE66AEF
:101ED0007DEC1FF0E552E552D950040FE96EDACFE0
:101EE000EAFFEE2A000EEE22EE22EE22BDD7140EFD
:101EF000356E366AAEC030F0AFC031F05AEC1AF031
:101F000030C0AEF031C0AFF0140E356E366AB4C0DA
:101F100030F0B5C031F05AEC1AF030C0B4F031C036
:101F2000B5F0140E356E366AB6C030F0B7C031F079
:101F30005AEC1AF030C0B6F031C0B7F08A9A899CDA
:101F40008B8ADC0EE66E050EE66E7DEC1FF0E55228
:101F5000E552898C040EDB6A050EDB6A060EDB6A2D
:101F6000070EDB6AD950040FE96EDACFEAFFD8908A
:101F7000030EEB50000A08E6B80EEE5C0B0EEE58AE
:101F8000000EEE58000EEE582BE2830EE66E15ECB6
:101F900021F0E552F3CF00F0F4CF01F0026A036ABA
:101FA00001AE02D0026803680050DE260150DE2236
:101FB0000250DE220350DD22DD52DD52010EE66EBC
:101FC000E66A7DEC1FF0E552E552D950040FE96E48
:101FD000DACFEAFFEE2A000EEE22EE22EE22C2D780
:101FE000B6C000F0B7C001F0026A036A01AE02D0C9
:101FF00002680368D9CFE9FFDACFEAFF0050EE5E4E
:102000000150EE5A0250EE5A0350EE5AD9CFE9FF72
:10201000DACFEAFF840E336E030E346E356A366A09
:10202000EECF2EF0EECF2FF0EECF30F0EFCF31F03D
:10203000ADEC1AF031C0EDFF30C0EDFF2FC0EDFF69
:102040002EC0EFFF000EDFCFB8F0010EDBCFB9F0EE
:102050008B9A8B80899CDC0EE66E050EE66E7DEC1D
:102060001FF0E552E552898C040EDB6A050EDB6A2F
:10207000060EDB6A070EDB6AD950040FE96EDACF71
:10208000EAFFD890030EEB50000A08E6140EEE5C4F
:10209000000EEE58000EEE58000EEE5826E2870EA7
:1020A000E66E15EC21F0E552F3500001B027F45034
:1020B000B123930EE66E15EC21F0E552F3500001CA
:1020C000B227F450B323320EE66EE66A7DEC1FF0C1
:1020D000E552E552D950040FE96EDACFEAFFEE2A55
:1020E000000EEE22EE22EE22C7D7140E356E366AAF
:1020F000B0C030F0B1C031F05AEC1AF030C0B0F0DE
:1021000031C0B1F0140E356E366AB2C030F0B3C0D3
:1021100031F05AEC1AF030C0B2F031C0B3F0898817
:10212000010EE66E0EEC2EF0E5528B8A010EE66E85
:102130000EEC2EF0E5528A8A8B80899C82B416D0F0
:1021400082A613D089988B9A8A9A8B90898CF40EE8
:10215000E66E010EE66E7DEC1FF0E552E552899CBD
:102160005DEC1DF0F36AF46A15D0E8D7F7EC1DF0CA
:10217000898CF40EE66E010EE66E7DEC1FF0E552E2
:10218000E55289988B9A8A9A8B90899C010EF36EFE
:10219000F46A00D0080EE15C02E2E16AE552E16E09
:1021A000E552E7CFD9FF1200D9CFE6FFE1CFD9FF43
:1021B000210EE126C30E046EF50E056E1C0E066E92
:1021C000410E076EFD0EDBCF30F0FE0EDBCF31F09F
:1021D0000001AE51305C0C6EAF5131580D6E0CC029
:1021E00030F00DC031F0D5EC18F02FC008F030C041
:1021F00009F031C00AF032C00BF008C034F009C059
:1022000035F00AC036F00BC037F004C02FF005C01F
:1022100030F006C031F007C032F0EDEC19F02FC0FD
:1022200000F030C001F031C002F032C003F0B0C0A5
:1022300030F0B1C031F0D5EC18F02FC00EF030C046
:102240000FF031C010F032C011F00EC034F00FC0EA
:1022500035F010C036F011C037F000C02FF001C0CB
:1022600030F002C031F003C032F09AEC19F02FC008
:10227000DEFF30C0DEFF31C0DEFF32C0DDFFDD52E9
:10228000DD52C30E046EF50E056E1C0E066E410E79
:10229000076EFB0EDBCF30F0FC0EDBCF31F0000120
:1022A000B251305C0C6EB35131580D6E0CC030F031
:1022B0000DC031F0D5EC18F02FC008F030C009F097
:1022C00031C00AF032C00BF008C034F009C035F05C
:1022D0000AC036F00BC037F004C02FF005C030F054
:1022E00006C031F007C032F0EDEC19F02FC000F05D
:1022F00030C001F031C002F032C003F0B4C030F0A1
:10230000B5C031F0D5EC18F02FC00EF030C00FF092
:1023100031C010F032C011F00EC034F00FC035F0F3
:1023200010C036F011C037F000C02FF001C030F0FF
:1023300002C031F003C032F09AEC19F0040E2FC045
:10234000DBFF050E30C0DBFF060E31C0DBFF070EE2
:1023500032C0DBFF046A056AC80E066EC20E076E45
:10236000F90EDBCF30F0FA0EDBCF31F00001B651C1
:10237000305C0C6EB75131580D6E0CC030F00DC092
:1023800031F0D5EC18F02FC008F030C009F031C0A2
:102390000AF032C00BF008C034F009C035F00AC0B2
:1023A00036F00BC037F004C02FF005C030F006C087
:1023B00031F007C032F0EDEC19F02FC000F030C062
:1023C00001F031C002F032C003F0B8C030F0B9C043
:1023D00031F0D5EC18F02FC00EF030C00FF031C046
:1023E00010F032C011F00EC034F00FC035F010C044
:1023F00036F011C037F000C02FF001C030F002C03D
:1024000031F003C032F09AEC19F0080E2FC0DBFF58
:10241000090E30C0DBFF0A0E31C0DBFF0B0E32C0ED
:10242000DBFFD9CFE9FFDACFEAFFEECF10F0EECF36
:1024300011F0EECF12F0EFCF13F0040EDBCF14F05B
:10244000050EDBCF15F0060EDBCF16F0070EDBCF47
:1024500017F014C034F015C035F016C036F017C0B0
:1024600037F010C02FF011C030F012C031F013C09F
:1024700032F004EC19F02FC00CF030C00DF031C078
:102480000EF032C00FF0F50EDBCF18F0F60EDBCFFA
:1024900019F0F70EDBCF1AF0F80EDBCF1BF018C0E7
:1024A00034F019C035F01AC036F01BC037F00CC03C
:1024B0002FF00DC030F00EC031F00FC032F003EC41
:1024C00019F02FC008F030C009F031C00AF032C056
:1024D0000BF0C30E346EF50E356E1C0E366E410ECB
:1024E000376E08C02FF009C030F00AC031F00BC0C1
:1024F00032F003EC19F02FC004F030C005F031C009
:1025000006F032C007F0330E346E356E650E366E4F
:10251000420E376E04C02FF005C030F006C031F017
:1025200007C032F0EDEC19F02FC000F030C001F020
:1025300031C002F032C003F0C30E206EF50E216EE2
:102540001C0E226E410E236EF50EDBCF24F0F60E2C
:10255000DBCF25F0F70EDBCF26F0F80EDBCF27F030
:1025600024C034F025C035F026C036F027C037F03F
:1025700020C02FF021C030F022C031F023C032F053
:1025800003EC19F02FC01CF030C01DF031C01EF05C
:1025900032C01FF01CC034F01DC035F01EC036F034
:1025A0001FC037F000C02FF001C030F002C031F082
:1025B00003C032F09AEC19F00C0E2FC0DBFF0D0EA9
:1025C00030C0DBFF0E0E31C0DBFF0F0E32C0DBFF71
:1025D0000C0EDBCF00F00D0EDBCF01F00E0EDBCFCB
:1025E00002F00F0EDBCF03F0346A356A700E366EE0
:1025F000410E376E00C02FF001C030F002C031F044
:1026000003C032F018EC1BF0010A13E10C0EDB6A78
:102610000D0EDB6A700EF36E0E0EF3CFDBFF410E74
:10262000F36E0F0EF3CFDBFF010EF36E200EF3CF30
:10263000DBFF0C0EDBCF00F00D0EDBCF01F00E0E3A
:10264000DBCF02F00F0EDBCF03F0346A356A700E79
:10265000366EC10E376E00C02FF001C030F002C0E0
:1026600031F003C032F021EC1BF0010A13E10C0E33
:10267000DB6A0D0EDB6A700EF36E0E0EF3CFDBFF1E
:10268000C10EF36E0F0EF3CFDBFF010EF36E200EC3
:10269000F3CFDBFF080EDBCF2FF0090EDBCF30F0DE
:1026A0000A0EDBCF31F00B0EDBCF32F0ED0EDBCFBD
:1026B00034F0EE0EDBCF35F0EF0EDBCF36F0F00E60
:1026C000DBCF37F0EDEC19F02FC004F030C005F08F
:1026D00031C006F032C007F0346A356A7A0E366EC1
:1026E000440E376E04C02FF005C030F006C031F044
:1026F00007C032F09AEC19F02FC000F030C001F0A2
:1027000031C002F032C003F0F10EDBCF08F0F20E60
:10271000DBCF09F0F30EDBCF0AF0F40EDBCF0BF0CA
:1027200008C034F009C035F00AC036F00BC037F0ED
:1027300000C02FF001C030F002C031F003C032F011
:1027400004EC19F0100E2FC0DBFF110E30C0DBFFC0
:10275000120E31C0DBFF130E32C0DBFFA6C02FF01C
:10276000A7C030F0A8C031F0A9C032F00C0EDBCF0A
:1027700034F00D0EDBCF35F00E0EDBCF36F00F0E42
:10278000DBCF37F0EDEC19F02FC000F030C001F0D6
:1027900031C002F032C003F0086A096A800E0A6E86
:1027A0003F0E0B6EA6C034F0A7C035F0A8C036F0BF
:1027B000A9C037F008C02FF009C030F00AC031F0CE
:1027C0000BC032F003EC19F0100EDBCF34F0110E19
:1027D000DBCF35F0120EDBCF36F0130EDBCF37F048
:1027E000EDEC19F02FC004F030C005F031C006F058
:1027F00032C007F004C034F005C035F006C036F032
:1028000007C037F000C02FF001C030F002C031F037
:1028100003C032F004EC19F0180E2FC0DBFF190EC4
:1028200030C0DBFF1A0E31C0DBFF1B0E32C0DBFFF6
:10283000D950080FE96EDACFEAFF1C0EEECFDBFFAE
:102840001D0EEECFDBFF1E0EEECFDBFF1F0EEECF19
:10285000DBFF180EDBCF00F0190EDBCF01F01A0EF4
:10286000DBCF02F01B0EDBCF03F01C0EDBCF04F03E
:102870001D0EDBCF05F01E0EDBCF06F01F0EDBCFEB
:1028800007F0200EDBCF08F0D9CFE9FFDACFEAFF5F
:10289000ED50ED5008C0EDFF07C0EDFF06C0EDFFA5
:1028A00005C0EDFF04C0EDFF03C0EDFF02C0EDFF6A
:1028B00001C0EDFF00C0EFFF210EE15C03E200D09C
:0E28C000E16AE552E16EE552E7CFD9FF120062
:0228CE00D9CF60
:1028D000E6FFE1CFD9FF530EE126FE0EDB500FE0FD
:1028E0000001BA6BBB6BBC6BBD6BBE6BBF6BC06BCF
:1028F000C16BC26BC36BBCEC00F0010EB9D2C2C09D
:10290000E6FFC3C0E6FF41EC1FF0E552E552510E71
:10291000F3CFDBFF520EF4CFDBFFE6C0C2F0E7C01F
:10292000C3F0510EDBCF30F0520EDBCF31F0D3ECE1
:1029300018F0410E2FC0DBFF420E30C0DBFF430E0C
:1029400031C0DBFF440E32C0DBFFEDEC24F00009A8
:1029500002E1000E8DD2870EE66E15EC21F0E552F5
:10296000F3CFDEFFF4CFDDFF930EE66E15EC21F022
:10297000E552020EF3CFDBFF030EF4CFDBFF830E35
:10298000E66E15EC21F0E552040EF3CFDBFF050EE9
:10299000F4CFDBFF970EE66E15EC21F0E552060E44
:1029A000F3CFDBFF070EF4CFDBFF9B0EE66E15ECDB
:1029B00021F0E552080EF3CFDBFF090EF4CFDBFF69
:1029C0009F0EE66E15EC21F0E5520A0EF3CFDBFF09
:1029D0000B0EF4CFDBFF1C0EE126D950410FE96E40
:1029E000DACFEAFFEECFE6FFEECFE6FFEECFE6FF6F
:1029F000EFCFE6FFF8EC00F0EECF00F0EECF01F005
:102A0000EECF02F0EECF03F0EECF04F0EECF05F004
:102A1000EECF06F0EECF07F0EECF08F0EECF09F0E4
:102A2000EECF0AF0EECF0BF0EECF0CF0EECF0DF0C4
:102A3000EECF0EF0EECF0FF0EECF10F0EECF11F0A4
:102A4000EECF12F0EECF13F0EECF14F0EECF15F084
:102A5000EECF16F0EECF17F0EECF18F0EECF19F064
:102A6000EECF1AF0EECF1BF0EECF1CF0EECF1DF044
:102A7000EECF1EF0EECF1FF0206E200EE15E205054
:102A80000C0E00C0DBFF0D0E01C0DBFF0E0E02C0FE
:102A9000DBFF0F0E03C0DBFF100E04C0DBFF110EC7
:102AA00005C0DBFF120E06C0DBFF130E07C0DBFF05
:102AB000140E08C0DBFF150E09C0DBFF160E0AC09E
:102AC000DBFF170E0BC0DBFF180E0CC0DBFF190E6F
:102AD0000DC0DBFF1A0E0EC0DBFF1B0E0FC0DBFFAD
:102AE0001C0E10C0DBFF1D0E11C0DBFF1E0E12C03E
:102AF000DBFF1F0E13C0DBFF200E14C0DBFF210E17
:102B000015C0DBFF220E16C0DBFF230E17C0DBFF54
:102B1000240E18C0DBFF250E19C0DBFF260E1AC0DD
:102B2000DBFF270E1BC0DBFF280E1CC0DBFF290EBE
:102B30001DC0DBFF2A0E1EC0DBFF2B0E1FC0DBFFFC
:102B4000D950410FE96EDACFEAFFEECFE6FFEECFC4
:102B5000E6FFEECFE6FFEFCFE6FFBAC0E6FFBBC071
:102B6000E6FFBCC0E6FFBDC0E6FFD950280FE96E06
:102B7000DACFEAFFEECFE6FFEECFE6FFEECFE6FFDD
:102B8000EFCFE6FF040EDBCFE6FF050EDBCFE6FF5F
:102B9000020EDBCFE6FF030EDBCFE6FFDECFE6FF64
:102BA000DDCFE6FFD4EC10F0EECF00F0EECF01F079
:102BB000EECF02F0EECF03F0EECF04F0EECF05F053
:102BC000EECF06F0EECF07F0EECF08F0096E120E52
:102BD000E15E09502C0E00C0DBFF2D0E01C0DBFFB3
:102BE0002E0E02C0DBFF2F0E03C0DBFF300E04C031
:102BF000DBFF310E05C0DBFF320E06C0DBFF330EFC
:102C000007C0DBFF340E08C0DBFF2C0EDBCFBAF0B1
:102C10002D0EDBCFBBF02E0EDBCFBCF02F0EDBCFAB
:102C2000BDF0D9502C0FE96EDACFEAFFEECFE6FF08
:102C3000EECFE6FFEECFE6FFEFCFE6FFBEC0E6FF4A
:102C4000BFC0E6FFC0C0E6FFC1C0E6FFD950240FF9
:102C5000E96EDACFEAFFEECFE6FFEECFE6FFEECF8A
:102C6000E6FFEFCFE6FF23EC22F0006E0C0EE15EF4
:102C70000050350E2EC0DBFF360E2FC0DBFF370EA7
:102C800030C0DBFF380E31C0DBFF350EDBCFBEF0CE
:102C9000360EDBCFBFF0370EDBCFC0F0380EDBCF08
:102CA000C1F0D950300FE96EDACFEAFFEECFE6FF80
:102CB000EECFE6FFEECFE6FFEFCFE6FFD9502C0FC9
:102CC000E96EDACFEAFFEECFE6FFEECFE6FFEECF1A
:102CD000E6FFEFCFE6FFD950350FE96EDACFEAFF16
:102CE000EECFE6FFEECFE6FFEECFE6FFEFCFE6FF5B
:102CF00038EC22F0006E0C0EE15E0050390E2EC052
:102D0000DBFF3A0E2FC0DBFF3B0E30C0DBFF3C0E7B
:102D100031C0DBFF060EDBCFE6FF070EDBCFE6FFA1
:102D200065EC24F0E552E5523D0E2EC0DBFF3E0E71
:102D30002FC0DBFF3F0E30C0DBFF400E31C0DBFF9A
:102D4000D9503D0FE96EDACFEAFFEECFE6FFEECFC6
:102D5000E6FFEECFE6FFEFCFE6FFD9501C0FE96E9E
:102D6000DACFEAFFEECFE6FFEECFE6FFEECFE6FFEB
:102D7000EFCFE6FFD950180FE96EDACFEAFFEECFBA
:102D8000E6FFEECFE6FFEECFE6FFEFCFE6FFD9504E
:102D9000390FE96EDACFEAFFEECFE6FFEECFE6FFBE
:102DA000EECFE6FFEFCFE6FFFBEC22F0EECF00F038
:102DB000EECF01F0EECF02F0EECF03F0EECF04F055
:102DC000EECF05F0EECF06F0EECF07F0EECF08F035
:102DD000EECF09F0EECF0AF0EECF0BF00C6E100E36
:102DE000E15E0C50450E00C0DBFF460E01C0DBFF6C
:102DF000470E02C0DBFF480E03C0DBFF490E04C0D4
:102E0000DBFF4A0E05C0DBFF4B0E06C0DBFF4C0E9E
:102E100007C0DBFF4D0E08C0DBFF4E0E09C0DBFF15
:102E20004F0E0AC0DBFF500E0BC0DBFFD9504D0F19
:102E3000E96EDACFEAFFEECFE6FFEECFE6FFEECFA8
:102E4000E6FFEFCFE6FFD950490FE96EDACFEAFF90
:102E5000EECFE6FFEECFE6FFEECFE6FFEFCFE6FFE9
:102E6000F0EC24F0006E080EE15E0050010E00D080
:102E7000006E530EE15C02E2E16AE552E16E005041
:102E8000E552E7CFD9FF1200D9CFE6FFE1CFD9FF56
:102E90001B0EE126870EE66E15EC21F0E552020EC0
:102EA000F3CFDBFF030EF4CFDBFF930EE66E15ECE2
:102EB00021F0E552040EF3CFDBFF050EF4CFDBFF6C
:102EC000970EE66E15EC21F0E552080EF3CFDBFF0E
:102ED000090EF4CFDBFFE66AE66AE66AE66AE66AAE
:102EE000E66AE66AE66AE66AE66AE66AE66A060E9E
:102EF000DBCFE6FF070EDBCFE6FF040EDBCFE6FFFE
:102F0000050EDBCFE6FF020EDBCFE6FF030EDBCFC5
:102F1000E6FFD4EC10F0EECF00F0EECF01F0EECFF4
:102F200002F0EECF03F0EECF04F0EECF05F0EECFDF
:102F300006F0EECF07F0EECF08F0096E120EE15E5C
:102F400009500A0E00C0DBFF0B0E01C0DBFF0C0EA8
:102F500002C0DBFF0D0E03C0DBFF0E0E04C0DBFF63
:102F60000F0E05C0DBFF100E06C0DBFF110E07C001
:102F7000DBFF120E08C0DBFFD9500A0FE96EDACF73
:102F8000EAFF170EEECFDBFF180EEECFDBFF190EB8
:102F9000EECFDBFF1A0EEECFDBFF080EDBCFE6FF36
:102FA000090EDBCFE6FF65EC24F0E552E552130E87
:102FB0002EC0DBFF140E2FC0DBFF150E30C0DBFF71
:102FC000160E31C0DBFF130EDBCF00F0140EDBCF8B
:102FD00001F0150EDBCF02F0160EDBCF03F0346AE2
:102FE000356AA00E366EC00E376E00C02FF001C0DD
:102FF00030F002C031F003C032F021EC1BF0010AC6
:1030000002E0000E01D0010EE8B08A8AE8A08A9A98
:10301000130EDBCF00F0140EDBCF01F0150EDBCF6B
:1030200002F0160EDBCF03F0346A356AA00E366E5E
:10303000400E376E00C02FF001C030F002C031F0FA
:1030400003C032F018EC1BF0010A02E0000E01D0C0
:10305000010EE8B08B80E8A08B90170EDBCF00F05C
:10306000180EDBCF01F0190EDBCF02F01A0EDBCF0A
:1030700003F0346A356A366A400E376E00C02FF0AE
:1030800001C030F002C031F003C032F018EC1BF088
:10309000010A02E0000E01D0010EE8B08988E8A024
:1030A0008998170EDBCF00F0180EDBCF01F0190E58
:1030B000DBCF02F01A0EDBCF03F0346A356A366AD2
:1030C000C00E376E00C02FF001C030F002C031F0EA
:1030D00003C032F021EC1BF0010A02E0000E01D027
:1030E000010EE8B08B8AE8A08B9A8B50200B01E090
:1030F000010E026E8950100B01E0010E016E8B5023
:10310000010B006E8A50200B01E0010E001001102F
:10311000021002E0000E01D0010EE8B0898EE8A096
:10312000899E89AE2ED0EDEC24F0000926E0C4C0C3
:10313000E6FFC5C0E6FF41EC1FF0E552E552F3CFD4
:10314000DEFFF4CFDDFFD9CFE9FFDACFEAFFD00E03
:10315000D880EE54070EED540DE2DECF00F0DDCF47
:1031600001F0A00E005C0F0E015804E2899E898CCC
:10317000010E0DD0000E0BD004D08A8A8B80898876
:103180008B8AE6C0C4F0E7C0C5F0000E00D0006E28
:103190001B0EE15C02E2E16AE552E16E0050E5528D
:0631A000E7CFD9FF120089
:0A31A600299E08D0299E31AE05D005
:1031B000306C311EE86A3122298E31C02BF030C0CC
:1031C0002AF03B6A3A6A8E0E2C6E2D6A9BEF1BF03A
:1031D000299E0CD0299E31AE09D02E6C2F1E301E98
:1031E000311EE86A2F2230223122298E31C02BF085
:1031F00030C02AF02FC03BF02EC03AF09E0E2C6E4D
:103200002D6A9BEF1BF0377E296AD7EC1BF0EFECA1
:103210001BF029B67FEF1BF029A20AD029AA03D000
:1032200029BE7FEF1BF029A48BEF1BF088EF1BF06A
:1032300029AA05D029AC8BEF1BF088EF1BF029A041
:103240000AD029A808D029BE04D029A402D094EF1E
:103250001BF098EF1BF03A6A2D6A3750325C396EDA
:1032600010E32FC03BF030C02AF031C02BF032C049
:1032700038F034C02FF035C030F036C031F0293A84
:1032800009D034C03BF035C02AF036C02BF037C02F
:1032900038F0396C299E29BC298E38C02CF029B011
:1032A000C7EF1BF01A0E3960C7EF1BF02C6A326AA9
:1032B00029A408D02F6C301E311E321EE86A30223D
:1032C0003122322229AC08D03B6C2A1E2B1E2C1E28
:1032D000E86A2A222B222C222E6A395207E0323445
:1032E000313230322F322E32392EF9D72F503B2641
:1032F00030502A2231502B2232502C222EC03AF04C
:10330000299E2CAE0BD03A6C3B1E2A1E2B1E2C1E67
:10331000E86A3B222A222B222C22298E2CA006D0BE
:10332000D8802B322A323B323A32382A38C02CF03D
:103330009BEF1BF0296AD7EC1BF0EFEC1BF029B6D2
:103340007FEF1BF029A205D029BA7FEF1BF086EF93
:103350001BF029BA92EF1BF029A005D029B87FEF06
:103360001BF092EF1BF029B886EF1BF02D6A7F0E41
:1033700032242C6EE86A2D2237502C5EE86A2D5AD2
:103380001A0E386E326A3A6A3B6A2A6A2B6A3450DD
:103390002F5E3550305A3650315A000E325A09E7F6
:1033A00034502F263550302236503122000E322232
:1033B00001D03A8AD8902F36303631363236D8900E
:1033C0003A363B362A362B36382EE1D7315030107C
:1033D0002F10D8A43A8A9BEF1BF0296AD7EC1BF078
:1033E000EFEC1BF029B67FEF1BF029A205D029B81E
:1033F0007FEF1BF086EF1BF029AA05D029B07FEFE5
:103400001BF086EF1BF029B002D029A802D092EF62
:103410001BF02D6A375032242C6EE86A2D227E0E66
:103420002C5EE86A2D5A3A6A3B6A2A6A2B6A365041
:103430003102F4CF2BF0F3CF2AF035503102F350A4
:103440003B26F4502A22000E2B2236503002F35035
:103450003B26F4502A22000E2B2234503102F35026
:103460003A26F4503B22000E2A222B2235503002FD
:10347000F3503A26F4503B22000E2A222B223650DB
:103480002F02F3503A26F4503B22000E2A222B2220
:1034900034503002F4503A26000E3B222A222B22CE
:1034A00035502F02F4503A26000E3B222A222B22BE
:1034B0009BEF1BF0286A36AE63EF1AF0356C361EB0
:1034C000E86A3622281E31AE6BEF1AF0306C311EDE
:1034D000E86A3122281E94EC2DF031BE7BEF1AF001
:1034E00028AE000C306C311EE86A31222C6C2D1E87
:1034F000E86A2D22000C28BE72EF1AF02988FF0C12
:10350000286A36AE8BEF1AF0346C351E361EE86A28
:1035100035223622281E31AE95EF1AF02F6C301E60
:10352000311EE86A30223122281EFAEC2CF031BE1E
:10353000A8EF1AF028AE000C2F6C301E311EE86A7E
:10354000302231222B6C2C1E2D1E2C222D22000C01
:1035500028BE9CEF1AF02988FF0C286AE86A36AE6C
:10356000BAEF1AF0336C341E351E361E3422352263
:103570003622281E31AEC5EF1AF02E6C2F1E301EDB
:10358000311E2F2230223122281E95EC2CF031BE24
:10359000DCEF1AF028AE000C2E6C2F1E301E311EF0
:1035A000E86A2F22302231222A6C2B1E2C1E2D1E5F
:1035B0002B222C222D22000C28BECCEF1AF02988B9
:1035C000FF0C296AD7EC1BF029B6EBEF1AF029A201
:1035D0000FD029B407D07F0E316EFF0E306E2F6EE4
:1035E0002E6E25D0800E316E01D0316A000EF6D7D6
:1035F00029B0FBD72E6A9F0E3260EBD77E0E326465
:10360000F4D79E0E325C07E0D890313230322F3240
:103610002E32322AF6D729A40AD02E6C2F1E301E45
:10362000311EE86A2F223022312231AEDED712005D
:103630002AEC1BF029B6000C29B0000C29B4000CB0
:10364000010C2AEC1BF029B6000C29B0000C29A4AF
:10365000000C010C296AD7EC1BF0EFEC1BF029B62B
:10366000120029AE08D029A004D029A802D02980B0
:103670001200299012003750325C0BE13650315C59
:1036800008E13550305C05E134502F5C02E12980BF
:103690001200D8A002D0298E10D0325037C032F09C
:1036A000376E315036C031F0366E305035C030F0A4
:1036B000356E2F5034C02FF0346E3750325C10E02E
:1036C000FF0F09E0299029B403D029AE2984120004
:1036D00029AE29941200372AD89036323532343246
:1036E00034502F5E3550305A3650315A31BEEAD7F9
:1036F000D8902F3630363136322EF8D7C8D77F0ED5
:10370000326EFF0E316E306E2F6E12007F0E29BEAC
:10371000FF0E326E02D07F0E326E800E316E306A36
:103720002F6AF3D729AE04D0800E326E316AF7D7F4
:10373000326A316AF4D72B502A103B103A10F8E065
:103740002DBEF0D72BBE0CD02C502D10EBE0D89016
:103750003A363B362A362B362C06D8A02D06F2D721
:103760002D50D4E12C28D2E03AAE11D07F0E3A147D
:1037700002E13BA00CD03B2AE86A2A222B2207E375
:10378000D8802B322A323B322C2A2C28BFE02C50F6
:10379000C9E03BC02FF02AC030F02B34316E2C3002
:1037A000326E3132329E29BE328E85EF1BF03136B9
:1037B000323602E32984297E06E12980326A316AA1
:1037C000306A2F6A1200322803E0D88031321200AA
:1037D000D890313202E12982120029861200363651
:1037E000373602E3298C297E06E12988376A366A52
:1037F000356A346A1200372803E0D8803632120066
:10380000D8903632EAE1298A120031C03BF030C04C
:103810003AF030503502F4CF2FF0F3CF2EF0315084
:103820003602F4CF31F0F3CF30F03502F3502F26CB
:10383000F4503022E86A31223A503602F3502F26F3
:10384000F4503022E86A312236AE2BEF1CF03A50A9
:10385000305E3B50315A3BAE000C3550305E365036
:04386000315A000CCD
:0C38640000019A6B9B6BA00E9C6F410E44
:103870009D6F9E6B9F6B200EA06F410EA16FA26B80
:10388000A36BF00EA46F410EA56FCD0EA66FCC0EEC
:10389000A76F4C0EA86F3E0EA96FAA6BAB6BAC6BFB
:1038A0003F0EAD6F1200D9CFE6FFE1CFD9FF030E77
:1038B000E1268C0EDE6EDD6A040EF36E020EF3CF8F
:1038C000DBFFDBCFE6FFDECFE6FFDDCFE6FF9A0EC4
:1038D000E66E000EE66EB0EC21F0006E050EE15EC5
:1038E0000050020EDB50DE26000EDD22020EDBCF82
:1038F000E6FFDECFE6FFDDCFE6FF9E0EE66E000EB2
:10390000E66EB0EC21F0006E050EE15E0050020E96
:10391000DB50DE26000EDD22020EDBCFE6FFDECF1F
:10392000E6FFDDCFE6FFA20EE66E000EE66EB0EC1F
:1039300021F0006E050EE15E0050020EDB50DE2627
:10394000000EDD22020EDBCFE6FFDECFE6FFDDCF8D
:10395000E6FFA60EE66E000EE66EB0EC21F0006EFD
:10396000050EE15E0050020EDB50DE26000EDD2269
:10397000020EDBCFE6FFDECFE6FFDDCFE6FFAA0ECD
:10398000E66E000EE66EB0EC21F0006E050EE15E14
:103990000050020EDB50DE26000EDD22030EE15C3D
:1039A00002E2E16AE552E16EE552E7CFD9FF12008B
:1039B000D9CFE6FFE1CFD9FF030EE1268C0EDE6EF4
:1039C000DD6A040EF36E020EF3CFDBFFDBCFE6FF02
:1039D000DECFE6FFDDCFE6FF9A0EE66E000EE66E66
:1039E0003BEC21F0006E050EE15E0050020EDB5054
:1039F000DE26000EDD22020EDBCFE6FFDECFE6FF85
:103A0000DDCFE6FF9E0EE66E000EE66E3BEC21F08B
:103A1000006E050EE15E0050020EDB50DE26000E49
:103A2000DD22020EDBCFE6FFDECFE6FFDDCFE6FFD5
:103A3000A20EE66E000EE66E3BEC21F0006E050E67
:103A4000E15E0050020EDB50DE26000EDD22020E8B
:103A5000DBCFE6FFDECFE6FFDDCFE6FFA60EE66EAC
:103A6000000EE66E3BEC21F0006E050EE15E0050AC
:103A7000020EDB50DE26000EDD22020EDBCFE6FF5B
:103A8000DECFE6FFDDCFE6FFAA0EE66E000EE66EA5
:103A90003BEC21F0006E050EE15E0050020EDB50A3
:103AA000DE26000EDD22030EE15C02E2E16AE55251
:103AB000E16EE552E7CFD9FF1200D9CFE6FFE1CFA3
:103AC000D9FF030EE126640EDE6EDD6A020EF36E90
:103AD000F3CFDBFFDBCFE6FFDECFE6FFDDCFE6FF98
:103AE000AE0EE66E000EE66EB0EC21F0006E050E36
:103AF000E15E0050020EDB50DE26000EDD22020EDB
:103B0000DBCFE6FFDECFE6FFDDCFE6FFB00EE66EF1
:103B1000000EE66EB0EC21F0006E050EE15E005086
:103B2000020EDB50DE26000EDD22020EDBCFE6FFAA
:103B3000DECFE6FFDDCFE6FFB20EE66E000EE66EEC
:103B4000B0EC21F0006E050EE15E0050020EDB507D
:103B5000DE26000EDD22020EDBCFE6FFDECFE6FF23
:103B6000DDCFE6FFB40EE66E000EE66EB0EC21F09F
:103B7000006E050EE15E0050020EDB50DE26000EE8
:103B8000DD22020EDBCFE6FFDECFE6FFDDCFE6FF74
:103B9000B60EE66E000EE66EB0EC21F0006E050E7D
:103BA000E15E0050020EDB50DE26000EDD22020E2A
:103BB000DBCFE6FFDECFE6FFDDCFE6FFB80EE66E39
:103BC000000EE66EB0EC21F0006E050EE15E0050D6
:103BD000020EDB50DE26000EDD22030EE15C02E267
:103BE000E16AE552E16EE552E7CFD9FF1200D9CF85
:103BF000E6FFE1CFD9FF030EE126640EDE6EDD6A3B
:103C0000020EF36EF3CFDBFFDBCFE6FFDECFE6FF86
:103C1000DDCFE6FFAE0EE66E000EE66E3BEC21F069
:103C2000006E050EE15E0050020EDB50DE26000E37
:103C3000DD22020EDBCFE6FFDECFE6FFDDCFE6FFC3
:103C4000B00EE66E000EE66E3BEC21F0006E050E47
:103C5000E15E0050020EDB50DE26000EDD22020E79
:103C6000DBCFE6FFDECFE6FFDDCFE6FFB20EE66E8E
:103C7000000EE66E3BEC21F0006E050EE15E00509A
:103C8000020EDB50DE26000EDD22020EDBCFE6FF49
:103C9000DECFE6FFDDCFE6FFB40EE66E000EE66E89
:103CA0003BEC21F0006E050EE15E0050020EDB5091
:103CB000DE26000EDD22020EDBCFE6FFDECFE6FFC2
:103CC000DDCFE6FFB60EE66E000EE66E3BEC21F0B1
:103CD000006E050EE15E0050020EDB50DE26000E87
:103CE000DD22020EDBCFE6FFDECFE6FFDDCFE6FF13
:103CF000B80EE66E000EE66E3BEC21F0006E050E8F
:103D0000E15E0050020EDB50DE26000EDD22030EC7
:103D1000E15C02E2E16AE552E16EE552E7CFD9FFEC
:103D20001200D9CFE6FFE1CFD9FF030EE126B40E92
:103D3000DE6EDD6A020EF36EF3CFDBFFDBCFE6FF54
:103D4000DECFE6FFDDCFE6FFDD0EE66E000EE66EAF
:103D5000B0EC21F0006E050EE15E0050020EDB506B
:103D6000DE26000EDD22020EDBCFE6FFDECFE6FF11
:103D7000DDCFE6FFDB0EE66E000EE66EB0EC21F066
:103D8000006E050EE15E0050020EDB50DE26000ED6
:103D9000DD22020EDBCFE6FFDECFE6FFDDCFE6FF62
:103DA000DF0EE66E000EE66EB0EC21F0006E050E42
:103DB000E15E0050020EDB50DE26000EDD22030E17
:103DC000E15C02E2E16AE552E16EE552E7CFD9FF3C
:103DD0001200D9CFE6FFE1CFD9FF030EE126B40EE2
:103DE000DE6EDD6A020EF36EF3CFDBFFDBCFE6FFA4
:103DF000DECFE6FFDDCFE6FFDD0EE66E000EE66EFF
:103E00003BEC21F0006E050EE15E0050020EDB502F
:103E1000DE26000EDD22020EDBCFE6FFDECFE6FF60
:103E2000DDCFE6FFDB0EE66E000EE66E3BEC21F02A
:103E3000006E050EE15E0050020EDB50DE26000E25
:103E4000DD22020EDBCFE6FFDECFE6FFDDCFE6FFB1
:103E5000DF0EE66E000EE66E3BEC21F0006E050E06
:103E6000E15E0050020EDB50DE26000EDD22030E66
:103E7000E15C02E2E16AE552E16EE552E7CFD9FF8B
:023E800012002E
:0E3E8200D9CFE6FFE1CFD9FFFD0EDB500001E6
:103E9000E65D0001006EFE0EDB500001E7590001F7
:103EA000016E00C0F3FF01C0F4FF00D0E552E7CF80
:103EB000D9FF1200D9CFE6FFE1CFD9FFFD0EDB50CD
:103EC0000001E65D0001006EFE0EDB500001E759C7
:103ED0000001016EFB0EDBCF02F0FC0EDBCF03F026
:103EE0000050025C0150035802E3000E01D0010EA5
:103EF00000D0E552E7CFD9FF1200D9CFE6FFE1CFDE
:103F0000D9FF020EE126E6C0DEFFE7C0DDFF0001BB
:103F1000DE50E65D006EDD50E759016EFD0EDBCF31
:103F200002F0FE0EDBCF03F00250005C035001589C
:103F300001E2EDD7020EE15C02E2E16AE552E16ED8
:103F4000E552E7CFD9FF1200DBEC2CF0F3CF00F005
:103F5000F4CF01F0026A2F0E005EF80E015A000E37
:103F6000025A020E346E356A366A00C02FF001C064
:103F700030F002C031F080EC1AF02FC000F030C0F9
:103F800001F031C002F000C0F3FF01C0F4FF00D027
:103F90001200D9CFE6FFE1CFD9FF020EE126D4DF30
:103FA000F3CFDEFFF4CFDDFFDECF02F0DDCF03F095
:103FB00002C0E6FF03C0E6FFC7DFE552E7CF03F02C
:103FC000E552E7CF02F00250F35C006E0350F45864
:103FD000016EFD0EDBCF04F0FE0EDBCF05F00450CA
:103FE000005C0550015801E2DFD7020EE15C02E2FD
:103FF000E16AE552E16EE552E7CFD9FF1200D9CF71
:10400000E6FFE1CFD9FF040EE126480E006E3F0E19
:10401000016E026A036AE6C004F0E7C005F0E80E2C
:104020000502F3CF05F0030E0402F3500526E80E57
:104030000402F3CF04F0F4500526066A076A045020
:10404000002605500122065002220750032200C01C
:10405000DFFF010E01C0DBFF020E02C0DBFF030E1B
:1040600003C0DBFFDECF2EF0DECF2FF0DECF30F04F
:10407000DDCF31F0DD52DD52040EE15C03E200D011
:10408000E16AE552E16EE552E7CFD9FF1200D9CFE0
:10409000E6FFE1CFD9FFFB0EDBCF04F0FC0EDBCF58
:1040A00005F0FD0EDBCF06F0FE0EDBCF07F004C0FF
:1040B000E6FF05C0E6FF06C0E6FF07C0E6FF9FDF9C
:1040C000E552E7CF07F0E552E7CF06F0E552E7CF3C
:1040D00005F0E552E7CF04F0000104502E5C006EBD
:1040E00005502F58016E06503058026E0750315857
:1040F000036E00C02EF001C02FF002C030F003C0EC
:1041000031F000D0E552E7CFD9FF1200D9CFE6FF5A
:10411000E1CFD9FF060EE126640E006E016AFD0EA6
:10412000DBCF30F0FE0EDBCF31F000C035F001C048
:1041300036F094EC2DF0020E30C0DBFF030E31C0E0
:10414000DBFFFD0EDBCF00F0FE0EDBCF01F0640ED7
:10415000356E366A00C030F001C031F094EC2DF0BD
:104160002CC000F02DC001F00A0E356E366A00C07A
:1041700030F001C031F094EC2DF030C000F031C0CF
:1041800001F0040E00C0DBFFFD0EDBCF00F0FE0EE1
:10419000DBCF01F00A0E356E366A00C030F001C088
:1041A00031F094EC2DF02CC000F02DC001F0050E84
:1041B00000C0DBFFDE6ADD6ADECF00F0DDCF01F09C
:1041C000020EDBCF02F0030EDBCF03F00250005CE7
:1041D000035001580AE2500EE66E4FEC2DF0E55206
:1041E000DF2A010E01E3DB2AE7D7040EDB5008E0EB
:1041F000040EDB50080DF350E66E4FEC2DF0E55247
:10420000050EDB5008E0050EDB50080DF350E66E9E
:10421000D2EC2DF0E552060EE15C02E2E16AE552D5
:10422000E16EE552E7CFD9FF1200D9CFE6FFE1CF2B
:10423000D9FF320EE66EE66AACDEE552E552F30EC9
:10424000E66E7F0EE66EE6689BEC2BF0E552E552DB
:10425000E552FE0EDBCFE6FF7DEC2DF0E55207ECDC
:1042600000F0000901E0FBD719EC2EF000D0E55278
:10427000E7CFD9FF1200D9CFE6FFE1CFD9FF030E78
:10428000E126FB0EDBCF02F0FC0EDBCF03F0DE50AD
:104290000224006EDD500320016EFF0ED880005412
:1042A000030E015402E2000E4FD0DE6ADD6ADECF5B
:1042B00000F0DDCF01F0FA0EDB50026E036A02500F
:1042C000005C035001583EE2010EE66EE66AFD0E08
:1042D000DBCF02F0FE0EDBCF03F0DE500224006ED7
:1042E000DD500320016E00C0E6FF01C0E6FFD9509B
:1042F000020FE66E000EDA20E66EB3EC29F0046ED3
:10430000060EE15E04502EEC2EF0020EDBCFE6FF2F
:10431000FB0EDBCF02F0FC0EDBCF03F0DE500224FD
:10432000006EDD500320016E00C0E6FF01C0E6FF15
:1043300049EC2CF0E552E552E552DF2A010E01E38B
:10434000DB2AB5D7010E00D0006E030EE15C02E25D
:10435000E16AE552E16E0050E552E7CFD9FF120065
:10436000D9CFE6FFE1CFD9FF030EE126FB0EDBCF6D
:1043700002F0FC0EDBCF03F0DE500224006EDD50B5
:104380000320016EFF0ED8800054030E015402E298
:10439000000E4DD0DE6ADD6ADECF00F0DDCF01F029
:1043A000FA0EDB50026E036A0250005C03500158A3
:1043B0003CE2FB0EDBCF02F0FC0EDBCF03F0DE5065
:1043C0000224006EDD500320016E00C0E6FF01C034
:1043D000E6FFB9EC2CF0E552E552E76E020EE7CFAE
:1043E000DBFF010EE66EE66AD950020FE66E000EA4
:1043F000DA20E66EFD0EDBCF02F0FE0EDBCF03F01F
:10440000DE500224006EDD500320016E00C0E6FF86
:1044100001C0E6FFB3EC29F0046E060EE15E045025
:10442000DF2A010E01E3DB2AB7D7010E00D0006EB0
:10443000030EE15C02E2E16AE552E16E0050E552F2
:06444000E7CFD9FF1200D6
:0A444600D9CFE6FFE1CFD9FF006AED
:10445000016A026A036A00C02EF001C02FF002C098
:1044600030F003C031F000D0E552E7CFD9FF1200A1
:10447000D9CFE6FFE1CFD9FF080EE126FB0EDBCF57
:1044800000F0FC0EDBCF01F0FD0EDBCF02F0FE0EE4
:10449000DBCF03F0F70EDBCF04F0F80EDBCF05F037
:1044A000F90EDBCF06F0FA0EDBCF07F004C034F0D4
:1044B00005C035F006C036F007C037F000C02FF059
:1044C00001C030F002C031F003C032F003EC19F04B
:1044D0002FC0DEFF30C0DEFF31C0DEFF32C0DDFFA7
:1044E000DD52DD52D9CFE9FFDACFEAFFEECF04F09B
:1044F000EECF05F0EECF06F0EFCF07F09AC034F024
:104500009BC035F09CC036F09DC037F004C02FF042
:1045100005C030F006C031F007C032F0EDEC19F004
:104520002FC000F030C001F031C002F032C003F003
:10453000F30EDBCF0CF0F40EDBCF0DF0F50EDBCF7E
:104540000EF0F60EDBCF0FF09EC034F09FC035F0BA
:10455000A0C036F0A1C037F00CC02FF00DC030F075
:104560000EC031F00FC032F0EDEC19F02FC008F0A2
:1045700030C009F031C00AF032C00BF008C034F08E
:1045800009C035F00AC036F00BC037F000C02FF07C
:1045900001C030F002C031F003C032F003EC19F07A
:1045A000040E2FC0DBFF050E30C0DBFF060E31C04E
:1045B000DBFF070E32C0DBFF040EDBCF00F0050E81
:1045C000DBCF01F0060EDBCF02F0070EDBCF03F0EE
:1045D00000C02EF001C02FF002C030F003C031F057
:1045E000080EE15C03E200D0E16AE552E16EE552BB
:1045F000E7CFD9FF1200D9CFE6FFE1CFD9FF180EE0
:10460000E126F70EDBCF00F0F80EDBCF01F0F90E5C
:10461000DBCF02F0FA0EDBCF03F0F30EDBCF04F0BA
:10462000F40EDBCF05F0F50EDBCF06F0F60EDBCF98
:1046300007F004C034F005C035F006C036F007C0FE
:1046400037F000C02FF001C030F002C031F003C0DD
:1046500032F003EC19F02FC0DEFF30C0DEFF31C0B6
:10466000DEFF32C0DDFFDD52DD52EF0EDBCF00F0AA
:10467000F00EDBCF01F0F10EDBCF02F0F20EDBCF5C
:1046800003F0C30E346EB80E356E320E366E3E0E2B
:10469000376E00C02FF001C030F002C031F003C00F
:1046A00032F0EDEC19F0040E2FC0DBFF050E30C028
:1046B000DBFF060E31C0DBFF070E32C0DBFFD9CFB8
:1046C000E9FFDACFEAFFEECF04F0EECF05F0EECF50
:1046D00006F0EFCF07F0040EDBCF08F0050EDBCFBE
:1046E00009F0060EDBCF0AF0070EDBCF0BF008C097
:1046F00034F009C035F00AC036F00BC037F004C002
:104700002FF005C030F006C031F007C032F003ECE6
:1047100019F02FC000F030C001F031C002F032C0FB
:1047200003F0A2C034F0A3C035F0A4C036F0A5C099
:1047300037F000C02FF001C030F002C031F003C0EC
:1047400032F0EDEC19F0080E2FC0DBFF090E30C07F
:10475000DBFF0A0E31C0DBFF0B0E32C0DBFFFB0EAE
:10476000DBCF04F0FC0EDBCF05F0FD0EDBCF06F057
:10477000FE0EDBCF07F0346A356A366A400E376EBC
:1047800004C02FF005C030F006C031F007C032F091
:104790009AEC19F02FC000F030C001F031C002F0E7
:1047A00032C003F0080EDBCF08F0090EDBCF09F0B2
:1047B0000A0EDBCF0AF00B0EDBCF0BF008C034F093
:1047C00009C035F00AC036F00BC037F000C02FF03A
:1047D00001C030F002C031F003C032F003EC19F038
:1047E000100E2FC0DBFF110E30C0DBFF120E31C0E8
:1047F000DBFF130E32C0DBFFFB0EDBCF04F0FC0E41
:10480000DBCF05F0FD0EDBCF06F0FE0EDBCF07F0B1
:10481000346A356A366A400E376E04C02FF005C020
:1048200030F006C031F007C032F09AEC19F02FC01A
:1048300000F030C001F031C002F032C003F0080EC9
:10484000DBCF08F0090EDBCF09F00A0EDBCF0AF050
:104850000B0EDBCF0BF008C034F009C035F00AC0F6
:1048600036F00BC037F000C02FF001C030F002C0AE
:1048700031F003C032F004EC19F0140E2FC0DBFF4E
:10488000150E30C0DBFF160E31C0DBFF170E32C035
:10489000DBFFD950FB0FE96EFF0EDA20EA6E0C0E3B
:1048A000EECFDBFF0D0EEECFDBFF0E0EEECFDBFF0C
:1048B0000F0EEECFDBFF180EE15C02E2E16AE5527B
:0A48C000E16EE552E7CFD9FF1200C8
:0648CA00D9CFE6FFE1CFAB
:1048D000D9FF040EE126DFC030F0E0C031F0D5ECA6
:1048E00018F02FC004F030C005F031C006F032C01F
:1048F00007F0FD0EDBCF30F0FE0EDBCF31F0000114
:10490000DB51305C0C6EDC5131580D6E0CC030F058
:104910000DC031F0D5EC18F02FC008F030C009F010
:1049200031C00AF032C00BF008C034F009C035F0D5
:104930000AC036F00BC037F004C02FF005C030F0CD
:1049400006C031F007C032F0EDEC19F02FC000F0D6
:1049500030C001F031C002F032C003F0DDC030F0F1
:10496000DEC031F0D5EC18F02FC00EF030C00FF0E3
:1049700031C010F032C011F00EC034F00FC035F06D
:1049800010C036F011C037F000C02FF001C030F079
:1049900002C031F003C032F09AEC19F02FC0DEFFF4
:1049A00030C0DEFF31C0DEFF32C0DDFFDD52DD5240
:1049B000DECF2EF0DECF2FF0DECF30F0DDCF31F0C6
:1049C000DD52DD52040EE15C03E200D0E16AE55203
:1049D000E16EE552E7CFD9FF1200010E00D01200C0
:1049E000D9CFE6FFE1CFD9FFE552E7CFD9FF1200DB
:1049F000D9CFE6FFE1CFD9FF040EE1260001DB6B42
:104A0000DC6BDD6BDE6B140EDF6FE06B8B8A8998DD
:104A10008A9A8B90899CD00EE66E070EE66E7DEC2E
:104A20001FF0E552E5528988DC0EE66E050EE66E53
:104A30007DEC1FF0E552E552898CDE6ADE6ADE6AA3
:104A4000DD6ADD52DD52D9CFE9FFDACFEAFFD89037
:104A5000030EEB50000A08E6140EEE5C000EEE5852
:104A6000000EEE58000EEE581BE2970EE66E15ECA7
:104A700021F0E552F3500001DB27F450DC23320E25
:104A8000E66EE66A7DEC1FF0E552E552D9CFE9FF0C
:104A9000DACFEAFFEE2A000EEE22EE22EE22D3D784
:104AA000140E356E366ADBC030F0DCC031F05AECE3
:104AB0001AF030C0DBF031C0DCF0899C89988B8023
:104AC000DC0EE66E050EE66E7DEC1FF0E552E5525B
:104AD000898CDE6ADE6ADE6ADD6ADD52DD52D9CF9C
:104AE000E9FFDACFEAFFD890030EEB50000A08E6A0
:104AF000140EEE5C000EEE58000EEE58000EEE584E
:104B00001BE2970EE66E15EC21F0E552F350000122
:104B1000DD27F450DE23320EE66EE66A7DEC1FF0F0
:104B2000E552E552D9CFE9FFDACFEAFFEE2A000ECF
:104B3000EE22EE22EE22D3D7140E356E366ADDC099
:104B400030F0DEC031F05AEC1AF030C0DDF031C088
:104B5000DEF00001DC51DE19E8AE02D0DE3504D013
:104B6000DD51DB5DDE51DC5905E2DB51DD5FDC51FF
:104B7000DE5B06D0DD51DB5DDD6FDE51DC59DE6FC3
:104B80008988010EE66E0EEC2EF0E5528B8A010E3E
:104B9000E66E0EEC2EF0E5528A8A8B80899C82B4F8
:104BA00014D082A611D089988B9A8A9A8B90898C7E
:104BB000F40EE66E010EE66E7DEC1FF0E552E55256
:104BC000899CF36AF46A15D0EAD7E9EC1EF0898C67
:104BD000F40EE66E010EE66E7DEC1FF0E552E55236
:104BE00089988B9A8A9A8B90899C010EF36EF46A4D
:104BF00000D0040EE15C02E2E16AE552E16EE552AA
:064C0000E7CFD9FF12000E
:0A4C0600D9CFE6FFE1CFD9FF020E7F
:104C1000E126ACA2FED7720EE66E66EC2DF0E552F0
:104C2000720EDF6EACA2FED7FE0EDBCFE6FF66ECA7
:104C30002DF0E552FE0EDB50DF26010EDB6AFB0E87
:104C4000DB50F36E010EDBCFF4FFF350F45C26E291
:104C5000ACA2FED7010EDB50E76EFC0EDBCFE9FF06
:104C6000FD0EDBCFEAFFE750E926000EEA22EF5007
:104C7000E66E66EC2DF0E552010EDB50E76EFC0EA1
:104C8000DBCFE9FFFD0EDBCFEAFFE750E926000EA0
:104C9000EA22EF50DF26010EDB2AD1D7ACA2FED7E5
:104CA000DFCFE6FF66EC2DF0E552020EE15C02E29A
:104CB000E16AE552E16EE552E7CFD9FF1200D9CFA4
:104CC000E6FFE1CFD9FFE652DF6AABA204D00001D4
:104CD000E16BE26BE36BAB920001E151EA6AC70F53
:104CE000E96E000EEA22FE0EDBCFEFFFE1510BE191
:104CF000FE0EDB50720802E1000E01D0010E030D22
:104D0000F350E327CCD0E10501E0B2D0FE0EDBCFBB
:104D1000E4F0E4519F0A01E1A6D0820A01E1A0D0AB
:104D2000810A01E19AD0800A01E194D0870A01E169
:104D30008ED0810A01E188D0030A01E183D0830A81
:104D400001E17ED0030A01E179D0810A74E00F0A03
:104D50006FE0810A6AE0030A65E0800A60E0810A88
:104D60005BE0800A56E00A0A51E00D0A4CE0810A35
:104D700047E0800A42E0830A3DE0800A38E0810A89
:104D800033E0800A2EE09F0A29E0800A24E0010A2D
:104D90001FE0030A1AE0010A15E0070A10E0010A01
:104DA0000BE0810A06E0010A01E060D0020EE56F27
:104DB0005ED0020EE56F5BD0020EE56F58D0020E9A
:104DC000E56F55D0010EE56F52D0040EE56F4FD060
:104DD000040EE56F4CD0040EE56F49D0040EE56F6C
:104DE00046D0040EE56F43D0040EE56F40D0040EAC
:104DF000E56F3DD0040EE56F3AD0040EE56F37D075
:104E0000040EE56F34D0040EE56F31D0040EE56F6B
:104E10002ED0040EE56F2BD0040EE56F28D0040EC3
:104E2000E56F25D0040EE56F22D0040EE56F1FD08C
:104E3000040EE56F1CD0040EE56F19D0E56B17D09A
:104E4000E56B15D0E56B13D0010EE56F10D0020EA7
:104E5000E56F0DD0020EE56F0AD0020EE56F07D0A8
:104E6000010EE56F04D0010EE56F01D0E32B17D0E2
:104E7000E505E15D14E1FE0EDB50E25D02E1000EAE
:104E800001D0010EE824E327E35109E1E4519A0A35
:104E900001E003D0CAC0C6F000D0010EDF6EDF50C3
:104EA00002E1E35104E0E16BE26BE36B04D0FE0E40
:104EB000DB50E227E12BE552E552E7CFD9FF1200A4
:104EC000D9CFE6FFE1CFD9FFE652010EDF6E010E2A
:104ED000DF6E220EDF5C56E2010EDF14E8B0898837
:104EE000E8A08998020EDF14E8407F0BE8B08B8AB7
:104EF000E8A08B9A040EDF14E840E8403F0BE8B0CE
:104F00008A8AE8A08A9A080EDF14E840E840E84060
:104F10001F0BE8B08B80E8A08B90100EDF14E838F0
:104F20000F0BE8B0898CE8A0899C200EDF14E00B01
:104F3000E838E840E8B0898EE8A0899E970EE66ED2
:104F400015EC21F0E552F3CF00F0F4CF01F000C0F2
:104F5000E6FF01C0E6FF540EE66E5B0EE66E000E45
:104F6000E66E60EC2AF0026E050EE15E0250F40E71
:104F7000E66E010EE66E7DEC1FF0E552E552DF9E17
:104F8000DF46A7D7A4D78B78F40EE66E010EE66E47
:104F90007DEC1FF0E552E552F6D7FFD7E552E5521A
:104FA000E7CFD9FF1200D9CFE6FFE1CFD9FFE65214
:104FB000010EDF6E2FEC29F032EC1CF05DEC1DF0E1
:104FC00091EC1EF0E80EE66E030EE66E7DEC1FF02F
:104FD000E552E55244EC17F0010802E0000E01D062
:104FE000010E000E00091FE0010EE66E67EC14F0E2
:104FF000E552010EDF6EDF5016E0E66A67EC14F052
:10500000E552000901E1DF6A010EE66EE60EE66E8A
:10501000000EE66E9B0EE66E03EC26F0E552E552BE
:10502000E552E552E8D782A602D0F7EC0EF082A452
:1050300002D0F8EC24F0970EE66E15EC21F0E55264
:10504000F3CF04F0F4CF05F004C0E6FF05C0E6FF9F
:1050500065EC24F0E552E5522EC000F02FC001F0BF
:1050600030C002F031C003F000C0E6FF01C0E6FF2F
:1050700002C0E6FF03C0E6FFDDC0E6FFDEC0E6FFDC
:10508000DBC0E6FFDCC0E6FF970EE66E15EC21F014
:10509000E552F3CF06F0F4CF07F006C0E6FF07C0F5
:1050A000E6FF610EE66E5B0EE66E000EE66E60ECED
:1050B0002AF0086E0D0EE15E08508CD7FFD7E5523E
:0850C000E552E7CFD9FF120011
:0850C800DACFE4FFE2CFDAFFCA
:1050D000E9CFE4FFEACFE4FFF6CFE4FFF7CFE4FF48
:1050E000F5CFE4FFF3CFE4FFF4CFE4FFFACFE4FF22
:1050F00000EE28F0140EE80403E3EECFE4FFFBD744
:1051000000EE00F0280EE80403E3EECFE4FFFBD747
:10511000E652A1A20DD02F0EE66EF80EE66E17EC49
:105120002DF0E552E5520001E62B000EE723A19297
:10513000F2B2F292E55200EE27F0280EE80403E303
:10514000E5CFEDFFFBD700EE3BF0140EE80403E3E0
:10515000E5CFEDFFFBD7E5CFFAFFE5CFF4FFE5CFD5
:10516000F3FFE5CFF5FFE5CFF7FFE5CFF6FFE5CF9E
:10517000EAFFE5CFE9FFE5CFDAFF1100DACFE4FF80
:10518000E2CFDAFFE9CFE4FFEACFE4FFF6CFE4FFB6
:10519000F7CFE4FFF5CFE4FFF3CFE4FFF4CFE4FF74
:1051A000FACFE4FF00EE28F0140EE80403E3EECF9C
:1051B000E4FFFBD700EE00F0280EE80403E3EECF97
:1051C000E4FFFBD7E652D9CFE6FFE1CFD9FFE652A5
:1051D000F0A003D028EC00F0F090F0A203D071EC26
:1051E00000F0F0929EAA08D0AE50DF6EDFCFE6FF4F
:1051F0005FEC26F0E5528C76A4AA03D07450DF6EE3
:105200008C747EB27E92F2A402D08B72F294E5523C
:10521000E552E7CFD9FFE55200EE27F0280EE8046B
:1052200003E3E5CFEDFFFBD700EE3BF0140EE804FF
:1052300003E3E5CFEDFFFBD7E5CFFAFFE5CFF4FFC2
:10524000E5CFF3FFE5CFF5FFE5CFF7FFE5CFF6FFBD
:0E525000E5CFEAFFE5CFE9FFE5CFDAFF110079
:02525E00D388F3
:10526000D38AD38CD392D3909B8CD3A4FED7928035
:105270009282928492869298928A929C929E938035
:105280009382938493869388939A938C938E94902D
:105290009492948494869498949A949C948E9580F5
:1052A0009582959495969598958A959C958E9680DD
:1052B00096829684806A816A826A836A846A0F0110
:1052C000386B396B3A6B3B6B3C6B38813883388B6E
:1052D0003C813C833C85E66A9B0EE66ECBEC2BF072
:1052E000E552E5522F0EE66EF80EE66E17EC2DF045
:1052F000E552E552A282960EE66E33EC2DF0E552B1
:10530000F194FD0EE66E70EC2CF0E552BD0EE66EEB
:105310001FEC2CF0E552BD0EE66EF5EC2BF0E552DD
:10532000190EE66EE66A6C0EE66E2AEC2BF0E5527C
:10533000E552E5529F9A190EE66EE66A6C0EE66E2D
:10534000EEEC2AF0E552E552E552A59AF292F2947B
:10535000F090F0929E9AA192A49A7E92D08EF28CB6
:06536000F28E00D01200E5
:0A536600D9CFE6FFDACFE6FFFA0E1A
:10537000E3CFD9FFFB0EE3CFDAFFFC0EE3CFE9FF6B
:10538000FD0EE3CFEAFFE9CFF3FFEACFF4FFF80E1B
:10539000E35003E1F90EE35008E0F80EE30602E201
:1053A000F90EE306DECFEEFFF2D7FF0EE3CFDAFF12
:1053B000E552FF0EE3CFD9FFE5521200FE0EE3CF18
:1053C000E9FFFF0EE3CFEAFFF36AF46AEE5203E06F
:1053D000F34AF42AFBD71200FF0EE3CFF8FFE552A1
:1053E000FF0EE3CFF7FFE552FF0EE3CFF6FFE552E6
:1053F000E66AE66AE66A0900F55209E0FD0EE32A6C
:1054000005E1FE0EE32A02E1FF0EE32AF4D7FD0ECA
:10541000E3CF2FF0FE0EE3CF30F0FF0EE3CF31F0FD
:02542000120078
:0E5422001E0EF66E000EF76E000EF86E000104
:105430000900F550D66F0900F550D76F03E1D66724
:1054400001D03DD00900F550D16F0900F550D26F61
:105450000900F550D36F09000900F550E96E090005
:10546000F550EA6E090009000900F550D46F0900F3
:10547000F550D56F09000900F6CFD8F0F7CFD9F075
:10548000F8CFDAF0D1C0F6FFD2C0F7FFD3C0F8FFF3
:105490000001D45302E1D55307E00900F550EE6E48
:1054A000D407F8E2D507F9D7D8C0F6FFD9C0F7FF7F
:1054B000DAC0F8FF0001D607000ED75BBFD7120095
:1054C000D9CFE6FFDACFE6FFE1CFD9FFE2CFDAFFAF
:1054D000E652E652E652E652D950FB0F006EFF0E3E
:1054E000DA20016E00C0DEFFDD6EDECFE6FFDDCF2D
:1054F000E6FFFB0EDBCFE6FFFC0EDBCFE6FFFD0E8B
:10550000DBCFE6FFE8C0E6FFE9C0E6FFFCEC08F011
:10551000006E070EE15C02E2E16AE552E16E0050C6
:10552000020EF3CFDBFF030EF4CFDBFF020EDBCF67
:1055300000F0030EDBCF01F000C0F3FF01C0F4FF69
:10554000040EE15C02E2E16AE552E16EE552E5CF6C
:08555000DAFFE7CFD9FF1200DA
:08555800D9CFE6FFDACFE6FF30
:10556000E1CFD9FFE2CFDAFFFB0EDBCF00F0FC0E7C
:10557000DBCF01F00001800E01141AE1FB0EDBCF3E
:10558000E9FFFC0EDBCFEAFFEECFF3FFEDCFF4FF38
:10559000EE2A000EEF22F3CFE9FFF4CFEAFFFD0E73
:1055A000DBCFEFFFEF50016AF36E01C0F4FF10D0C4
:1055B000FB0EDB50FE0806E1FD0EDBCFE6FF00EC44
:1055C0002EF005D0FD0EDBCFE6FF03EC00F0E55238
:0C55D000E552E5CFDAFFE7CFD9FF12006B
:0455DC00D9CFE6FF3E
:1055E000DACFE6FFE1CFD9FFE2CFDAFF726A716A64
:1055F000FD0EDBB07288DBA202D0728C718CDBB442
:10560000728EDBA602D0718801D0718ADBA802D02D
:10561000728401D07294DBBA7186DBAC02D0A38AAB
:1056200001D0A39ADBAE02D0A38801D0A398FB0ED1
:10563000DB50756EFC0EDBCF01F001C000F0016A9B
:105640000050766E728A718EE552E5CFDAFFE7CFB1
:04565000D9FF12006C
:0C565400D9CFE6FFDACFE6FFE1CFD9FFA7
:10566000E2CFDAFFAC6AAB6AFD0EDBB0AC88DBA23E
:1056700002D0AC8CAB8CDBB4AC8EDBA602D0AB889A
:1056800001D0AB8ADBB8AC84DBBAAB86DBAC02D032
:105690009D8A01D09D9ADBAE02D09D8801D09D9855
:1056A000FB0EDB50AF6EFC0EDBCF01F001C000F053
:1056B000016A0050B06EAC8AAB8EE552E5CFDAFFDE
:0656C000E7CFD9FF120044
:0A56C6002E503302F3CF2AF0F4CF88
:1056D0002BF03402F3502B26000EF4202C6E2E50AB
:1056E0003502F3502C26000EF4202D6E2E5036027B
:1056F000F3502D262F503302F3502B26F4502C223A
:10570000000E2D222F503402F3502C26F4502D225F
:105710002F503502F3502D2630503302F3502C26F3
:10572000F4502D2230503402F3502D2631503302E4
:06573000F3502D261200CB
:0A573600D9CFE6FFDACFE6FFE1CF9E
:10574000D9FFE2CFDAFFC26AC16AC06AFC0EDB5041
:105750007C0BC26EFB0EDB50C16EFD0EDB50040DE8
:10576000F350380B016EFD0EDB380F0B070B006E8C
:10577000FD0EDB50800B00100110C06EFC0EDBAE86
:1057800003D09E9C9D8CF28CC280E552E5CFDAFF5F
:06579000E7CFD9FF120073
:0A579600D9CFE6FFDACFE6FFE1CF3E
:1057A000D9FFE2CFDAFFFC0EDB50F30BB46EFD0E37
:1057B000DB507F0BE824B16EB36AB26AA192A49267
:1057C000FD0EDBAE02D0A08201D0A092FC0EDBA4C5
:1057D00002D0A38201D0A392B4BEB486B180E552B8
:0A57E000E5CFDAFFE7CFD9FF120092
:0657EA00D9CFE6FFDACF83
:1057F000E6FFE1CFD9FFE2CFDAFFF092FD0EDBA2A8
:1058000002D0F18801D0F198DBA002D0F18E01D056
:10581000F19E9384DBAC02D0F18001D0F190DBAC3F
:1058200002D0F08E01D0F09EDBAE02D0F08801D025
:0E583000F098E552E5CFDAFFE7CFD9FF12007E
:02583E00D9CFC0
:10584000E6FFDACFE6FFE1CFD9FFE2CFDAFFF09053
:10585000FD0EDBA202D0F18A01D0F19ADBA002D0CA
:10586000F18E01D0F19EDBAC02D0F18001D0F1903D
:10587000DBAC02D0F08C01D0F09C9382DBAE02D086
:10588000F08601D0F096E552E5CFDAFFE7CFD9FFF9
:02589000120004
:0E589200D9CFE6FFDACFE6FFE1CFD9FFE2CFB4
:1058A000DAFFFF0EE76EFC0EDBCF00F0E7500016CC
:1058B0000050A96EFB0EDB50A86EA69EA69CA68487
:1058C000F29E550EA76EAA0EA76EA682A6B2FED7AE
:1058D000F28EA694E552E5CFDAFFE7CFD9FF1200AA
:1058E000D9CFE6FFDACFE6FFE1CFD9FFE2CFDAFF8B
:1058F000F292FD0EDBA202D0F18C01D0F19CDBA074
:1059000002D0F18E01D0F19E9380DBAC02D0F18009
:1059100001D0F190DBAE02D0F28801D0F298E552CE
:0A592000E5CFDAFFE7CFD9FF120050
:06592A002D6A2C6A2B6AB5
:105930002A6A200EE76ED8902E362F363036313652
:105940002A362B362C362D3633502A5C34502B58C1
:1059500035502C5836502D5809E333502A5E3450B8
:105960002B5A35502C5A36502D5A2E2AE72EE4D772
:02597000120023
:0E597200D9CFE6FFDACFE6FFE1CFD9FFE2CFD3
:10598000DAFFFF0EE76EFC0EDBCF00F0FD0EDBCF83
:1059900001F0E7500016016A0050A96EA69CA69E71
:1059A000A68000000000A85000D0E552E5CFDAFF45
:0659B000E7CFD9FF120051
:0A59B600D9CFE6FFDACFE6FFE1CF1C
:1059C000D9FFE2CFDAFFE652E652B250DF6E010EA7
:1059D000B3CFDBFFDECF00F0DDCF01F000C0F3FF7F
:1059E00001C0F4FFE552E552E552E5CFDAFFE7CF1B
:0459F000D9FF1200C9
:0C59F4002D6A2C6A2B6A180EE76ED89002
:105A00002F36303631362B362C362D3634502B5C33
:105A100035502C5836502D5807E334502B5E3550F6
:0E5A20002C5A36502D5A2F2AE72EEAD71200A4
:025A2E00D9CFCE
:105A3000E6FFDACFE6FFE1CFD9FFE2CFDAFFE652A9
:105A4000E652FC0EDBCFDEFFDBCFDDFF010EDB50CD
