:020000040000FA
:060000008DEF18F0120064
:020006001200E6
:06000800BDEF13F0120031
:02000E00C250DE
:08001000020B01E0010E1200D9
:0600180017EF14F01200C6
:02001E000500DB
:10002000B03100009900000002000000AB31000078
:100030009000000005000000A931000097000000BA
:1000400002000000A43100008B0000000500000049
:0C005000A231000095000000020000003A
:04005C006AEC05F055
:10006000FB0EDBCFF3FFDB06F35000090AE0B8EC30
:1000700005F0FA0E23EC06F0F3E1151CF1E1010E98
:1000800001D0000E99EF05F06AEC05F03B0EE1247B
:1000900002E3E168E652E16E010EDB6A020EDB6A02
:1000A000F90EDBCFF6FFFA0EDBCFF7FFFB0EDBCF4F
:1000B000F8FF0800F550DF6EDF5002E1BDEF04F0FD
:1000C000250EDF5C02E0B0EF04F0030EDB6A040EE5
:1000D000DB6A050EDB6A060EDB6A070EDB6AD2EC12
:1000E00004F02D0EDF5C0CE02B0EDF5C09E0200E2F
:1000F000DF5C06E0230EDF5C03E0300EDF5C1AE11C
:10010000DF50300A14E0130A0FE0030A0AE00B0A7A
:1001100005E0060AE4E1030EDB80E1D7030EDB8293
:10012000DED7030EDB84DBD7030EDB86D8D7030EC6
:10013000DB88D5D72A0EDF5C1BE1CEEC04F01CEC8B
:1001400005F010E0030EDB8008680968130EDBCFB2
:100150000DF0140EDBCF0EF090EC13F0040E06C081
:10016000DBFF03D0130E05EC05F0D2EC04F00BD04E
:10017000090EDB6A73EC05F003E0E7EC05F0FAD753
:10018000090E05EC05F0030EDBB0DB982E0EDF5CEC
:100190001BE1D2EC04F02A0EDF5C0BE1CEEC04F0A4
:1001A0001CEC05F003E1130E57EC05F0D2EC04F063
:1001B0000BD0090EDB6A73EC05F003E0E7EC05F009
:1001C000FAD7090E57EC05F0680EDF5C07E1D2ECB8
:1001D00004F0680EDF5C1DE1030E18D0740EDF5CC6
:1001E00017E07A0EDF5C14E0480EDF5C06E0540E88
:1001F000DF5C03E05A0EDF5C02E1020E07D06C0EFA
:10020000DF5C03E06A0EDF5C04E1010EAAEC05F09E
:10021000C9DBDF506E0A01E17FD31E0A01E192D1F2
:10022000200A01E18FD13F0A01E149D11A0A01E117
:1002300046D10D0A01E143D1200A01E140D13A0A39
:1002400001E13DD1200A01E13AD1260A01E135D18F
:100250000D0A01E132D11A0A01E1D9D0200A4AE09F
:10026000300A1FE0460A0EE0250A01E083D3D95088
:10027000F90FE96EFF0EDA20EA6E010EEE5E000E57
:10028000EE5AEE5AB8EC05F0250EE66E95DB03E16A
:10029000151C01E169D3B4EC05F001E26BD3DB2A54
:1002A00069D3080EDB6A040EDB50010806E2040E77
:1002B000DB047CEC05F0DB508BDB080EDB5009E047
:1002C000030EDB50010B05E172DB01E04DD3080E9C
:1002D000DB6A64DBEFCFDFFF2CEC06F003E1151CDB
:1002E00001E142D3B4EC05F001E3DB2A60DB01E17C
:1002F00041D33AD3070EDB5002080FE1F8EC05F0CA
:10030000030EBFEC05F00E0EEECFDBFF0F0EEECFAF
:10031000DBFF100EEECFDBFF20D0F70EDBCF17F0A8
:10032000F80EDBCF18F0020E175E000E185AF70E0B
:1003300017C0DBFFF80E18C0DBFF17C0E9FF18C0BD
:10034000EAFFAFEC05F0166A0E0E14C0DBFF0F0ECD
:1003500015C0DBFF100E16C0DBFF0E0EDBCFE6FF75
:100360000F0EDBCFE6FF100EDBCFE6FF72EC14F0D2
:10037000E552E552E552130E07C0DBFF140E08C02C
:10038000DBFF060EDB5005E0130EF3EC05F001E297
:100390006ADB17EC06F002E2130E37DBDAEC05F04D
:1003A00006E0040EF3EC05F002E2050E2EDB030E70
:1003B000DBB005D0FCDA01E0D7D2080EDB6A090E0B
:1003C000DB6A0E0EDBCFF6FF0F0EDBCFF7FF100E52
:1003D000DBCFF8FF0800F550DF6EDF5014E01DECB6
:1003E00006F011E22CEC06F003E1151C01E1BCD291
:1003F000BBDB01E3DB2A090EDB2AD9500E0FE96EC5
:10040000000ECBDBE7D7D3DA01E1B4D2ADD2C6DA46
:10041000110EEECFDBFF120EEDCFDBFF110EDBCFA7
:10042000E6FF120EDBCFE6FF64EC14F0E552E55276
:10043000130EF3CFDBFF140EF4CFDBFF060EDB5001
:1004400004E0130ED0DB01E20EDB17EC06F002E253
:10045000130EDBDAAFDB05E0040EC5DB02E2050EAE
:10046000D4DA030EDBB005D0A2DA01E07DD2080EAB
:10047000DB6A090EDB6A110EDBCFE9FF120EDBCF60
:10048000EAFFEFCFDFFFDF5014E0D7DB12E2E4DB5F
:1004900003E1151C01E168D267DB01E3DB2A090EE9
:1004A000DB2A110EDB2ADBCFE9FF120EE8E3DB2AA1
:1004B000E6D77DDA01E15ED257D2030EDB8E070E5E
:1004C000DB0410E195DB040E5ADB0A0EEECFDBFFF6
:1004D0000B0EEECFDBFF0C0EEECFDBFF0D0EEECFE3
:1004E000DBFF6CD0070EDB5003082CE1030EDBAE04
:1004F0000DD0B2DA020E76DAEFCF14F0156A166A72
:10050000176A14AE39D01568166835D0F70EDBCFF0
:1005100015F0F80EDBCF16F0020E155E000E165A1F
:10052000F70E15C0DBFFF80E16C0DBFF15C0E9FFA4
:1005300016C0EAFFEFCF14F00A0E14C0DBFF0B0E5B
:10054000DB6A38D0070EDB50020809E1030EDBAE90
:1005500004D059DB16AE10D00ED055DB0DD0030EF3
:10056000DBAE12D079DA020E3DDAF9DA166A176AD2
:1005700015AE02D016681768E2DA0C0E16C0DBFF63
:100580000D0E17C0DBFF1AD0F70EDBCF16F0F80EFA
:10059000DBCF17F0020E165E000E175AF70E16C0CC
:1005A000DBFFF80E17C0DBFF16C0E9FF17C0EAFF3C
:1005B000D6DAC5DA0C0EDB6A0D0EDB6A060EDB50EE
:1005C00005E1010EF36E050EF3CFDBFF150EDB6ABE
:1005D000160EDB6AD950370F146E000EDA20156E36
:1005E000390E14C0DBFF3A0E15C0DBFF380EDB6A94
:1005F000080EDB6A0A0EAEDADF50780A12E0200A33
:1006000010E0280A0CE0200A0AE03F0A06E00D0A82
:1006100002E0200A08E1020E05D0080E03D0080E01
:10062000DF26100E97DA030EDBBE02D0DB92DB94DE
:10063000DB50800B24E08ADAD890030EEB50000ADE
:1006400008E6000EEE5C000EEE58000EEE58000EAE
:10065000EE5815E213DA0B680C680D680E68E9ECC9
:1006600015F00A0E02C0DBFF0B0E03C0DBFF0C0E01
:1006700004C0DBFF0D0E05C0DBFF2D0E08D0030EFE
:10068000DBA202D02B0E03D0DBA408D0200EF36E29
:10069000170EF3CFDBFF150EDB2A02D0170EDB6A35
:1006A000050EDB5003E1B7D901E189D07A0E146E53
:1006B000310E156E000E166E070EDBCF17F0186A9E
:1006C000196A1A6A17C00BF018C00CF019C00DF0A7
:1006D0001AC00EF0D3D947EC17F014500224F36E71
:1006E00015500320F46E16500420F86EF4CFF7FF77
:1006F000F3CFF6FF0800090EF5CFDBFF580EDF5CE5
:100700000FE1610EF36E090E7BD90AE3200E146E21
:10071000090EDBCFE7FF1450E75E090EE7CFDBFFE2
:10072000070EDBCF14F0156A166A176A0FDA14C0C9
:100730000BF015C00CF016C00DF017C00EF0EECF88
:1007400006F0EECF07F0EECF08F0EFCF09F047EC60
:1007500017F009C0EDFF08C0EDFF07C0EDFF06C0B0
:10076000EFFF390EDBCFE9FFDB063A0EDBCFEAFF06
:1007700001E2DB06090EDBCFEFFF150EDB2A4BD9BA
:1007800095E1030EDBA61DD06F0EDF5C06E1C1D93B
:1007900018E3150EDB285BDA14D0780EDF5C09E075
:1007A000580EDF5C06E0620EDF5C03E0420EDF5CA9
:1007B00008E1020EF36E160EF3CFDBFF02D0150E2A
:1007C000DB6A030EDB50100B0EE0040EDBCF14F0DF
:1007D000050EDB50D880145406E2060EDB5003E110
:1007E000040EDB5034DA95D90AE2050EDBCFE7FFC1
:1007F000150EDB50E75E050EE7CFDBFF02D0050EDE
:10080000DB6A040EDBCF14F0160E45D9D8801454E1
:1008100014E2160EDBCFE6FF150EDBCFE6FF040E6B
:10082000DBCFE6FF050EDB50E552E75CE552D880F2
:10083000E754E552D880E7545FD9030EDB50010B33
:100840000BE1080EDB5008E0B2D801E08DD0080EB5
:10085000DB50BED8080EDB6A170EDB5007E088D9E4
:10086000170EF1D903E1151C01E17ED0160EDB5005
:1008700016E07ED9300EE66E9FD802E1151C74E0BA
:1008800077D9DFCFE6FF32EC15F0E552E552E552BD
:10089000F4CF15F00001F31C02E1151C65E0050E14
:1008A000DBCF14F0160EDB50D880145409E2050E8D
:1008B000DBCFE7FF160EDB50E75E050EE7CFDBFF71
:1008C000300EE66E050ECBD94FE1390EDB2ADBCFB9
:1008D000E9FF3A0E01E3DB2ADBCFEAFF090EEFCF97
:1008E000DBFFDB500EE044D9090EADD902E1151C47
:1008F0003BE0390EDB2ADBCFE9FF3A0EEDE3DB2AE2
:10090000EBD755D831E1160EDBCFE6FF080EC3D882
:10091000E552E7245DD82ED0070EDB50030A1CE019
:10092000010A14E0030A07E07BD9DBCFEEFF020ED9
:10093000DBCFEDFF1FD0F5D8196A17AE02D01868CB
:1009400019682CD8BCD819C0EEFF14D0EAD817BE4D
:10095000186824D8B4D80ED063D9DBCFEFFF0AD003
:100960007BD905E1151C03E1F368F46810D0FCD8CD
:1009700001E3DB2A79D959EF00F0010EDBCF14F047
:10098000020EDBCF15F014C0F3FF15C0F4FF3B0ED1
:10099000E15C02E2E16AE552E16ECBD029D9020EB8
:1009A000BFEF05F061D90800F550DF6E1200200E90
:1009B000E66E080E2FEF06F032EC15F0E552E55228
:1009C000E552F3CF14F0F4CF15F00001F31C120040
:1009D000146E156AD950010F4DD91450EE261550DA
:1009E000ED221200185E000E195AF70E18C0DBFF38
:1009F000F80E19C0DBFF18C0E9FF19C0EAFF1200AA
:100A0000DBCFF4FFF350F45C1200DB50E76E040E12
:100A1000E7CFDBFF12000A0EDBCF14F00B0EDBCFAB
:100A200015F00C0EDBCF16F00D0EDBCF17F01450C7
:100A30001510161017101200130EEECFDBFF140E58
:100A4000EDCFDBFF130EDBCF14F0140EDBCF15F070
:100A50000001800E15141200F70EDBCF18F0F80E0F
:100A6000DBCF19F01200050EDB50E66ED950130FE4
:100A700001D9E552E750EE6EED6A12000A0EDBCFA7
:100A800006F00B0EDBCF07F00C0EDBCF08F00D0EDF
:100A9000DBCF09F01200DBCFE6FF150EDBCFE6FF60
:100AA000050EDB50E552E724E552E7241200DB5047
:100AB000CED8010EF36E060EF3CFDBFF1200EE5020
:100AC000EFCFEAFFE96E16C0EEFF17C0EEFF18C0C9
:100AD000EEFF1200D9CFE6FFDACFE6FFE1CFD9FF74
:100AE000E2CFDAFF1200DFCFE6FFE66A5BEC18F038
:100AF000E552E552F3501200E76E080EE7CFDBFF38
:100B00001200EECF14F0EECF15F0EFCF16F0176A0B
:100B10001200050EDBCF14F0150EDB50D8801454F4
:100B20001200010EDBCF16F0020EDBCF17F0186AB1
:100B30001200E552E5CFDAFFE7CFD9FF12000A0E27
:100B400014C0DBFF0B0E15C0DBFF1200D9500A0FDB
:100B50003AEF06F0F36E070EF3CFDBFF1200EECF95
:100B600014F0EFCF15F01200010EDB2A020E120076
:100B7000FC0EDBCFE6FFFD0EDBCFE6FF1200145EBE
:100B8000000E155AF70E14C0DBFFF80E15C0DBFF80
:100B900014C0E9FF15C0EAFF1200DA20EA6EEF2A5E
:100BA000EECFF6FF000EEF22EECFF7FFEF22EECFF3
:100BB000F8FF1200040EDBCFE6FF130EDB50E55208
:100BC000E75C9ADFDB5004DF060EDB501200090EF3
:100BD000DB500A0DF350DF24D00FE76E090EE7CF8C
:100BE000DBFFD2EF04F0DB50F36E050E00EF05F0F3
:100BF000F70EDBCF14F0F80EDBCF15F01200DFCFCD
:100C0000E6FFDCEF04F028DF030EECDE81EF05F0F9
:100C10002EEC00F0E552E552E552E55200091200D3
:100C2000BDDEEE50EFCFEAFFE96E010E1200130EAB
:100C3000DB50F36E040E00EF05F0040EDB50F36E94
:100C4000090E00EF05F0DBCFE6FFDCEF04F0E76E06
:100C5000050EE7CFDBFF12008BDFFFEF05F0DBCFE8
:100C6000E6FF86DF08EF06F0D950F90FE96EFF0EB8
:0E0C7000CDEF05F0E96E000EDA20EA6E1200FC
:020C7E00D9CFCC
:100C8000E6FFE1CFD9FF080EE126DE6ADE6ADE6A02
:100C9000DD6ADD52DD5289888B9A8A9A8B90899C15
:100CA000D00EE66E070EE66EE8EC0AF0E552E5526D
:100CB0008A8ADC0EE66E050EE66EE8EC0AF0E55276
:100CC000E552898C040EDB6A050EDB6A060EDB6AD0
:100CD000070EDB6AD950040FE96EDACFEAFFD8902D
:100CE000030EEB50000A08E6140EEE5C000EEE5800
:100CF000000EEE58000EEE5830E2870EE66E6EECF7
:100D00000CF0E552F35000016A27F4506B23930E68
:100D1000E66E6EEC0CF0E552F35000017027F450D3
:100D20007123830EE66E6EEC0CF0E552F350000179
:100D30007227F4507323320EE66EE66AE8EC0AF08E
:100D4000E552E552D950040FE96EDACFEAFFEE2AF8
:100D5000000EEE22EE22EE22BDD7140E0D6E0E6AAC
:100D60006AC008F06BC009F036EC13F008C06AF0F6
:100D700009C06BF0140E0D6E0E6A70C008F071C0E1
:100D800009F036EC13F008C070F009C071F0140ED1
:100D90000D6E0E6A72C008F073C009F036EC13F0E5
:100DA00008C072F009C073F08A9A899C8B8ADC0EA5
:100DB000E66E050EE66EE8EC0AF0E552E552898C27
:100DC000040EDB6A050EDB6A060EDB6A070EDB6AC1
:100DD000D950040FE96EDACFEAFFD890030EEB503A
:100DE000000A08E6B80EEE5C0B0EEE58000EEE5848
:100DF000000EEE582BE2830EE66E6EEC0CF0E55220
:100E0000F3CF14F0F4CF15F0166A176A15AE02D0BE
:100E1000166817681450DE261550DE221650DE22A2
:100E20001750DD22DD52DD52010EE66EE66AE8EC77
:100E30000AF0E552E552D950040FE96EDACFEAFF25
:100E4000EE2A000EEE22EE22EE22C2D772C014F07D
:100E500073C015F0166A176A15AE02D016681768C7
:100E6000D9CFE9FFDACFEAFF1450EE5E1550EE5A03
:100E70001650EE5A1750EE5AD9CFE9FFDACFEAFFF3
:100E8000840E0B6E030E0C6E0D6A0E6AEECF06F02A
:100E9000EECF07F0EECF08F0EFCF09F05CEC13F0E7
:100EA00009C0EDFF08C0EDFF07C0EDFF06C0EFFF72
:100EB000000EDFCF74F0010EDBCF75F08B9A8B80C4
:100EC000899CDC0EE66E050EE66EE8EC0AF0E55253
:100ED000E552898C040EDB6A050EDB6A060EDB6ABE
:100EE000070EDB6AD950040FE96EDACFEAFFD8901B
:100EF000030EEB50000A08E6140EEE5C000EEE58EE
:100F0000000EEE58000EEE5826E2870EE66E6EECEE
:100F10000CF0E552F35000016C27F4506D23930E52
:100F2000E66E6EEC0CF0E552F35000016E27F450C3
:100F30006F23320EE66EE66AE8EC0AF0E552E552FF
:100F4000D950040FE96EDACFEAFFEE2A000EEE2246
:100F5000EE22EE22C7D7140E0D6E0E6A6CC008F09A
:100F60006DC009F036EC13F008C06CF009C06DF0EC
:100F7000140E0D6E0E6A6EC008F06FC009F036ECEC
:100F800013F008C06EF009C06FF08988010EE66E9C
:100F9000A9EC18F0E5528B8A010EE66EA9EC18F068
:100FA000E5528A8A8B80899C82B414D082A611D0A3
:100FB00089988B9A8A9A8B90898CF40EE66E010E32
:100FC000E66EE8EC0AF0E552E552899CF36AF46AB1
:100FD00015D0EAD729EC0FF0898CF40EE66E010EDD
:100FE000E66EE8EC0AF0E552E55289988B9A8A9A07
:100FF0008B90899C010EF36EF46A00D0080EE15CC0
:1010000002E2E16AE552E16EE552E7CFD9FF120054
:10101000D9CFE6FFE1CFD9FF240EE126600EDE6EC8
:10102000020EDD6E880EF36E020EF3CFDBFF030EB1
:10103000DB6A6A0EF36E040EF3CFDBFF020EF36E73
:10104000050EF3CFDBFF630EF36E060EF3CFDBFF6F
:10105000070EDB6A2D0EF36E080EF3CFDBFF010ED9
:10106000F36E090EF3CFDBFFCB0EF36E0A0EF3CF58
:10107000DBFF030EF36E0B0EF3CFDBFFFD0EDBCFBA
:101080001CF0FE0EDBCF1DF0DE501C5C1A6EDD5036
:101090001D581B6E640E086E096A1AC00DF01BC045
:1010A0000EF090EC13F006C018F007C019F018C04D
:1010B00008F019C009F0020EDBCF0DF0030EDBCFF4
:1010C0000EF036EC13F008C014F009C015F0166AE3
:1010D000176A15AE02D0166817680C0E14C0DBFF35
:1010E0000D0E15C0DBFF0E0E16C0DBFF0F0E17C076
:1010F000DBFFFB0EDBCF1CF0FC0EDBCF1DF0040E84
:10110000DB501C5C1A6E050EDB501D581B6E640E06
:10111000086E096A1AC00DF01BC00EF090EC13F0B7
:1011200006C018F007C019F018C008F019C009F07F
:10113000060EDBCF0DF0070EDBCF0EF036EC13F012
:1011400008C014F009C015F0166A176A15AE02D06F
:1011500016681768100E14C0DBFF110E15C0DBFFF8
:10116000120E16C0DBFF130E17C0DBFFF90EDBCF2C
:101170001CF0FA0EDBCF1DF0080EDB501C5C1A6E63
:10118000090EDB501D581B6E9C0E086E09681AC0B4
:101190000DF01BC00EF090EC13F006C018F007C065
:1011A00019F018C008F019C009F00A0EDBCF0DF0D5
:1011B0000B0EDBCF0EF036EC13F008C014F009C0B4
:1011C00015F0166A176A15AE02D016681768140E65
:1011D00014C0DBFF150E15C0DBFF160E16C0DBFFBB
:1011E000170E17C0DBFFF70EDBCF20F0F80EDBCFBA
:1011F00021F0640ED8802056000E21560A0E0D6E86
:101200000E6A20C008F021C009F036EC13F008C0C7
:1012100020F009C021F0226A236A21AE02D02268A0
:101220002368100EDBCF18F0110EDBCF19F0120E71
:10123000DBCF1AF0130EDBCF1BF0D9500C0FE96E89
:10124000DACFEAFFEE501826EE501922EE501A229D
:10125000EE501B22F70EDBCF1CF0F80EDBCF1DF09B
:101260001E6A1F6A1DAE02D01E681F681C50185CE3
:10127000146E1D501958156E1E501A58166E1F50B8
:101280001B58176E640E145E000E155A165A175A24
:10129000390E0B6E0C6A0D6A0E6A14C006F015C08A
:1012A00007F016C008F017C009F0E9EC15F002C00D
:1012B00014F003C015F004C016F005C017F014C0F8
:1012C00006F015C007F016C008F017C009F020C0DE
:1012D0000BF021C00CF022C00DF023C00EF05CEC2E
:1012E00013F0180E06C0DBFF190E07C0DBFF1A0E45
:1012F00008C0DBFF1B0E09C0DBFF180EDBCF07F0B9
:10130000190EDBCF08F01A0EDBCF09F01B0EDBCF76
:101310000AF00A34000E0A1809E6D880960E07541F
:10132000000E0854000E0954000E0A540EE2960EE8
:10133000F36E180EF3CFDBFF190EDB6A1A0EDB6AB1
:101340001B0EDB6A0001010E8F6FD950180FE96E7A
:10135000DACFEAFFD880030EEB50FF0A08E66A0EE8
:10136000EE5CFF0EEE58FF0EEE58FF0EEE580EE24A
:101370006A0EF36E180EF3CFDBFF190EDB681A0E40
:10138000DB681B0EDB680001010E8F6FF30EDBCFF5
:1013900018F0F40EDBCF19F01A6A1B6A19AE02D0EE
:1013A0001A681B6818C006F019C007F01AC008F0C8
:1013B0001BC009F0140EDBCF0BF0150EDBCF0CF0C9
:1013C000160EDBCF0DF0170EDBCF0EF0E9EC15F0AB
:1013D00002C014F003C015F004C016F005C017F0E9
:1013E000640E0B6E0C6A0D6A0E6A14C006F015C00E
:1013F00007F016C008F017C009F05CEC13F006C047
:1014000014F007C015F008C016F009C017F0F50E6B
:10141000DBCF1CF0F60EDBCF1DF01E6A1F6A1DAE7F
:1014200002D01E681F681C5014261D5015221E5025
:1014300016221F5017221C0E14C0DBFF1D0E15C0F4
:10144000DBFF1E0E16C0DBFF1F0E17C0DBFF66C0E2
:1014500018F067C019F01A6A1B6A19AE02D01A6830
:101460001B6818C006F019C007F01AC008F01BC0AE
:1014700009F0180EDBCF0BF0190EDBCF0CF01A0EB3
:10148000DBCF0DF01B0EDBCF0EF0E9EC15F002C048
:1014900014F003C015F004C016F005C017F066C0C4
:1014A0001CF067C01DF0E80ED8801C56030E1D56B8
:1014B0001E6A1F6A1DAE02D01E681F681CC006F09F
:1014C0001DC007F01EC008F01FC009F01C0EDBCFC6
:1014D0000BF01D0EDBCF0CF01E0EDBCF0DF01F0E40
:1014E000DBCF0EF0E9EC15F014500224066E155017
:1014F0000320076E16500420086E17500520096E51
:10150000E80E0B6E030E0C6E0D6A0E6A5CEC13F0A7
:1015100006C08BF007C08CF0140EDBCF8DF0150EDB
:10152000DBCF8EF0240EE15C02E2E16AE552E16E6F
:10153000E552E7CFD9FF12008BC0F3FF8CC0F4FF58
:1015400000D012008DC0F3FF8EC0F4FF00D0120057
:0815500000018F5100D01200D0
:08155800D9CFE6FFE1CFD9FF76
:10156000FD0EDB500001955D0001146EFE0EDB5098
:10157000000196590001156E14C0F3FF15C0F4FF69
:1015800000D0E552E7CFD9FF1200D9CFE6FFE1CF77
:10159000D9FFFD0EDB500001955D0001146EFE0EBB
:1015A000DB50000196590001156EFB0EDBCF16F0E3
:1015B000FC0EDBCF17F01450165C1550175802E3E1
:1015C000000E01D0010E00D0E552E7CFD9FF120086
:1015D000D9CFE6FFE1CFD9FF020EE12695C0DEFFAD
:1015E00096C0DDFF0001DE50955D146EDD5096590A
:1015F000156EFD0EDBCF16F0FE0EDBCF17F016508A
:10160000145C1750155801E2EDD7020EE15C02E2BE
:10161000E16AE552E16EE552E7CFD9FF12008DECA9
:1016200017F0F3CF14F0F4CF15F0166A170E145E0E
:10163000FC0E155A000E165A14C0F3FF15C0F4FF25
:1016400000D01200D9CFE6FFE1CFD9FF020EE1268C
:10165000E6DFF3CFDEFFF4CFDDFFDECF16F0DDCF28
:1016600017F016C0E6FF17C0E6FFD9DFE552E7CF57
:1016700017F0E552E7CF16F01650F35C146E1750D2
:10168000F458156EFD0EDBCF18F0FE0EDBCF19F00F
:101690001850145C1950155801E2DFD7020EE15CB6
:1016A00002E2E16AE552E16EE552E7CFD9FF1200AE
:1016B000D9CFE6FFE1CFD9FF040EE1261E0E146E4E
:1016C000160E156E166A176A95C018F096C019F0B6
:1016D000E80E1902F3CF19F0030E1802F350192681
:1016E000E80E1802F3CF18F0F45019261A6A1B6A94
:1016F00018501426195015221A5016221B50172262
:1017000014C0DFFF010E15C0DBFF020E16C0DBFFA9
:10171000030E17C0DBFFDECF06F0DECF07F0DECF13
:1017200008F0DDCF09F0DD52DD52040EE15C03E28A
:1017300000D0E16AE552E16EE552E7CFD9FF120031
:10174000D9CFE6FFE1CFD9FFFB0EDBCF18F0FC0EBF
:10175000DBCF19F0FD0EDBCF1AF0FE0EDBCF1BF056
:1017600018C0E6FF19C0E6FF1AC0E6FF1BC0E6FF7F
:101770009FDFE552E7CF1BF0E552E7CF1AF0E552C5
:10178000E7CF19F0E552E7CF18F000011850065CDA
:10179000146E19500758156E1A500858166E1B50C3
:1017A0000958176E14C006F015C007F016C008F0EF
:1017B00017C009F000D0E552E7CFD9FF1200D9CF0A
:1017C000E6FFE1CFD9FF060EE126640E146E156A1E
:1017D000FD0EDBCF08F0FE0EDBCF09F014C00DF0DC
:1017E00015C00EF045EC18F0020E08C0DBFF030E2A
:1017F00009C0DBFFFD0EDBCF14F0FE0EDBCF15F0D2
:10180000640E0D6E0E6A14C008F015C009F045ECA8
:1018100018F004C014F005C015F00A0E0D6E0E6A23
:1018200014C008F015C009F045EC18F008C014F019
:1018300009C015F0040E14C0DBFFFD0EDBCF14F061
:10184000FE0EDBCF15F00A0E0D6E0E6A14C008F006
:1018500015C009F045EC18F004C014F005C015F0EF
:10186000050E14C0DBFFDE6ADD6ADECF14F0DDCFCB
:1018700015F0020EDBCF16F0030EDBCF17F016507B
:10188000145C175015580AE2500EE66E00EC18F082
:10189000E552DF2A010E01E3DB2AE7D7040EDB5015
:1018A00008E0040EDB50080DF350E66E00EC18F073
:1018B000E552050EDB5008E0050EDB50080DF35035
:1018C000E66E6DEC18F0E552060EE15C02E2E16AAC
:1018D000E552E16EE552E7CFD9FF1200D9CFE6FF1E
:1018E000E1CFD9FFF30EE66E7F0EE66EE66821ECDF
:1018F00016F0E552E552E552FE0EDBCFE6FF2EEC88
:1019000018F0E55207EC00F0000901E0FBD7B4EC59
:1019100018F000D0E552E7CFD9FF1200D9CFE6FF8B
:10192000E1CFD9FF030EE126FB0EDBCF16F0FC0E54
:10193000DBCF17F0DE501624146EDD501720156E25
:10194000FF0ED8801454030E155402E2000E4FD03F
:10195000DE6ADD6ADECF14F0DDCF15F0FA0EDB5063
:10196000166E176A1650145C175015583EE2010E99
:10197000E66EE66AFD0EDBCF16F0FE0EDBCF17F04B
:10198000DE501624146EDD501720156E14C0E6FFCD
:1019900015C0E6FFD950020FE66E000EDA20E66EA3
:1019A00039EC14F0186E060EE15E1850CDEC18F00C
:1019B000020EDBCFE6FFFB0EDBCF16F0FC0EDBCF1B
:1019C00017F0DE501624146EDD501720156E14C06B
:1019D000E6FF15C0E6FFFBEC16F0E552E552E552D6
:1019E000DF2A010E01E3DB2AB5D7010E00D0146E09
:1019F000030EE15C02E2E16AE552E16E1450E55249
:101A0000E7CFD9FF1200D9CFE6FFE1CFD9FF030E10
:101A1000E126FB0EDBCF16F0FC0EDBCF17F0DE501D
:101A20001624146EDD501720156EFF0ED880145446
:101A3000030E155402E2000E4DD0DE6ADD6ADECFE1
:101A400014F0DDCF15F0FA0EDB50166E176A165043
:101A5000145C175015583CE2FB0EDBCF16F0FC0E61
:101A6000DBCF17F0DE501624146EDD501720156EF4
:101A700014C0E6FF15C0E6FF6BEC17F0E552E55227
:101A8000E76E020EE7CFDBFF010EE66EE66AD95085
:101A9000020FE66E000EDA20E66EFD0EDBCF16F0CA
:101AA000FE0EDBCF17F0DE501624146EDD5017202B
:101AB000156E14C0E6FF15C0E6FF39EC14F0186E81
:101AC000060EE15E1850DF2A010E01E3DB2AB7D7CC
:101AD000010E00D0146E030EE15C02E2E16AE552F1
:0C1AE000E16E1450E552E7CFD9FF120070
:041AEC000A0E0001DD
:101AF000606F616B140E626F636B1E0E646F656BBB
:101B0000C80E666F676B050E686F696B1200D9CFE0
:101B1000E6FFE1CFD9FF030EE1268C0EDE6EDD6A13
:101B2000020EF36EF3CFDBFFDBCFE6FFDECFE6FF87
:101B3000DDCFE6FF600EE66E000EE66E03EC0DF004
:101B4000146E050EE15E1450020EDB50DE26000E10
:101B5000DD22020EDBCFE6FFDECFE6FFDDCFE6FFC4
:101B6000620EE66E000EE66E03EC0DF0146E050ECE
:101B7000E15E1450020EDB50DE26000EDD22020E66
:101B8000DBCFE6FFDECFE6FFDDCFE6FF640EE66EDD
:101B9000000EE66E03EC0DF0146E050EE15E1450BF
:101BA000020EDB50DE26000EDD22020EDBCFE6FF4A
:101BB000DECFE6FFDDCFE6FF660EE66E000EE66ED8
:101BC00003EC0DF0146E050EE15E1450020EDB50B6
:101BD000DE26000EDD22020EDBCFE6FFDECFE6FFC3
:101BE000DDCFE6FF680EE66E000EE66E03EC0DF04C
:101BF000146E050EE15E1450020EDB50DE26000E60
:101C0000DD22030EE15C02E2E16AE552E16EE5529B
:101C1000E7CFD9FF1200D9CFE6FFE1CFD9FF030EFE
:101C2000E1268C0EDE6EDD6A020EF36EF3CFDBFF73
:101C3000DBCFE6FFDECFE6FFDDCFE6FF600EE66E30
:101C4000000EE66E8EEC0CF0146E050EE15E145084
:101C5000020EDB50DE26000EDD22020EDBCFE6FF99
:101C6000DECFE6FFDDCFE6FF620EE66E000EE66E2B
:101C70008EEC0CF0146E050EE15E1450020EDB507B
:101C8000DE26000EDD22020EDBCFE6FFDECFE6FF12
:101C9000DDCFE6FF640EE66E000EE66E8EEC0CF015
:101CA000146E050EE15E1450020EDB50DE26000EAF
:101CB000DD22020EDBCFE6FFDECFE6FFDDCFE6FF63
:101CC000660EE66E000EE66E8EEC0CF0146E050EDF
:101CD000E15E1450020EDB50DE26000EDD22020E05
:101CE000DBCFE6FFDECFE6FFDDCFE6FF680EE66E78
:101CF000000EE66E8EEC0CF0146E050EE15E1450D4
:101D0000020EDB50DE26000EDD22030EE15C02E255
:101D1000E16AE552E16EE552E7CFD9FF1200D9CF73
:101D2000E6FFE1CFD9FF030EE126640EDE6EDD6A29
:101D3000020EF36EF3CFDBFFDBCFE6FFDECFE6FF75
:101D4000DDCFE6FF6A0EE66E000EE66E03EC0DF0E8
:101D5000146E050EE15E1450020EDB50DE26000EFE
:101D6000DD22020EDBCFE6FFDECFE6FFDDCFE6FFB2
:101D70006C0EE66E000EE66E03EC0DF0146E050EB2
:101D8000E15E1450020EDB50DE26000EDD22020E54
:101D9000DBCFE6FFDECFE6FFDDCFE6FF6E0EE66EC1
:101DA000000EE66E03EC0DF0146E050EE15E1450AD
:101DB000020EDB50DE26000EDD22020EDBCFE6FF38
:101DC000DECFE6FFDDCFE6FF700EE66E000EE66EBC
:101DD00003EC0DF0146E050EE15E1450020EDB50A4
:101DE000DE26000EDD22020EDBCFE6FFDECFE6FFB1
:101DF000DDCFE6FF720EE66E000EE66E03EC0DF030
:101E0000146E050EE15E1450020EDB50DE26000E4D
:101E1000DD22020EDBCFE6FFDECFE6FFDDCFE6FF01
:101E2000740EE66E000EE66E03EC0DF0146E050EF9
:101E3000E15E1450020EDB50DE26000EDD22030EA2
:101E4000E15C02E2E16AE552E16EE552E7CFD9FFDB
:101E50001200D9CFE6FFE1CFD9FF030EE126640ED1
:101E6000DE6EDD6A020EF36EF3CFDBFFDBCFE6FF43
:101E7000DECFE6FFDDCFE6FF6A0EE66E000EE66E11
:101E80008EEC0CF0146E050EE15E1450020EDB5069
:101E9000DE26000EDD22020EDBCFE6FFDECFE6FF00
:101EA000DDCFE6FF6C0EE66E000EE66E8EEC0CF0FB
:101EB000146E050EE15E1450020EDB50DE26000E9D
:101EC000DD22020EDBCFE6FFDECFE6FFDDCFE6FF51
:101ED0006E0EE66E000EE66E8EEC0CF0146E050EC5
:101EE000E15E1450020EDB50DE26000EDD22020EF3
:101EF000DBCFE6FFDECFE6FFDDCFE6FF700EE66E5E
:101F0000000EE66E8EEC0CF0146E050EE15E1450C1
:101F1000020EDB50DE26000EDD22020EDBCFE6FFD6
:101F2000DECFE6FFDDCFE6FF720EE66E000EE66E58
:101F30008EEC0CF0146E050EE15E1450020EDB50B8
:101F4000DE26000EDD22020EDBCFE6FFDECFE6FF4F
:101F5000DDCFE6FF740EE66E000EE66E8EEC0CF042
:101F6000146E050EE15E1450020EDB50DE26000EEC
:101F7000DD22030EE15C02E2E16AE552E16EE55228
:061F8000E7CFD9FF1200BB
:0A1F8600D9CFE6FFE1CFD9FF020E2C
:101F9000E126ACA2FED7720EE66E17EC18F0E55201
:101FA000720EDF6EACA2FED7FE0EDBCFE6FF17ECA3
:101FB00018F0E552FE0EDB50DF26010EDB6AFB0E49
:101FC000DB50F36E010EDBCFF4FFF350F45C26E23E
:101FD000ACA2FED7010EDB50E76EFC0EDBCFE9FFB3
:101FE000FD0EDBCFEAFFE750E926000EEA22EF50B4
:101FF000E66E17EC18F0E552010EDB50E76EFC0EB2
:10200000DBCFE9FFFD0EDBCFEAFFE750E926000E4C
:10201000EA22EF50DF26010EDB2AD1D7ACA2FED791
:10202000DFCFE6FF17EC18F0E552020EE15C02E2AA
:10203000E16AE552E16EE552E7CFD9FF1200D9CF50
:10204000E6FFE1CFD9FFE652DF6AABA204D0000180
:10205000906B916B926BAB9200019051EA6A770F93
:10206000E96E000EEA22FE0EDBCFEFFF90510BE18E
:10207000FE0EDB50720802E1000E01D0010E030DCE
:10208000F3509227CBD0900501E0B1D0FE0EDBCF0C
:1020900093F093519F0A01E1A5D0820A01E19FD0FC
:1020A000810A01E199D0800A01E193D0870A01E118
:1020B0008DD0810A01E187D0030A01E182D0830A31
:1020C00001E17DD0030A01E178D0810A73E00F0AB3
:1020D0006EE0810A6AE0030A65E0800A60E0810A36
:1020E0005BE0800A56E00A0A51E00D0A4CE0810AE2
:1020F00047E0800A42E0830A3DE0800A38E0810A36
:1021000033E0800A2EE09F0A29E0800A24E0010AD9
:102110001FE0030A1AE0010A15E0070A10E0010AAD
:102120000BE0810A06E0010A01E05FD0010E946F26
:102130005DD0010E946F5AD0010E946F57D0010EEE
:10214000946F54D0010E946F51D0020E946F4ED004
:10215000020E946F4BD0020E946F48D0020E946F13
:1021600045D0020E946F42D0020E946F3FD0020E03
:10217000946F3CD0020E946F39D0020E946F36D01B
:10218000020E946F33D0020E946F30D0020E946F13
:102190002DD0020E946F2AD0020E946F27D0010E1C
:1021A000946F24D0010E946F21D0946B1FD0020E37
:1021B000946F1CD0020E946F19D0946B17D0946B4F
:1021C00015D0946B13D0010E946F10D0010E946F44
:1021D0000DD0020E946F0AD0020E946F07D0010E3C
:1021E000946F04D0010E946F01D0922B17D09405F8
:1021F000905D14E1FE0EDB50915D02E1000E01D016
:10220000010EE8249227925109E193519A0A01E0C4
:1022100003D07AC076F000D0010EDF6EDF5002E10D
:10222000925104E0906B916B926B04D0FE0EDB50E8
:0E2230009127902BE552E552E7CFD9FF12001F
:02223E00D9CFF6
:10224000E6FFE1CFD9FF040EE126FD0EDBCF16F04D
:10225000FE0EDBCF17F0FB0EDB50165C146EFC0E8F
:10226000DB501758156E14C0DEFF15C0DDFF60C0CF
:1022700008F061C009F0DECF0DF0DDCF0EF090EC7C
:1022800013F006C016F007C017F0F90EDBCF08F008
:10229000FA0EDBCF09F062C00DF063C00EF090ECD7
:1022A00013F00650165C146E07501758156E020E88
:1022B00014C0DBFF030E15C0DBFF020EDBCF14F0F2
:1022C000030EDBCF15F014C0F3FF15C0F4FF040EAE
:1022D000E15C03E200D0E16AE552E16EE552E7CF4E
:1022E000D9FF1200D9CFE6FFE1CFD9FF060EE126D4
:1022F000F70EDBCF16F0F80EDBCF17F0F50EDB5044
:10230000165C146EF60EDB501758156E14C0DEFF07
:1023100015C0DDFF050E146E156AF30EDBCF08F055
:10232000F40EDBCF09F014C00DF015C00EF036EC42
:1023300013F0020E08C0DBFF030E09C0DBFFDECF87
:1023400016F0DDCF17F0020EDB50165C146E030E94
:10235000DB501758156E14C008F015C009F064C0A2
:102360000DF065C00EF090EC13F0040E06C0DBFF1C
:10237000050E07C0DBFFF90EDBCF16F0FA0EDBCF40
:1023800017F0020E0D6E0E6A16C008F017C009F0A5
:1023900036EC13F008C016F009C017F0040EDB503D
:1023A000165C146E050EDB501758156EFD0EDBCF54
:1023B000E9FFFE0EDBCFEAFF14C0EEFF15C0EDFF14
:1023C000F90EDBCF16F0FA0EDBCF17F0020E0D6E12
:1023D0000E6A16C008F017C009F036EC13F008C0FA
:1023E00016F009C017F0040EDB501624146E050E0B
:1023F000DB501720156EFB0EDBCFE9FFFC0EDBCFA9
:10240000EAFF14C0EEFF15C0EDFF060EE15C02E22C
:0E241000E16AE552E16EE552E7CFD9FF120016
:02241E00D9CF14
:10242000E6FFE1CFD9FF040EE126090EF36E020E9E
:10243000F3CFDBFF030EDB6AACEC12F076EC0DF0B1
:102440008FEC0EF08B82E80EE66E030EE66EE8EC83
:102450000AF0E552E552020EE66E050EE66EE66AF9
:10246000D950020FE66E000EDA20E66E8EEC0CF00C
:10247000146E050EE15E1450020EE66E050EE66E59
:10248000E66AD950020FE66E000EDA20E66E03EC23
:102490000DF0146E050EE15E14500A0EE66EE66A4B
:1024A000DECFE6FFDDCFE6FF000EE66EE66A830EC6
:1024B000E66E6EEC0CF0E552F3CF14F0F4CF15F0AD
:1024C00014C0E6FF15C0E6FF930EE66E6EEC0CF04E
:1024D000E552F3CF16F0F4CF17F016C0E6FF17C0A1
:1024E000E6FF870EE66E6EEC0CF0E552F3CF18F0C7
:1024F000F4CF19F018C0E6FF19C0E6FF08EC08F0A9
:102500001A6E0C0EE15E1A50640EE66EE66AE8EC96
:102510000AF0E552E552DECFE6FFDDCFE6FF920E90
:10252000E66E310EE66E000EE66EE6EC14F0146E0A
:10253000050EE15E145082A402D03FEC06F0ADD748
:10254000FFD7FFD7040EE15C02E2E16AE552E16EDB
:08255000E552E7CFD9FF1200AC
:08255800D388D38AD38CD392FF
:10256000D3909B8CD3A4FED7928092829284928641
:102570009298928A929C929E93809382938493865F
:102580009388939A938C938E949094929484948647
:102590009498949A949C948E95809582959495960F
:1025A0009598958A959C958E968096829684806A59
:1025B000816A826A836A846A0F01386B396B3A6B6D
:1025C0003B6B3C6B38813883388B3C813C833C854A
:1025D000E66A930EE66E7DEC16F0E552E552170EB4
:1025E000E66EFC0EE66EC8EC17F0E552E552A282EC
:1025F000940EE66EE4EC17F0E552F194870EE66E69
:10260000ACEC17F0E5527F90FD0EE66E22EC17F071
:10261000E552BD0EE66ED1EC16F0E552BD0EE66E4B
:10262000A7EC16F0E552190EE66EE66A7C0EE66E31
:10263000B0EC15F0E552E552E5529F9A190EE66EA0
:10264000E66A7C0EE66E74EC15F0E552E552E55252
:10265000A59AF292F294F090F0929E9AA192A49A86
:0C2660007E90D08EF28CF28E00D0120022
:04266C00006A0EAE44
:102670003FEF13F00D6C0E1EE86A0E22001E09AE2D
:1026800047EF13F0086C091EE86A0922001E45ECAA
:1026900018F009BE57EF13F000AE000C086C091ECD
:1026A000E86A0922046C051EE86A0522000C00BED7
:1026B0004EEF13F00188FF0C006AE86A0EAE69EF76
:1026C00013F00B6C0C1E0D1E0E1E0C220D220E2282
:1026D000001E09AE74EF13F0066C071E081E091EDB
:1026E000072208220922001E47EC17F009BE8BEFD3
:1026F00013F000AE000C066C071E081E091EE86AE7
:10270000072208220922026C031E041E051E032252
:1027100004220522000C00BE7BEF13F00188FF0CA1
:1027200009C013F008C012F008500D02F4CF07F0F2
:10273000F3CF06F009500E02F4CF09F0F3CF08F002
:102740000D02F3500726F4500822E86A09221250BD
:102750000E02F3500726F4500822E86A09220EAE52
:10276000B6EF13F01250085E1350095A13AE000C66
:0A2770000D50085E0E50095A000CCF
:06277A00DACFE4FFE2CF1C
:10278000DAFFE9CFE4FFEACFE4FFF6CFE4FFF7CFCB
:10279000E4FFF5CFE4FFF3CFE4FFF4CFE4FFFACF9B
:1027A000E4FF00EE00F0140EE80403E3EECFE4FFD4
:1027B000FBD700EE14F0100EE80403E3EECFE4FFC5
:1027C000FBD7E652A1A20DD0170EE66EFC0EE66E08
:1027D000C8EC17F0E552E5520001952B000E962348
:1027E000A192F2B2F292E55200EE23F0100EE8044C
:1027F00003E3E5CFEDFFFBD700EE13F0140EE80482
:1028000003E3E5CFEDFFFBD7E5CFFAFFE5CFF4FF1C
:10281000E5CFF3FFE5CFF5FFE5CFF7FFE5CFF6FF17
:10282000E5CFEAFFE5CFE9FFE5CFDAFF1100DACF28
:10283000E4FFE2CFDAFFE652D9CFE6FFE1CFD9FFDE
:10284000E652F0B0F090F0B2F0929EAA02D0AE50F4
:10285000DF6EA4AA02D07450DF6E7EB07E90F2B418
:10286000F294E552E552E7CFD9FFE552E5CFDAFF22
:02287000110055
:0E287200D9CFE6FFDACFE6FFFA0EE3CFD9FFAB
:10288000FB0EE3CFDAFFFC0EE3CFE9FFFD0EE3CF53
:10289000EAFFE9CFF3FFEACFF4FFF80EE35003E1DC
:1028A000F90EE35008E0F80EE30602E2F90EE30643
:1028B000DECFEEFFF2D7FF0EE3CFDAFFE552FF0ED9
:1028C000E3CFD9FFE5521200FE0EE3CFE9FFFF0E82
:1028D000E3CFEAFFF36AF46AEE5203E0F34AF42A24
:1028E000FBD71200FF0EE3CFF8FFE552FF0EE3CF58
:1028F000F7FFE552FF0EE3CFF6FFE552E66AE66A20
:10290000E66A0900F55209E0FD0EE32A05E1FE0E34
:10291000E32A02E1FF0EE32AF4D7FD0EE3CF07F02E
:0E292000FE0EE3CF08F0FF0EE3CF09F0120029
:02292E001E0E7B
:10293000F66E000EF76E000EF86E00010900F550FD
:10294000866F0900F550876F03E1866701D03DD09F
:102950000900F550816F0900F550826F0900F550AC
:10296000836F09000900F550E96E0900F550EA6E21
:10297000090009000900F550846F0900F550856FC2
:1029800009000900F6CF88F0F7CF89F0F8CF8AF078
:1029900081C0F6FF82C0F7FF83C0F8FF00018453B7
:1029A00002E1855307E00900F550EE6E8407F8E276
:1029B0008507F9D788C0F6FF89C0F7FF8AC0F8FFFE
:0C29C00000018607000E875BBFD71200E5
:0429CC00D9CFE6FF7A
:1029D000DACFE6FFE1CFD9FFE2CFDAFFE652E652E7
:1029E000E652E652D950FB0F146EFF0EDA20156E38
:1029F00014C0DEFFDD6EDECFE6FFDDCFE6FFFB0EAF
:102A0000DBCFE6FFFC0EDBCFE6FFFD0EDBCFE6FF04
:102A100097C0E6FF98C0E6FF44EC00F0146E070E86
:102A2000E15C02E2E16AE552E16E1450020EF3CF7E
:102A3000DBFF030EF4CFDBFF020EDBCF14F0030E3F
:102A4000DBCF15F014C0F3FF15C0F4FF040EE15CFA
:102A500002E2E16AE552E16EE552E5CFDAFFE7CF47
:042A6000D9FF120088
:0C2A6400D9CFE6FFDACFE6FFE1CFD9FFC3
:102A7000E2CFDAFFFB0EDBCF14F0FC0EDBCF15F05C
:102A80000001800E15141AE1FB0EDBCFE9FFFC0EEE
:102A9000DBCFEAFFEECFF3FFEDCFF4FFEE2A000E1F
:102AA000EF22F3CFE9FFF4CFEAFFFD0EDBCFEFFF1C
:102AB000EF50156AF36E15C0F4FF10D0FB0EDB501B
:102AC000FE0806E1FD0EDBCFE6FF9BEC18F005D01B
:102AD000FD0EDBCFE6FF03EC00F0E552E552E5CF5B
:082AE000DAFFE7CFD9FF120075
:082AE800D9CFE6FFDACFE6FFCB
:102AF000E1CFD9FFE2CFDAFF726A716AFD0EDBB077
:102B00007288DBA202D0728C718CDBB4728EDBA671
:102B100002D0718801D0718ADBA802D0728401D002
:102B20007294DBBA7186DBAC02D0A38A01D0A39A7F
:102B3000DBAE02D0A38801D0A398FB0EDB50756EEC
:102B4000FC0EDBCF15F015C014F0156A1450766E2C
:102B5000728A718EE552E5CFDAFFE7CFD9FF120016
:102B6000D9CFE6FFDACFE6FFE1CFD9FFE2CFDAFF38
:102B7000AC6AAB6AFD0EDBB0AC88DBA202D0AC8CD9
:102B8000AB8CDBB4AC8EDBA602D0AB8801D0AB8AB9
:102B9000DBB8AC84DBBAAB86DBAC02D09D8A01D05B
:102BA0009D9ADBAE02D09D8801D09D98FB0EDB5034
:102BB000AF6EFC0EDBCF15F015C014F0156A145083
:102BC000B06EAC8AAB8EE552E5CFDAFFE7CFD9FF26
:022BD0001200F1
:0E2BD20006500B02F3CF02F0F4CF03F00C021A
:102BE000F3500326000EF420046E06500D02F3503D
:102BF0000426000EF420056E06500E02F350052642
:102C000007500B02F3500326F4500422000E052255
:102C100007500C02F3500426F450052207500D0211
:102C2000F350052608500B02F3500426F4500522F9
:102C300008500C02F350052609500B02F3500526EC
:022C4000120080
:0E2C4200D9CFE6FFDACFE6FFE1CFD9FFE2CF30
:102C5000DAFFC26AC16AC06AFC0EDB507C0BC26E2E
:102C6000FB0EDB50C16EFD0EDB50040DF350380B34
:102C7000156EFD0EDB380F0B070B146EFD0EDB50CF
:102C8000800B14101510C06EFC0EDBAE03D09E9CA2
:102C90009D8CF28CC280E552E5CFDAFFE7CFD9FFF9
:022CA000120020
:0E2CA200D9CFE6FFE1CFD9FF020EE12699C09F
:102CB000E6FF9AC0E6FFACEC0AF0E552E552F3CF2E
:102CC000DEFFF4CFDDFF95C099F096C09AF0D9CF22
:102CD000E9FFDACFEAFFE80ED880EE54030EED5498
:102CE00002E2DE6ADD6A020EE15C02E2E16AE552BE
:0A2CF000E16EE552E7CFD9FF1200B4
:062CFA00D9CFE6FFDACF9E
:102D0000E6FFE1CFD9FFE2CFDAFFFC0EDB50F30B99
:102D1000B46EFD0EDB507F0BE824B16EB36AB26A6D
:102D2000A192A492FD0EDBAE02D0A08201D0A092AF
:102D3000FC0EDBA402D0A38201D0A392B4BEB48661
:0E2D4000B180E552E5CFDAFFE7CFD9FF1200F0
:022D4E00D9CFDB
:102D5000E6FFDACFE6FFE1CFD9FFE2CFDAFFF0926C
:102D6000FD0EDBA202D0F18801D0F198DBA002D0E9
:102D7000F18E01D0F19E9384DBAC02D0F18001D0C2
:102D8000F190DBAC02D0F08E01D0F09EDBAE02D031
:102D9000F08801D0F098E552E5CFDAFFE7CFD9FF10
:022DA00012001F
:0E2DA200D9CFE6FFDACFE6FFE1CFD9FFE2CFCF
:102DB000DAFFF090FD0EDBA202D0F18A01D0F19A89
:102DC000DBA002D0F18E01D0F19EDBAC02D0F1800D
:102DD00001D0F190DBAC02D0F08C01D0F09C93825A
:102DE000DBAE02D0F08601D0F096E552E5CFDAFFF7
:062DF000E7CFD9FF12003D
:0A2DF600D9CFE6FFDACFE6FFE1CF08
:102E0000D9FFE2CFDAFFFF0EE76EFC0EDBCF14F046
:102E1000E75014161450A96EFB0EDB50A86EA69E48
:102E2000A69CA684F29E550EA76EAA0EA76EA68239
:102E3000A6B2FED7F28EA694E552E5CFDAFFE7CF31
:042E4000D9FF1200A4
:0C2E4400D9CFE6FFDACFE6FFE1CFD9FFDF
:102E5000E2CFDAFFF292FD0EDBA202D0F18C01D0BC
:102E6000F19CDBA002D0F18E01D0F19E9380DBAC0F
:102E700002D0F18001D0F190DBAE02D0F28801D017
:0E2E8000F298E552E5CFDAFFE7CFD9FF120056
:022E8E00056AD3
:102E9000046A036A026A200EE76ED8900636073687
:102EA0000836093602360336043605360B50025C06
:102EB0000C5003580D5004580E50055809E30B50A0
:102EC000025E0C50035A0D50045A0E50055A062A41
:062ED000E72EE4D712001A
:0A2ED600D9CFE6FFDACFE6FFE1CF27
:102EE000D9FFE2CFDAFFFF0EE76EFC0EDBCF14F066
:102EF000FD0EDBCF15F0E7501416156A1450A96EBD
:102F0000A69CA69EA68000000000A85000D0E55216
:0A2F1000E5CFDAFFE7CFD9FF12008A
:062F1A00D9CFE6FFDACF7B
:102F2000E6FFE1CFD9FFE2CFDAFFE652E652B25038
:102F3000DF6E010EB3CFDBFFDECF14F0DDCF15F077
:102F400014C0F3FF15C0F4FFE552E552E552E5CF9A
:082F5000DAFFE7CFD9FF120000
:082F5800D9CFE6FFDACFE6FF56
:102F6000E1CFD9FFE2CFDAFFFD0EDB50FB0B0F0103
:102F7000516F536B7E90FD0EDBAE02D07D8001D091
:102F80007D905185E552E5CFDAFFE7CFD9FF1200FA
:102F9000D9CFE6FFDACFE6FFE1CFD9FFE2CFDAFF04
:102FA000E652E652FC0EDBCFDEFFDBCFDDFF010E8B
:102FB000DB50B36EDF50B26EE552E552E552E5CF1D
:082FC000DAFFE7CFD9FF120090
:082FC800D9CFE6FFDACFE6FFE6
:102FD000E1CFD9FFE2CFDAFFFD0EDB507F0BD56EDC
:102FE000D76AD66AF294FD0EDBAE02D0F28A01D027
:102FF000F29AD58EE552E5CFDAFFE7CFD9FF12007E
:10300000FF0EE350256EEF0E01D0F30EE76EE72EB4
:1030100007EF18F00C0E246EE76AE72E0DEF18F09C
:0E302000242E0CEF18F0252E05EF18F01200EC
:02302E00D9CFF8
:10303000E6FFDACFE6FFE1CFD9FFE2CFDAFFACACB3
:1030400004D0AC9000019BB3AC80FD0EDB50AD6EA4
:0C305000E552E5CFDAFFE7CFD9FF120010
:04305C00D9CFE6FFE3
:10306000DACFE6FFE1CFD9FFE2CFDAFFFD0EDB508A
:103070007C0B146E830EC2141410C26EC282E55211
:0A308000E5CFDAFFE7CFD9FF120019
:06308A00056A046A100E45
:10309000E76ED89008360936043605360D50045CC4
:1030A0000E50055805E30D50045E0E50055A082ACF
:0630B000E72EF0D712002C
:0A30B600F36AF46AFF0EE124E96EEC
:1030C000FF0EE220EA6EED6607D02F0EEF6404D00B
:0A30D0003A0EEF6001D0F32A12005F
:0630DA00FF0EE350256E1D
:1030E000480E01D04C0EE76EE72EFED7E76AE72EBA
:0A30F000FED7252EF7D700001200CE
:0630FA00000EF36E00EE73
:1031000000F0060E01D81200EA6002D0EE6AFCD789
:0A311000F350E9601200EE6AFCD7EC
:06311A0015EE00F025EEA9
:1031200000F0F86A019C97EC14F0D0EC18F00FEC6A
:0631300012F0FBD71200B3
:0A313600FF0EE350ACBA04D0AF6AFC
:10314000AB8EAC8A949CACA2FED7AD6EF36EF46AE3
:0231500012006B
:0E315200FF0EE350E84E1200000000D000D047
:0831600000D0E82EFAD712009E
:08316800C450176E166AC35033
:0A3170001610F36E17C0F4FF1200F2
:06317A0030313233343520
:0B318000363738396162636465660011
:05318B002F722F6E25DC
:023190006400D9
:073192000D0A2564644400EE
:06319A00A6B2FED71200F0
:0231A00012001B
:0231A20000002B
:0531A400000000000026
:0231A900FEFF27
:0531AB0000000000001F
:0231B00000001D
:020000040030CA
:0100010038C6
:0100020018E5
:010003003CC0
:01000500BF3B
:0100060001F8
:01000B00E014
:00000001FF
